
Storage.elf:     file format elf32-littlearm

Sections:
Idx Name          Size      VMA       LMA       File off  Algn
  0 .isr_vector   00000188  08000000  08000000  00010000  2**0
                  CONTENTS, ALLOC, LOAD, READONLY, DATA
  1 .text         0000d900  08000190  08000190  00010190  2**4
                  CONTENTS, ALLOC, LOAD, READONLY, CODE
  2 .rodata       00001348  0800da90  0800da90  0001da90  2**2
                  CONTENTS, ALLOC, LOAD, READONLY, DATA
  3 .ARM.extab    00000000  0800edd8  0800edd8  0002021c  2**0
                  CONTENTS
  4 .ARM          00000008  0800edd8  0800edd8  0001edd8  2**2
                  CONTENTS, ALLOC, LOAD, READONLY, DATA
  5 .preinit_array 00000000  0800ede0  0800ede0  0002021c  2**0
                  CONTENTS, ALLOC, LOAD, DATA
  6 .init_array   00000004  0800ede0  0800ede0  0001ede0  2**2
                  CONTENTS, ALLOC, LOAD, DATA
  7 .fini_array   00000004  0800ede4  0800ede4  0001ede4  2**2
                  CONTENTS, ALLOC, LOAD, DATA
  8 .data         0000021c  20000000  0800ede8  00020000  2**2
                  CONTENTS, ALLOC, LOAD, DATA
  9 .bss          00001050  2000021c  0800f004  0002021c  2**2
                  ALLOC
 10 ._user_heap_stack 00000604  2000126c  0800f004  0002126c  2**0
                  ALLOC
 11 .ARM.attributes 00000030  00000000  00000000  0002021c  2**0
                  CONTENTS, READONLY
 12 .debug_info   00020490  00000000  00000000  0002024c  2**0
                  CONTENTS, READONLY, DEBUGGING
 13 .debug_abbrev 00003b26  00000000  00000000  000406dc  2**0
                  CONTENTS, READONLY, DEBUGGING
 14 .debug_aranges 00001778  00000000  00000000  00044208  2**3
                  CONTENTS, READONLY, DEBUGGING
 15 .debug_ranges 00001740  00000000  00000000  00045980  2**3
                  CONTENTS, READONLY, DEBUGGING
 16 .debug_macro  0002b0c9  00000000  00000000  000470c0  2**0
                  CONTENTS, READONLY, DEBUGGING
 17 .debug_line   000145e6  00000000  00000000  00072189  2**0
                  CONTENTS, READONLY, DEBUGGING
 18 .debug_str    000f9660  00000000  00000000  0008676f  2**0
                  CONTENTS, READONLY, DEBUGGING
 19 .comment      0000007b  00000000  00000000  0017fdcf  2**0
                  CONTENTS, READONLY
 20 .debug_frame  00006f4c  00000000  00000000  0017fe4c  2**2
                  CONTENTS, READONLY, DEBUGGING

Disassembly of section .text:

08000190 <__do_global_dtors_aux>:
 8000190:	b510      	push	{r4, lr}
 8000192:	4c05      	ldr	r4, [pc, #20]	; (80001a8 <__do_global_dtors_aux+0x18>)
 8000194:	7823      	ldrb	r3, [r4, #0]
 8000196:	b933      	cbnz	r3, 80001a6 <__do_global_dtors_aux+0x16>
 8000198:	4b04      	ldr	r3, [pc, #16]	; (80001ac <__do_global_dtors_aux+0x1c>)
 800019a:	b113      	cbz	r3, 80001a2 <__do_global_dtors_aux+0x12>
 800019c:	4804      	ldr	r0, [pc, #16]	; (80001b0 <__do_global_dtors_aux+0x20>)
 800019e:	f3af 8000 	nop.w
 80001a2:	2301      	movs	r3, #1
 80001a4:	7023      	strb	r3, [r4, #0]
 80001a6:	bd10      	pop	{r4, pc}
 80001a8:	2000021c 	.word	0x2000021c
 80001ac:	00000000 	.word	0x00000000
 80001b0:	0800da78 	.word	0x0800da78

080001b4 <frame_dummy>:
 80001b4:	b508      	push	{r3, lr}
 80001b6:	4b03      	ldr	r3, [pc, #12]	; (80001c4 <frame_dummy+0x10>)
 80001b8:	b11b      	cbz	r3, 80001c2 <frame_dummy+0xe>
 80001ba:	4903      	ldr	r1, [pc, #12]	; (80001c8 <frame_dummy+0x14>)
 80001bc:	4803      	ldr	r0, [pc, #12]	; (80001cc <frame_dummy+0x18>)
 80001be:	f3af 8000 	nop.w
 80001c2:	bd08      	pop	{r3, pc}
 80001c4:	00000000 	.word	0x00000000
 80001c8:	20000220 	.word	0x20000220
 80001cc:	0800da78 	.word	0x0800da78

080001d0 <strlen>:
 80001d0:	4603      	mov	r3, r0
 80001d2:	f813 2b01 	ldrb.w	r2, [r3], #1
 80001d6:	2a00      	cmp	r2, #0
 80001d8:	d1fb      	bne.n	80001d2 <strlen+0x2>
 80001da:	1a18      	subs	r0, r3, r0
 80001dc:	3801      	subs	r0, #1
 80001de:	4770      	bx	lr

080001e0 <memchr>:
 80001e0:	f001 01ff 	and.w	r1, r1, #255	; 0xff
 80001e4:	2a10      	cmp	r2, #16
 80001e6:	db2b      	blt.n	8000240 <memchr+0x60>
 80001e8:	f010 0f07 	tst.w	r0, #7
 80001ec:	d008      	beq.n	8000200 <memchr+0x20>
 80001ee:	f810 3b01 	ldrb.w	r3, [r0], #1
 80001f2:	3a01      	subs	r2, #1
 80001f4:	428b      	cmp	r3, r1
 80001f6:	d02d      	beq.n	8000254 <memchr+0x74>
 80001f8:	f010 0f07 	tst.w	r0, #7
 80001fc:	b342      	cbz	r2, 8000250 <memchr+0x70>
 80001fe:	d1f6      	bne.n	80001ee <memchr+0xe>
 8000200:	b4f0      	push	{r4, r5, r6, r7}
 8000202:	ea41 2101 	orr.w	r1, r1, r1, lsl #8
 8000206:	ea41 4101 	orr.w	r1, r1, r1, lsl #16
 800020a:	f022 0407 	bic.w	r4, r2, #7
 800020e:	f07f 0700 	mvns.w	r7, #0
 8000212:	2300      	movs	r3, #0
 8000214:	e8f0 5602 	ldrd	r5, r6, [r0], #8
 8000218:	3c08      	subs	r4, #8
 800021a:	ea85 0501 	eor.w	r5, r5, r1
 800021e:	ea86 0601 	eor.w	r6, r6, r1
 8000222:	fa85 f547 	uadd8	r5, r5, r7
 8000226:	faa3 f587 	sel	r5, r3, r7
 800022a:	fa86 f647 	uadd8	r6, r6, r7
 800022e:	faa5 f687 	sel	r6, r5, r7
 8000232:	b98e      	cbnz	r6, 8000258 <memchr+0x78>
 8000234:	d1ee      	bne.n	8000214 <memchr+0x34>
 8000236:	bcf0      	pop	{r4, r5, r6, r7}
 8000238:	f001 01ff 	and.w	r1, r1, #255	; 0xff
 800023c:	f002 0207 	and.w	r2, r2, #7
 8000240:	b132      	cbz	r2, 8000250 <memchr+0x70>
 8000242:	f810 3b01 	ldrb.w	r3, [r0], #1
 8000246:	3a01      	subs	r2, #1
 8000248:	ea83 0301 	eor.w	r3, r3, r1
 800024c:	b113      	cbz	r3, 8000254 <memchr+0x74>
 800024e:	d1f8      	bne.n	8000242 <memchr+0x62>
 8000250:	2000      	movs	r0, #0
 8000252:	4770      	bx	lr
 8000254:	3801      	subs	r0, #1
 8000256:	4770      	bx	lr
 8000258:	2d00      	cmp	r5, #0
 800025a:	bf06      	itte	eq
 800025c:	4635      	moveq	r5, r6
 800025e:	3803      	subeq	r0, #3
 8000260:	3807      	subne	r0, #7
 8000262:	f015 0f01 	tst.w	r5, #1
 8000266:	d107      	bne.n	8000278 <memchr+0x98>
 8000268:	3001      	adds	r0, #1
 800026a:	f415 7f80 	tst.w	r5, #256	; 0x100
 800026e:	bf02      	ittt	eq
 8000270:	3001      	addeq	r0, #1
 8000272:	f415 3fc0 	tsteq.w	r5, #98304	; 0x18000
 8000276:	3001      	addeq	r0, #1
 8000278:	bcf0      	pop	{r4, r5, r6, r7}
 800027a:	3801      	subs	r0, #1
 800027c:	4770      	bx	lr
 800027e:	bf00      	nop

08000280 <__aeabi_uldivmod>:
 8000280:	b953      	cbnz	r3, 8000298 <__aeabi_uldivmod+0x18>
 8000282:	b94a      	cbnz	r2, 8000298 <__aeabi_uldivmod+0x18>
 8000284:	2900      	cmp	r1, #0
 8000286:	bf08      	it	eq
 8000288:	2800      	cmpeq	r0, #0
 800028a:	bf1c      	itt	ne
 800028c:	f04f 31ff 	movne.w	r1, #4294967295
 8000290:	f04f 30ff 	movne.w	r0, #4294967295
 8000294:	f000 b986 	b.w	80005a4 <__aeabi_idiv0>
 8000298:	f1ad 0c08 	sub.w	ip, sp, #8
 800029c:	e96d ce04 	strd	ip, lr, [sp, #-16]!
 80002a0:	f000 f81a 	bl	80002d8 <__udivmoddi4>
 80002a4:	f8dd e004 	ldr.w	lr, [sp, #4]
 80002a8:	e9dd 2302 	ldrd	r2, r3, [sp, #8]
 80002ac:	b004      	add	sp, #16
 80002ae:	4770      	bx	lr

080002b0 <__popcountsi2>:
 80002b0:	0843      	lsrs	r3, r0, #1
 80002b2:	f003 3355 	and.w	r3, r3, #1431655765	; 0x55555555
 80002b6:	1ac0      	subs	r0, r0, r3
 80002b8:	0883      	lsrs	r3, r0, #2
 80002ba:	f003 3333 	and.w	r3, r3, #858993459	; 0x33333333
 80002be:	f000 3033 	and.w	r0, r0, #858993459	; 0x33333333
 80002c2:	4418      	add	r0, r3
 80002c4:	eb00 1010 	add.w	r0, r0, r0, lsr #4
 80002c8:	f000 300f 	and.w	r0, r0, #252645135	; 0xf0f0f0f
 80002cc:	eb00 2000 	add.w	r0, r0, r0, lsl #8
 80002d0:	eb00 4000 	add.w	r0, r0, r0, lsl #16
 80002d4:	0e00      	lsrs	r0, r0, #24
 80002d6:	4770      	bx	lr

080002d8 <__udivmoddi4>:
 80002d8:	e92d 47f0 	stmdb	sp!, {r4, r5, r6, r7, r8, r9, sl, lr}
 80002dc:	9e08      	ldr	r6, [sp, #32]
 80002de:	4604      	mov	r4, r0
 80002e0:	4688      	mov	r8, r1
 80002e2:	2b00      	cmp	r3, #0
 80002e4:	d14b      	bne.n	800037e <__udivmoddi4+0xa6>
 80002e6:	428a      	cmp	r2, r1
 80002e8:	4615      	mov	r5, r2
 80002ea:	d967      	bls.n	80003bc <__udivmoddi4+0xe4>
 80002ec:	fab2 f282 	clz	r2, r2
 80002f0:	b14a      	cbz	r2, 8000306 <__udivmoddi4+0x2e>
 80002f2:	f1c2 0720 	rsb	r7, r2, #32
 80002f6:	fa01 f302 	lsl.w	r3, r1, r2
 80002fa:	fa20 f707 	lsr.w	r7, r0, r7
 80002fe:	4095      	lsls	r5, r2
 8000300:	ea47 0803 	orr.w	r8, r7, r3
 8000304:	4094      	lsls	r4, r2
 8000306:	ea4f 4e15 	mov.w	lr, r5, lsr #16
 800030a:	0c23      	lsrs	r3, r4, #16
 800030c:	fbb8 f7fe 	udiv	r7, r8, lr
 8000310:	fa1f fc85 	uxth.w	ip, r5
 8000314:	fb0e 8817 	mls	r8, lr, r7, r8
 8000318:	ea43 4308 	orr.w	r3, r3, r8, lsl #16
 800031c:	fb07 f10c 	mul.w	r1, r7, ip
 8000320:	4299      	cmp	r1, r3
 8000322:	d909      	bls.n	8000338 <__udivmoddi4+0x60>
 8000324:	18eb      	adds	r3, r5, r3
 8000326:	f107 30ff 	add.w	r0, r7, #4294967295
 800032a:	f080 811b 	bcs.w	8000564 <__udivmoddi4+0x28c>
 800032e:	4299      	cmp	r1, r3
 8000330:	f240 8118 	bls.w	8000564 <__udivmoddi4+0x28c>
 8000334:	3f02      	subs	r7, #2
 8000336:	442b      	add	r3, r5
 8000338:	1a5b      	subs	r3, r3, r1
 800033a:	b2a4      	uxth	r4, r4
 800033c:	fbb3 f0fe 	udiv	r0, r3, lr
 8000340:	fb0e 3310 	mls	r3, lr, r0, r3
 8000344:	ea44 4403 	orr.w	r4, r4, r3, lsl #16
 8000348:	fb00 fc0c 	mul.w	ip, r0, ip
 800034c:	45a4      	cmp	ip, r4
 800034e:	d909      	bls.n	8000364 <__udivmoddi4+0x8c>
 8000350:	192c      	adds	r4, r5, r4
 8000352:	f100 33ff 	add.w	r3, r0, #4294967295
 8000356:	f080 8107 	bcs.w	8000568 <__udivmoddi4+0x290>
 800035a:	45a4      	cmp	ip, r4
 800035c:	f240 8104 	bls.w	8000568 <__udivmoddi4+0x290>
 8000360:	3802      	subs	r0, #2
 8000362:	442c      	add	r4, r5
 8000364:	ea40 4007 	orr.w	r0, r0, r7, lsl #16
 8000368:	eba4 040c 	sub.w	r4, r4, ip
 800036c:	2700      	movs	r7, #0
 800036e:	b11e      	cbz	r6, 8000378 <__udivmoddi4+0xa0>
 8000370:	40d4      	lsrs	r4, r2
 8000372:	2300      	movs	r3, #0
 8000374:	e9c6 4300 	strd	r4, r3, [r6]
 8000378:	4639      	mov	r1, r7
 800037a:	e8bd 87f0 	ldmia.w	sp!, {r4, r5, r6, r7, r8, r9, sl, pc}
 800037e:	428b      	cmp	r3, r1
 8000380:	d909      	bls.n	8000396 <__udivmoddi4+0xbe>
 8000382:	2e00      	cmp	r6, #0
 8000384:	f000 80eb 	beq.w	800055e <__udivmoddi4+0x286>
 8000388:	2700      	movs	r7, #0
 800038a:	e9c6 0100 	strd	r0, r1, [r6]
 800038e:	4638      	mov	r0, r7
 8000390:	4639      	mov	r1, r7
 8000392:	e8bd 87f0 	ldmia.w	sp!, {r4, r5, r6, r7, r8, r9, sl, pc}
 8000396:	fab3 f783 	clz	r7, r3
 800039a:	2f00      	cmp	r7, #0
 800039c:	d147      	bne.n	800042e <__udivmoddi4+0x156>
 800039e:	428b      	cmp	r3, r1
 80003a0:	d302      	bcc.n	80003a8 <__udivmoddi4+0xd0>
 80003a2:	4282      	cmp	r2, r0
 80003a4:	f200 80fa 	bhi.w	800059c <__udivmoddi4+0x2c4>
 80003a8:	1a84      	subs	r4, r0, r2
 80003aa:	eb61 0303 	sbc.w	r3, r1, r3
 80003ae:	2001      	movs	r0, #1
 80003b0:	4698      	mov	r8, r3
 80003b2:	2e00      	cmp	r6, #0
 80003b4:	d0e0      	beq.n	8000378 <__udivmoddi4+0xa0>
 80003b6:	e9c6 4800 	strd	r4, r8, [r6]
 80003ba:	e7dd      	b.n	8000378 <__udivmoddi4+0xa0>
 80003bc:	b902      	cbnz	r2, 80003c0 <__udivmoddi4+0xe8>
 80003be:	deff      	udf	#255	; 0xff
 80003c0:	fab2 f282 	clz	r2, r2
 80003c4:	2a00      	cmp	r2, #0
 80003c6:	f040 808f 	bne.w	80004e8 <__udivmoddi4+0x210>
 80003ca:	1b49      	subs	r1, r1, r5
 80003cc:	ea4f 4e15 	mov.w	lr, r5, lsr #16
 80003d0:	fa1f f885 	uxth.w	r8, r5
 80003d4:	2701      	movs	r7, #1
 80003d6:	fbb1 fcfe 	udiv	ip, r1, lr
 80003da:	0c23      	lsrs	r3, r4, #16
 80003dc:	fb0e 111c 	mls	r1, lr, ip, r1
 80003e0:	ea43 4301 	orr.w	r3, r3, r1, lsl #16
 80003e4:	fb08 f10c 	mul.w	r1, r8, ip
 80003e8:	4299      	cmp	r1, r3
 80003ea:	d907      	bls.n	80003fc <__udivmoddi4+0x124>
 80003ec:	18eb      	adds	r3, r5, r3
 80003ee:	f10c 30ff 	add.w	r0, ip, #4294967295
 80003f2:	d202      	bcs.n	80003fa <__udivmoddi4+0x122>
 80003f4:	4299      	cmp	r1, r3
 80003f6:	f200 80cd 	bhi.w	8000594 <__udivmoddi4+0x2bc>
 80003fa:	4684      	mov	ip, r0
 80003fc:	1a59      	subs	r1, r3, r1
 80003fe:	b2a3      	uxth	r3, r4
 8000400:	fbb1 f0fe 	udiv	r0, r1, lr
 8000404:	fb0e 1410 	mls	r4, lr, r0, r1
 8000408:	ea43 4404 	orr.w	r4, r3, r4, lsl #16
 800040c:	fb08 f800 	mul.w	r8, r8, r0
 8000410:	45a0      	cmp	r8, r4
 8000412:	d907      	bls.n	8000424 <__udivmoddi4+0x14c>
 8000414:	192c      	adds	r4, r5, r4
 8000416:	f100 33ff 	add.w	r3, r0, #4294967295
 800041a:	d202      	bcs.n	8000422 <__udivmoddi4+0x14a>
 800041c:	45a0      	cmp	r8, r4
 800041e:	f200 80b6 	bhi.w	800058e <__udivmoddi4+0x2b6>
 8000422:	4618      	mov	r0, r3
 8000424:	eba4 0408 	sub.w	r4, r4, r8
 8000428:	ea40 400c 	orr.w	r0, r0, ip, lsl #16
 800042c:	e79f      	b.n	800036e <__udivmoddi4+0x96>
 800042e:	f1c7 0c20 	rsb	ip, r7, #32
 8000432:	40bb      	lsls	r3, r7
 8000434:	fa22 fe0c 	lsr.w	lr, r2, ip
 8000438:	ea4e 0e03 	orr.w	lr, lr, r3
 800043c:	fa01 f407 	lsl.w	r4, r1, r7
 8000440:	fa20 f50c 	lsr.w	r5, r0, ip
 8000444:	fa21 f30c 	lsr.w	r3, r1, ip
 8000448:	ea4f 481e 	mov.w	r8, lr, lsr #16
 800044c:	4325      	orrs	r5, r4
 800044e:	fbb3 f9f8 	udiv	r9, r3, r8
 8000452:	0c2c      	lsrs	r4, r5, #16
 8000454:	fb08 3319 	mls	r3, r8, r9, r3
 8000458:	fa1f fa8e 	uxth.w	sl, lr
 800045c:	ea44 4303 	orr.w	r3, r4, r3, lsl #16
 8000460:	fb09 f40a 	mul.w	r4, r9, sl
 8000464:	429c      	cmp	r4, r3
 8000466:	fa02 f207 	lsl.w	r2, r2, r7
 800046a:	fa00 f107 	lsl.w	r1, r0, r7
 800046e:	d90b      	bls.n	8000488 <__udivmoddi4+0x1b0>
 8000470:	eb1e 0303 	adds.w	r3, lr, r3
 8000474:	f109 30ff 	add.w	r0, r9, #4294967295
 8000478:	f080 8087 	bcs.w	800058a <__udivmoddi4+0x2b2>
 800047c:	429c      	cmp	r4, r3
 800047e:	f240 8084 	bls.w	800058a <__udivmoddi4+0x2b2>
 8000482:	f1a9 0902 	sub.w	r9, r9, #2
 8000486:	4473      	add	r3, lr
 8000488:	1b1b      	subs	r3, r3, r4
 800048a:	b2ad      	uxth	r5, r5
 800048c:	fbb3 f0f8 	udiv	r0, r3, r8
 8000490:	fb08 3310 	mls	r3, r8, r0, r3
 8000494:	ea45 4403 	orr.w	r4, r5, r3, lsl #16
 8000498:	fb00 fa0a 	mul.w	sl, r0, sl
 800049c:	45a2      	cmp	sl, r4
 800049e:	d908      	bls.n	80004b2 <__udivmoddi4+0x1da>
 80004a0:	eb1e 0404 	adds.w	r4, lr, r4
 80004a4:	f100 33ff 	add.w	r3, r0, #4294967295
 80004a8:	d26b      	bcs.n	8000582 <__udivmoddi4+0x2aa>
 80004aa:	45a2      	cmp	sl, r4
 80004ac:	d969      	bls.n	8000582 <__udivmoddi4+0x2aa>
 80004ae:	3802      	subs	r0, #2
 80004b0:	4474      	add	r4, lr
 80004b2:	ea40 4009 	orr.w	r0, r0, r9, lsl #16
 80004b6:	fba0 8902 	umull	r8, r9, r0, r2
 80004ba:	eba4 040a 	sub.w	r4, r4, sl
 80004be:	454c      	cmp	r4, r9
 80004c0:	46c2      	mov	sl, r8
 80004c2:	464b      	mov	r3, r9
 80004c4:	d354      	bcc.n	8000570 <__udivmoddi4+0x298>
 80004c6:	d051      	beq.n	800056c <__udivmoddi4+0x294>
 80004c8:	2e00      	cmp	r6, #0
 80004ca:	d069      	beq.n	80005a0 <__udivmoddi4+0x2c8>
 80004cc:	ebb1 050a 	subs.w	r5, r1, sl
 80004d0:	eb64 0403 	sbc.w	r4, r4, r3
 80004d4:	fa04 fc0c 	lsl.w	ip, r4, ip
 80004d8:	40fd      	lsrs	r5, r7
 80004da:	40fc      	lsrs	r4, r7
 80004dc:	ea4c 0505 	orr.w	r5, ip, r5
 80004e0:	e9c6 5400 	strd	r5, r4, [r6]
 80004e4:	2700      	movs	r7, #0
 80004e6:	e747      	b.n	8000378 <__udivmoddi4+0xa0>
 80004e8:	f1c2 0320 	rsb	r3, r2, #32
 80004ec:	fa20 f703 	lsr.w	r7, r0, r3
 80004f0:	4095      	lsls	r5, r2
 80004f2:	fa01 f002 	lsl.w	r0, r1, r2
 80004f6:	fa21 f303 	lsr.w	r3, r1, r3
 80004fa:	ea4f 4e15 	mov.w	lr, r5, lsr #16
 80004fe:	4338      	orrs	r0, r7
 8000500:	0c01      	lsrs	r1, r0, #16
 8000502:	fbb3 f7fe 	udiv	r7, r3, lr
 8000506:	fa1f f885 	uxth.w	r8, r5
 800050a:	fb0e 3317 	mls	r3, lr, r7, r3
 800050e:	ea41 4103 	orr.w	r1, r1, r3, lsl #16
 8000512:	fb07 f308 	mul.w	r3, r7, r8
 8000516:	428b      	cmp	r3, r1
 8000518:	fa04 f402 	lsl.w	r4, r4, r2
 800051c:	d907      	bls.n	800052e <__udivmoddi4+0x256>
 800051e:	1869      	adds	r1, r5, r1
 8000520:	f107 3cff 	add.w	ip, r7, #4294967295
 8000524:	d22f      	bcs.n	8000586 <__udivmoddi4+0x2ae>
 8000526:	428b      	cmp	r3, r1
 8000528:	d92d      	bls.n	8000586 <__udivmoddi4+0x2ae>
 800052a:	3f02      	subs	r7, #2
 800052c:	4429      	add	r1, r5
 800052e:	1acb      	subs	r3, r1, r3
 8000530:	b281      	uxth	r1, r0
 8000532:	fbb3 f0fe 	udiv	r0, r3, lr
 8000536:	fb0e 3310 	mls	r3, lr, r0, r3
 800053a:	ea41 4103 	orr.w	r1, r1, r3, lsl #16
 800053e:	fb00 f308 	mul.w	r3, r0, r8
 8000542:	428b      	cmp	r3, r1
 8000544:	d907      	bls.n	8000556 <__udivmoddi4+0x27e>
 8000546:	1869      	adds	r1, r5, r1
 8000548:	f100 3cff 	add.w	ip, r0, #4294967295
 800054c:	d217      	bcs.n	800057e <__udivmoddi4+0x2a6>
 800054e:	428b      	cmp	r3, r1
 8000550:	d915      	bls.n	800057e <__udivmoddi4+0x2a6>
 8000552:	3802      	subs	r0, #2
 8000554:	4429      	add	r1, r5
 8000556:	1ac9      	subs	r1, r1, r3
 8000558:	ea40 4707 	orr.w	r7, r0, r7, lsl #16
 800055c:	e73b      	b.n	80003d6 <__udivmoddi4+0xfe>
 800055e:	4637      	mov	r7, r6
 8000560:	4630      	mov	r0, r6
 8000562:	e709      	b.n	8000378 <__udivmoddi4+0xa0>
 8000564:	4607      	mov	r7, r0
 8000566:	e6e7      	b.n	8000338 <__udivmoddi4+0x60>
 8000568:	4618      	mov	r0, r3
 800056a:	e6fb      	b.n	8000364 <__udivmoddi4+0x8c>
 800056c:	4541      	cmp	r1, r8
 800056e:	d2ab      	bcs.n	80004c8 <__udivmoddi4+0x1f0>
 8000570:	ebb8 0a02 	subs.w	sl, r8, r2
 8000574:	eb69 020e 	sbc.w	r2, r9, lr
 8000578:	3801      	subs	r0, #1
 800057a:	4613      	mov	r3, r2
 800057c:	e7a4      	b.n	80004c8 <__udivmoddi4+0x1f0>
 800057e:	4660      	mov	r0, ip
 8000580:	e7e9      	b.n	8000556 <__udivmoddi4+0x27e>
 8000582:	4618      	mov	r0, r3
 8000584:	e795      	b.n	80004b2 <__udivmoddi4+0x1da>
 8000586:	4667      	mov	r7, ip
 8000588:	e7d1      	b.n	800052e <__udivmoddi4+0x256>
 800058a:	4681      	mov	r9, r0
 800058c:	e77c      	b.n	8000488 <__udivmoddi4+0x1b0>
 800058e:	3802      	subs	r0, #2
 8000590:	442c      	add	r4, r5
 8000592:	e747      	b.n	8000424 <__udivmoddi4+0x14c>
 8000594:	f1ac 0c02 	sub.w	ip, ip, #2
 8000598:	442b      	add	r3, r5
 800059a:	e72f      	b.n	80003fc <__udivmoddi4+0x124>
 800059c:	4638      	mov	r0, r7
 800059e:	e708      	b.n	80003b2 <__udivmoddi4+0xda>
 80005a0:	4637      	mov	r7, r6
 80005a2:	e6e9      	b.n	8000378 <__udivmoddi4+0xa0>

080005a4 <__aeabi_idiv0>:
 80005a4:	4770      	bx	lr
 80005a6:	bf00      	nop

080005a8 <flash_status>:
#include "flash_driver.h"

static volatile DSTATUS Stat = STA_NOINIT;	/* Disk Status */

DSTATUS flash_status(BYTE drv)
{
 80005a8:	b480      	push	{r7}
 80005aa:	b083      	sub	sp, #12
 80005ac:	af00      	add	r7, sp, #0
 80005ae:	4603      	mov	r3, r0
 80005b0:	71fb      	strb	r3, [r7, #7]
	return 0x00;
 80005b2:	2300      	movs	r3, #0
//	if (drv) return STA_NOINIT;
//	return Stat;
}
 80005b4:	4618      	mov	r0, r3
 80005b6:	370c      	adds	r7, #12
 80005b8:	46bd      	mov	sp, r7
 80005ba:	f85d 7b04 	ldr.w	r7, [sp], #4
 80005be:	4770      	bx	lr

080005c0 <flash_read>:

DRESULT flash_read(BYTE pdrv, BYTE* buff, DWORD sector, UINT count)
{
 80005c0:	b580      	push	{r7, lr}
 80005c2:	b086      	sub	sp, #24
 80005c4:	af00      	add	r7, sp, #0
 80005c6:	60b9      	str	r1, [r7, #8]
 80005c8:	607a      	str	r2, [r7, #4]
 80005ca:	603b      	str	r3, [r7, #0]
 80005cc:	4603      	mov	r3, r0
 80005ce:	73fb      	strb	r3, [r7, #15]
	//if (Stat & STA_NOINIT) return RES_NOTRDY;

	uint32_t address = sector*512;
 80005d0:	687b      	ldr	r3, [r7, #4]
 80005d2:	025b      	lsls	r3, r3, #9
 80005d4:	617b      	str	r3, [r7, #20]

	if (count == 1)
 80005d6:	683b      	ldr	r3, [r7, #0]
 80005d8:	2b01      	cmp	r3, #1
 80005da:	d109      	bne.n	80005f0 <flash_read+0x30>
	{
		read_data(READ, address, 512, buff);
 80005dc:	68bb      	ldr	r3, [r7, #8]
 80005de:	f44f 7200 	mov.w	r2, #512	; 0x200
 80005e2:	6979      	ldr	r1, [r7, #20]
 80005e4:	2003      	movs	r0, #3
 80005e6:	f000 f8b5 	bl	8000754 <read_data>
		count = 0;
 80005ea:	2300      	movs	r3, #0
 80005ec:	603b      	str	r3, [r7, #0]
 80005ee:	e014      	b.n	800061a <flash_read+0x5a>
	}else
	{
		do {
			read_data(READ, address, 512, buff);
 80005f0:	68bb      	ldr	r3, [r7, #8]
 80005f2:	f44f 7200 	mov.w	r2, #512	; 0x200
 80005f6:	6979      	ldr	r1, [r7, #20]
 80005f8:	2003      	movs	r0, #3
 80005fa:	f000 f8ab 	bl	8000754 <read_data>
			address += 512;
 80005fe:	697b      	ldr	r3, [r7, #20]
 8000600:	f503 7300 	add.w	r3, r3, #512	; 0x200
 8000604:	617b      	str	r3, [r7, #20]
			buff += 512;
 8000606:	68bb      	ldr	r3, [r7, #8]
 8000608:	f503 7300 	add.w	r3, r3, #512	; 0x200
 800060c:	60bb      	str	r3, [r7, #8]
		} while (--count);
 800060e:	683b      	ldr	r3, [r7, #0]
 8000610:	3b01      	subs	r3, #1
 8000612:	603b      	str	r3, [r7, #0]
 8000614:	683b      	ldr	r3, [r7, #0]
 8000616:	2b00      	cmp	r3, #0
 8000618:	d1ea      	bne.n	80005f0 <flash_read+0x30>
	}

	return count ? RES_ERROR : RES_OK;
 800061a:	683b      	ldr	r3, [r7, #0]
 800061c:	2b00      	cmp	r3, #0
 800061e:	bf14      	ite	ne
 8000620:	2301      	movne	r3, #1
 8000622:	2300      	moveq	r3, #0
 8000624:	b2db      	uxtb	r3, r3
}
 8000626:	4618      	mov	r0, r3
 8000628:	3718      	adds	r7, #24
 800062a:	46bd      	mov	sp, r7
 800062c:	bd80      	pop	{r7, pc}

0800062e <flash_write>:

DRESULT flash_write(BYTE pdrv, const BYTE* buff, DWORD sector, UINT count)
{
 800062e:	b580      	push	{r7, lr}
 8000630:	b086      	sub	sp, #24
 8000632:	af00      	add	r7, sp, #0
 8000634:	60b9      	str	r1, [r7, #8]
 8000636:	607a      	str	r2, [r7, #4]
 8000638:	603b      	str	r3, [r7, #0]
 800063a:	4603      	mov	r3, r0
 800063c:	73fb      	strb	r3, [r7, #15]
	//All data before new data to be written is erased. This means we have to read and hold all previous data before
	//erasing a sector

	//if (Stat & STA_NOINIT) return RES_NOTRDY;
	global_protection_unlock();
 800063e:	f000 f9b3 	bl	80009a8 <global_protection_unlock>

	uint32_t address = sector*512;
 8000642:	687b      	ldr	r3, [r7, #4]
 8000644:	025b      	lsls	r3, r3, #9
 8000646:	617b      	str	r3, [r7, #20]

	if (count == 1)
 8000648:	683b      	ldr	r3, [r7, #0]
 800064a:	2b01      	cmp	r3, #1
 800064c:	d11b      	bne.n	8000686 <flash_write+0x58>
	{
		sector_erase(address);
 800064e:	6978      	ldr	r0, [r7, #20]
 8000650:	f000 f958 	bl	8000904 <sector_erase>
		write_data(PP, address, 256, buff);
 8000654:	68bb      	ldr	r3, [r7, #8]
 8000656:	f44f 7280 	mov.w	r2, #256	; 0x100
 800065a:	6979      	ldr	r1, [r7, #20]
 800065c:	2002      	movs	r0, #2
 800065e:	f000 f8e9 	bl	8000834 <write_data>
		address += 256;
 8000662:	697b      	ldr	r3, [r7, #20]
 8000664:	f503 7380 	add.w	r3, r3, #256	; 0x100
 8000668:	617b      	str	r3, [r7, #20]
		buff += 256;
 800066a:	68bb      	ldr	r3, [r7, #8]
 800066c:	f503 7380 	add.w	r3, r3, #256	; 0x100
 8000670:	60bb      	str	r3, [r7, #8]
		write_data(PP, address, 256, buff);
 8000672:	68bb      	ldr	r3, [r7, #8]
 8000674:	f44f 7280 	mov.w	r2, #256	; 0x100
 8000678:	6979      	ldr	r1, [r7, #20]
 800067a:	2002      	movs	r0, #2
 800067c:	f000 f8da 	bl	8000834 <write_data>
		count = 0;
 8000680:	2300      	movs	r3, #0
 8000682:	603b      	str	r3, [r7, #0]
 8000684:	e026      	b.n	80006d4 <flash_write+0xa6>
	}else
	{
		do {
			sector_erase(address);
 8000686:	6978      	ldr	r0, [r7, #20]
 8000688:	f000 f93c 	bl	8000904 <sector_erase>
			write_data(PP, address, 256, buff);
 800068c:	68bb      	ldr	r3, [r7, #8]
 800068e:	f44f 7280 	mov.w	r2, #256	; 0x100
 8000692:	6979      	ldr	r1, [r7, #20]
 8000694:	2002      	movs	r0, #2
 8000696:	f000 f8cd 	bl	8000834 <write_data>
			address += 256;
 800069a:	697b      	ldr	r3, [r7, #20]
 800069c:	f503 7380 	add.w	r3, r3, #256	; 0x100
 80006a0:	617b      	str	r3, [r7, #20]
			buff += 256;
 80006a2:	68bb      	ldr	r3, [r7, #8]
 80006a4:	f503 7380 	add.w	r3, r3, #256	; 0x100
 80006a8:	60bb      	str	r3, [r7, #8]
			write_data(PP, address, 256, buff);
 80006aa:	68bb      	ldr	r3, [r7, #8]
 80006ac:	f44f 7280 	mov.w	r2, #256	; 0x100
 80006b0:	6979      	ldr	r1, [r7, #20]
 80006b2:	2002      	movs	r0, #2
 80006b4:	f000 f8be 	bl	8000834 <write_data>
			address += 256;
 80006b8:	697b      	ldr	r3, [r7, #20]
 80006ba:	f503 7380 	add.w	r3, r3, #256	; 0x100
 80006be:	617b      	str	r3, [r7, #20]
			buff += 256;
 80006c0:	68bb      	ldr	r3, [r7, #8]
 80006c2:	f503 7380 	add.w	r3, r3, #256	; 0x100
 80006c6:	60bb      	str	r3, [r7, #8]
		}while (--count);
 80006c8:	683b      	ldr	r3, [r7, #0]
 80006ca:	3b01      	subs	r3, #1
 80006cc:	603b      	str	r3, [r7, #0]
 80006ce:	683b      	ldr	r3, [r7, #0]
 80006d0:	2b00      	cmp	r3, #0
 80006d2:	d1d8      	bne.n	8000686 <flash_write+0x58>
	}

	return count ? RES_ERROR : RES_OK;
 80006d4:	683b      	ldr	r3, [r7, #0]
 80006d6:	2b00      	cmp	r3, #0
 80006d8:	bf14      	ite	ne
 80006da:	2301      	movne	r3, #1
 80006dc:	2300      	moveq	r3, #0
 80006de:	b2db      	uxtb	r3, r3
}
 80006e0:	4618      	mov	r0, r3
 80006e2:	3718      	adds	r7, #24
 80006e4:	46bd      	mov	sp, r7
 80006e6:	bd80      	pop	{r7, pc}

080006e8 <flash_ioctl>:


DRESULT flash_ioctl(BYTE drv, BYTE ctrl, void *buff)
{
 80006e8:	b480      	push	{r7}
 80006ea:	b085      	sub	sp, #20
 80006ec:	af00      	add	r7, sp, #0
 80006ee:	4603      	mov	r3, r0
 80006f0:	603a      	str	r2, [r7, #0]
 80006f2:	71fb      	strb	r3, [r7, #7]
 80006f4:	460b      	mov	r3, r1
 80006f6:	71bb      	strb	r3, [r7, #6]
	//if (Stat & STA_NOINIT) return RES_NOTRDY;
	DRESULT res;
	switch (ctrl)
 80006f8:	79bb      	ldrb	r3, [r7, #6]
 80006fa:	2b03      	cmp	r3, #3
 80006fc:	d821      	bhi.n	8000742 <flash_ioctl+0x5a>
 80006fe:	a201      	add	r2, pc, #4	; (adr r2, 8000704 <flash_ioctl+0x1c>)
 8000700:	f852 f023 	ldr.w	pc, [r2, r3, lsl #2]
 8000704:	08000731 	.word	0x08000731
 8000708:	08000715 	.word	0x08000715
 800070c:	08000723 	.word	0x08000723
 8000710:	08000737 	.word	0x08000737
			{
			case GET_SECTOR_COUNT:
				/* SEND_CSD */
				*(WORD*) buff = 8192;
 8000714:	683b      	ldr	r3, [r7, #0]
 8000716:	f44f 5200 	mov.w	r2, #8192	; 0x2000
 800071a:	801a      	strh	r2, [r3, #0]
				res = RES_OK;
 800071c:	2300      	movs	r3, #0
 800071e:	73fb      	strb	r3, [r7, #15]
				break;
 8000720:	e011      	b.n	8000746 <flash_ioctl+0x5e>
			case GET_SECTOR_SIZE:
				*(WORD*) buff = 512;
 8000722:	683b      	ldr	r3, [r7, #0]
 8000724:	f44f 7200 	mov.w	r2, #512	; 0x200
 8000728:	801a      	strh	r2, [r3, #0]
				res = RES_OK;
 800072a:	2300      	movs	r3, #0
 800072c:	73fb      	strb	r3, [r7, #15]
				break;
 800072e:	e00a      	b.n	8000746 <flash_ioctl+0x5e>
			case CTRL_SYNC:
				res = RES_OK;
 8000730:	2300      	movs	r3, #0
 8000732:	73fb      	strb	r3, [r7, #15]
				break;
 8000734:	e007      	b.n	8000746 <flash_ioctl+0x5e>
			case GET_BLOCK_SIZE:
				*(WORD*) buff = 4096;
 8000736:	683b      	ldr	r3, [r7, #0]
 8000738:	f44f 5280 	mov.w	r2, #4096	; 0x1000
 800073c:	801a      	strh	r2, [r3, #0]
				res = RES_OK;
 800073e:	2300      	movs	r3, #0
 8000740:	73fb      	strb	r3, [r7, #15]

			default:
				res = RES_PARERR;
 8000742:	2304      	movs	r3, #4
 8000744:	73fb      	strb	r3, [r7, #15]
			}

		return res;
 8000746:	7bfb      	ldrb	r3, [r7, #15]

}
 8000748:	4618      	mov	r0, r3
 800074a:	3714      	adds	r7, #20
 800074c:	46bd      	mov	sp, r7
 800074e:	f85d 7b04 	ldr.w	r7, [sp], #4
 8000752:	4770      	bx	lr

08000754 <read_data>:
void read_data(uint16_t cmd, uint32_t address, uint16_t count, uint8_t *data)
{
 8000754:	b590      	push	{r4, r7, lr}
 8000756:	f2ad 4d1c 	subw	sp, sp, #1052	; 0x41c
 800075a:	af00      	add	r7, sp, #0
 800075c:	4604      	mov	r4, r0
 800075e:	f107 0008 	add.w	r0, r7, #8
 8000762:	6001      	str	r1, [r0, #0]
 8000764:	4611      	mov	r1, r2
 8000766:	1d3a      	adds	r2, r7, #4
 8000768:	6013      	str	r3, [r2, #0]
 800076a:	f107 030e 	add.w	r3, r7, #14
 800076e:	4622      	mov	r2, r4
 8000770:	801a      	strh	r2, [r3, #0]
 8000772:	f107 030c 	add.w	r3, r7, #12
 8000776:	460a      	mov	r2, r1
 8000778:	801a      	strh	r2, [r3, #0]

	  uint8_t command [1024] = {0} ;
 800077a:	f107 0314 	add.w	r3, r7, #20
 800077e:	4618      	mov	r0, r3
 8000780:	f44f 6380 	mov.w	r3, #1024	; 0x400
 8000784:	461a      	mov	r2, r3
 8000786:	2100      	movs	r1, #0
 8000788:	f00b ff66 	bl	800c658 <memset>
	  uint8_t commandLength;

	  switch (cmd)
 800078c:	f107 030e 	add.w	r3, r7, #14
 8000790:	881b      	ldrh	r3, [r3, #0]
 8000792:	2b03      	cmp	r3, #3
 8000794:	d00c      	beq.n	80007b0 <read_data+0x5c>
 8000796:	2b9f      	cmp	r3, #159	; 0x9f
 8000798:	d12c      	bne.n	80007f4 <read_data+0xa0>
	  {
	  case ID:
		  commandLength = 1;
 800079a:	2301      	movs	r3, #1
 800079c:	f887 3417 	strb.w	r3, [r7, #1047]	; 0x417
		  command[0] = cmd;
 80007a0:	f107 030e 	add.w	r3, r7, #14
 80007a4:	881b      	ldrh	r3, [r3, #0]
 80007a6:	b2da      	uxtb	r2, r3
 80007a8:	f107 0314 	add.w	r3, r7, #20
 80007ac:	701a      	strb	r2, [r3, #0]
		  break;
 80007ae:	e021      	b.n	80007f4 <read_data+0xa0>
	  case READ:
		  commandLength = 4;
 80007b0:	2304      	movs	r3, #4
 80007b2:	f887 3417 	strb.w	r3, [r7, #1047]	; 0x417
		  command[0] = cmd;
 80007b6:	f107 030e 	add.w	r3, r7, #14
 80007ba:	881b      	ldrh	r3, [r3, #0]
 80007bc:	b2da      	uxtb	r2, r3
 80007be:	f107 0314 	add.w	r3, r7, #20
 80007c2:	701a      	strb	r2, [r3, #0]
		  command[3] = (address & 0x000000ff);
 80007c4:	f107 0308 	add.w	r3, r7, #8
 80007c8:	681b      	ldr	r3, [r3, #0]
 80007ca:	b2da      	uxtb	r2, r3
 80007cc:	f107 0314 	add.w	r3, r7, #20
 80007d0:	70da      	strb	r2, [r3, #3]
		  command[2] = (address & 0x0000ff00) >> 8;
 80007d2:	f107 0308 	add.w	r3, r7, #8
 80007d6:	681b      	ldr	r3, [r3, #0]
 80007d8:	0a1b      	lsrs	r3, r3, #8
 80007da:	b2da      	uxtb	r2, r3
 80007dc:	f107 0314 	add.w	r3, r7, #20
 80007e0:	709a      	strb	r2, [r3, #2]
		  command[1] = (address & 0x00ff0000) >> 16;
 80007e2:	f107 0308 	add.w	r3, r7, #8
 80007e6:	681b      	ldr	r3, [r3, #0]
 80007e8:	0c1b      	lsrs	r3, r3, #16
 80007ea:	b2da      	uxtb	r2, r3
 80007ec:	f107 0314 	add.w	r3, r7, #20
 80007f0:	705a      	strb	r2, [r3, #1]
		  break;
 80007f2:	bf00      	nop
	  }

	  reset_cs();
 80007f4:	f000 f90a 	bl	8000a0c <reset_cs>

	  HAL_SPI_Transmit(&hspi2,command,commandLength,50);
 80007f8:	f897 3417 	ldrb.w	r3, [r7, #1047]	; 0x417
 80007fc:	b29a      	uxth	r2, r3
 80007fe:	f107 0114 	add.w	r1, r7, #20
 8000802:	2332      	movs	r3, #50	; 0x32
 8000804:	480a      	ldr	r0, [pc, #40]	; (8000830 <read_data+0xdc>)
 8000806:	f009 fca1 	bl	800a14c <HAL_SPI_Transmit>
	  HAL_Delay(20);
 800080a:	2014      	movs	r0, #20
 800080c:	f007 fdde 	bl	80083cc <HAL_Delay>
	  HAL_SPI_Receive(&hspi2, data, count, 50);
 8000810:	f107 030c 	add.w	r3, r7, #12
 8000814:	881a      	ldrh	r2, [r3, #0]
 8000816:	1d39      	adds	r1, r7, #4
 8000818:	2332      	movs	r3, #50	; 0x32
 800081a:	6809      	ldr	r1, [r1, #0]
 800081c:	4804      	ldr	r0, [pc, #16]	; (8000830 <read_data+0xdc>)
 800081e:	f009 fdfb 	bl	800a418 <HAL_SPI_Receive>

	  set_cs();
 8000822:	f000 f8e3 	bl	80009ec <set_cs>
}
 8000826:	bf00      	nop
 8000828:	f207 471c 	addw	r7, r7, #1052	; 0x41c
 800082c:	46bd      	mov	sp, r7
 800082e:	bd90      	pop	{r4, r7, pc}
 8000830:	20000cd8 	.word	0x20000cd8

08000834 <write_data>:

void write_data(uint16_t cmd, uint32_t address, uint16_t count, const uint8_t *data)
{
 8000834:	b590      	push	{r4, r7, lr}
 8000836:	f2ad 4d1c 	subw	sp, sp, #1052	; 0x41c
 800083a:	af00      	add	r7, sp, #0
 800083c:	4604      	mov	r4, r0
 800083e:	f107 0008 	add.w	r0, r7, #8
 8000842:	6001      	str	r1, [r0, #0]
 8000844:	4611      	mov	r1, r2
 8000846:	1d3a      	adds	r2, r7, #4
 8000848:	6013      	str	r3, [r2, #0]
 800084a:	f107 030e 	add.w	r3, r7, #14
 800084e:	4622      	mov	r2, r4
 8000850:	801a      	strh	r2, [r3, #0]
 8000852:	f107 030c 	add.w	r3, r7, #12
 8000856:	460a      	mov	r2, r1
 8000858:	801a      	strh	r2, [r3, #0]
	  //read out entire sector before writing over it.
	  uint8_t command [1024] = {0};
 800085a:	f107 0314 	add.w	r3, r7, #20
 800085e:	4618      	mov	r0, r3
 8000860:	f44f 6380 	mov.w	r3, #1024	; 0x400
 8000864:	461a      	mov	r2, r3
 8000866:	2100      	movs	r1, #0
 8000868:	f00b fef6 	bl	800c658 <memset>
	  uint16_t commandLength = 0;
 800086c:	2300      	movs	r3, #0
 800086e:	f8a7 3416 	strh.w	r3, [r7, #1046]	; 0x416

	  write_enable();
 8000872:	f000 f8db 	bl	8000a2c <write_enable>
	  reset_cs();
 8000876:	f000 f8c9 	bl	8000a0c <reset_cs>
	  commandLength = count+4;
 800087a:	f107 030c 	add.w	r3, r7, #12
 800087e:	881b      	ldrh	r3, [r3, #0]
 8000880:	3304      	adds	r3, #4
 8000882:	f8a7 3416 	strh.w	r3, [r7, #1046]	; 0x416
	  command[0] = cmd;
 8000886:	f107 030e 	add.w	r3, r7, #14
 800088a:	881b      	ldrh	r3, [r3, #0]
 800088c:	b2da      	uxtb	r2, r3
 800088e:	f107 0314 	add.w	r3, r7, #20
 8000892:	701a      	strb	r2, [r3, #0]
	  command[3] = (address & 0x000000ff);
 8000894:	f107 0308 	add.w	r3, r7, #8
 8000898:	681b      	ldr	r3, [r3, #0]
 800089a:	b2da      	uxtb	r2, r3
 800089c:	f107 0314 	add.w	r3, r7, #20
 80008a0:	70da      	strb	r2, [r3, #3]
	  command[2] = (address & 0x0000ff00) >> 8;
 80008a2:	f107 0308 	add.w	r3, r7, #8
 80008a6:	681b      	ldr	r3, [r3, #0]
 80008a8:	0a1b      	lsrs	r3, r3, #8
 80008aa:	b2da      	uxtb	r2, r3
 80008ac:	f107 0314 	add.w	r3, r7, #20
 80008b0:	709a      	strb	r2, [r3, #2]
	  command[1] = (address & 0x00ff0000) >> 16;
 80008b2:	f107 0308 	add.w	r3, r7, #8
 80008b6:	681b      	ldr	r3, [r3, #0]
 80008b8:	0c1b      	lsrs	r3, r3, #16
 80008ba:	b2da      	uxtb	r2, r3
 80008bc:	f107 0314 	add.w	r3, r7, #20
 80008c0:	705a      	strb	r2, [r3, #1]

	  memcpy(&command[4],data,count);
 80008c2:	f107 030c 	add.w	r3, r7, #12
 80008c6:	8819      	ldrh	r1, [r3, #0]
 80008c8:	1d3b      	adds	r3, r7, #4
 80008ca:	f107 0214 	add.w	r2, r7, #20
 80008ce:	1d10      	adds	r0, r2, #4
 80008d0:	460a      	mov	r2, r1
 80008d2:	6819      	ldr	r1, [r3, #0]
 80008d4:	f00b feb5 	bl	800c642 <memcpy>
	  HAL_SPI_Transmit(&hspi2,command,commandLength,50);
 80008d8:	f8b7 2416 	ldrh.w	r2, [r7, #1046]	; 0x416
 80008dc:	f107 0114 	add.w	r1, r7, #20
 80008e0:	2332      	movs	r3, #50	; 0x32
 80008e2:	4807      	ldr	r0, [pc, #28]	; (8000900 <write_data+0xcc>)
 80008e4:	f009 fc32 	bl	800a14c <HAL_SPI_Transmit>
	  HAL_Delay(30);
 80008e8:	201e      	movs	r0, #30
 80008ea:	f007 fd6f 	bl	80083cc <HAL_Delay>

	  set_cs();
 80008ee:	f000 f87d 	bl	80009ec <set_cs>
	  write_disable();
 80008f2:	f000 f8bb 	bl	8000a6c <write_disable>
}
 80008f6:	bf00      	nop
 80008f8:	f207 471c 	addw	r7, r7, #1052	; 0x41c
 80008fc:	46bd      	mov	sp, r7
 80008fe:	bd90      	pop	{r4, r7, pc}
 8000900:	20000cd8 	.word	0x20000cd8

08000904 <sector_erase>:

void sector_erase(uint32_t address)
{
 8000904:	b580      	push	{r7, lr}
 8000906:	b086      	sub	sp, #24
 8000908:	af00      	add	r7, sp, #0
 800090a:	6078      	str	r0, [r7, #4]
	uint8_t command [10] = {0x00};
 800090c:	f107 030c 	add.w	r3, r7, #12
 8000910:	2200      	movs	r2, #0
 8000912:	601a      	str	r2, [r3, #0]
 8000914:	605a      	str	r2, [r3, #4]
 8000916:	811a      	strh	r2, [r3, #8]
	uint8_t commandLength ;

	commandLength = 4;
 8000918:	2304      	movs	r3, #4
 800091a:	75fb      	strb	r3, [r7, #23]
	command[0] = SE;
 800091c:	2320      	movs	r3, #32
 800091e:	733b      	strb	r3, [r7, #12]
	command[1] =  (uint8_t)((address >> 16) & 0xFF);
 8000920:	687b      	ldr	r3, [r7, #4]
 8000922:	0c1b      	lsrs	r3, r3, #16
 8000924:	b2db      	uxtb	r3, r3
 8000926:	737b      	strb	r3, [r7, #13]
	command[2] =  (uint8_t)((address >> 8) & 0xFF);
 8000928:	687b      	ldr	r3, [r7, #4]
 800092a:	0a1b      	lsrs	r3, r3, #8
 800092c:	b2db      	uxtb	r3, r3
 800092e:	73bb      	strb	r3, [r7, #14]
	command[3] =  (uint8_t)((address >> 0) & 0xFF);
 8000930:	687b      	ldr	r3, [r7, #4]
 8000932:	b2db      	uxtb	r3, r3
 8000934:	73fb      	strb	r3, [r7, #15]

	write_enable();
 8000936:	f000 f879 	bl	8000a2c <write_enable>

	reset_cs();
 800093a:	f000 f867 	bl	8000a0c <reset_cs>
	HAL_SPI_Transmit(&hspi2,command,commandLength,50);
 800093e:	7dfb      	ldrb	r3, [r7, #23]
 8000940:	b29a      	uxth	r2, r3
 8000942:	f107 010c 	add.w	r1, r7, #12
 8000946:	2332      	movs	r3, #50	; 0x32
 8000948:	4805      	ldr	r0, [pc, #20]	; (8000960 <sector_erase+0x5c>)
 800094a:	f009 fbff 	bl	800a14c <HAL_SPI_Transmit>
	set_cs();
 800094e:	f000 f84d 	bl	80009ec <set_cs>

	write_disable();
 8000952:	f000 f88b 	bl	8000a6c <write_disable>
}
 8000956:	bf00      	nop
 8000958:	3718      	adds	r7, #24
 800095a:	46bd      	mov	sp, r7
 800095c:	bd80      	pop	{r7, pc}
 800095e:	bf00      	nop
 8000960:	20000cd8 	.word	0x20000cd8

08000964 <chip_erase>:

	write_disable();
}

void chip_erase()
{
 8000964:	b580      	push	{r7, lr}
 8000966:	b084      	sub	sp, #16
 8000968:	af00      	add	r7, sp, #0
	uint8_t command [10] = {0x00};
 800096a:	1d3b      	adds	r3, r7, #4
 800096c:	2200      	movs	r2, #0
 800096e:	601a      	str	r2, [r3, #0]
 8000970:	605a      	str	r2, [r3, #4]
 8000972:	811a      	strh	r2, [r3, #8]
	uint8_t commandLength ;

	commandLength = 1;
 8000974:	2301      	movs	r3, #1
 8000976:	73fb      	strb	r3, [r7, #15]
	command[0] = CE;
 8000978:	23c7      	movs	r3, #199	; 0xc7
 800097a:	713b      	strb	r3, [r7, #4]

	write_enable();
 800097c:	f000 f856 	bl	8000a2c <write_enable>

	reset_cs();
 8000980:	f000 f844 	bl	8000a0c <reset_cs>
	HAL_SPI_Transmit(&hspi2,command,commandLength,50);
 8000984:	7bfb      	ldrb	r3, [r7, #15]
 8000986:	b29a      	uxth	r2, r3
 8000988:	1d39      	adds	r1, r7, #4
 800098a:	2332      	movs	r3, #50	; 0x32
 800098c:	4805      	ldr	r0, [pc, #20]	; (80009a4 <chip_erase+0x40>)
 800098e:	f009 fbdd 	bl	800a14c <HAL_SPI_Transmit>
	set_cs();
 8000992:	f000 f82b 	bl	80009ec <set_cs>

	write_disable();
 8000996:	f000 f869 	bl	8000a6c <write_disable>
}
 800099a:	bf00      	nop
 800099c:	3710      	adds	r7, #16
 800099e:	46bd      	mov	sp, r7
 80009a0:	bd80      	pop	{r7, pc}
 80009a2:	bf00      	nop
 80009a4:	20000cd8 	.word	0x20000cd8

080009a8 <global_protection_unlock>:

void global_protection_unlock()
{
 80009a8:	b580      	push	{r7, lr}
 80009aa:	b084      	sub	sp, #16
 80009ac:	af00      	add	r7, sp, #0
	uint8_t command [10] = {0x00};
 80009ae:	1d3b      	adds	r3, r7, #4
 80009b0:	2200      	movs	r2, #0
 80009b2:	601a      	str	r2, [r3, #0]
 80009b4:	605a      	str	r2, [r3, #4]
 80009b6:	811a      	strh	r2, [r3, #8]
	uint8_t commandLength ;

	commandLength = 1;
 80009b8:	2301      	movs	r3, #1
 80009ba:	73fb      	strb	r3, [r7, #15]
	command[0] = ULBPR;
 80009bc:	2398      	movs	r3, #152	; 0x98
 80009be:	713b      	strb	r3, [r7, #4]

	write_enable();
 80009c0:	f000 f834 	bl	8000a2c <write_enable>

	reset_cs();
 80009c4:	f000 f822 	bl	8000a0c <reset_cs>
	HAL_SPI_Transmit(&hspi2,command,commandLength,50);
 80009c8:	7bfb      	ldrb	r3, [r7, #15]
 80009ca:	b29a      	uxth	r2, r3
 80009cc:	1d39      	adds	r1, r7, #4
 80009ce:	2332      	movs	r3, #50	; 0x32
 80009d0:	4805      	ldr	r0, [pc, #20]	; (80009e8 <global_protection_unlock+0x40>)
 80009d2:	f009 fbbb 	bl	800a14c <HAL_SPI_Transmit>
	set_cs();
 80009d6:	f000 f809 	bl	80009ec <set_cs>

	write_disable();
 80009da:	f000 f847 	bl	8000a6c <write_disable>
}
 80009de:	bf00      	nop
 80009e0:	3710      	adds	r7, #16
 80009e2:	46bd      	mov	sp, r7
 80009e4:	bd80      	pop	{r7, pc}
 80009e6:	bf00      	nop
 80009e8:	20000cd8 	.word	0x20000cd8

080009ec <set_cs>:

	write_disable();
}

void set_cs()
{
 80009ec:	b580      	push	{r7, lr}
 80009ee:	af00      	add	r7, sp, #0
	HAL_GPIO_WritePin(SPI_nCS_GPIO_Port, SPI_nCS_Pin, GPIO_PIN_SET);
 80009f0:	2201      	movs	r2, #1
 80009f2:	f44f 6180 	mov.w	r1, #1024	; 0x400
 80009f6:	4804      	ldr	r0, [pc, #16]	; (8000a08 <set_cs+0x1c>)
 80009f8:	f007 ffd6 	bl	80089a8 <HAL_GPIO_WritePin>
	HAL_Delay(5);
 80009fc:	2005      	movs	r0, #5
 80009fe:	f007 fce5 	bl	80083cc <HAL_Delay>
}
 8000a02:	bf00      	nop
 8000a04:	bd80      	pop	{r7, pc}
 8000a06:	bf00      	nop
 8000a08:	48000800 	.word	0x48000800

08000a0c <reset_cs>:

void reset_cs()
{
 8000a0c:	b580      	push	{r7, lr}
 8000a0e:	af00      	add	r7, sp, #0
	HAL_GPIO_WritePin(SPI_nCS_GPIO_Port, SPI_nCS_Pin, GPIO_PIN_RESET);
 8000a10:	2200      	movs	r2, #0
 8000a12:	f44f 6180 	mov.w	r1, #1024	; 0x400
 8000a16:	4804      	ldr	r0, [pc, #16]	; (8000a28 <reset_cs+0x1c>)
 8000a18:	f007 ffc6 	bl	80089a8 <HAL_GPIO_WritePin>
	HAL_Delay(5);
 8000a1c:	2005      	movs	r0, #5
 8000a1e:	f007 fcd5 	bl	80083cc <HAL_Delay>
}
 8000a22:	bf00      	nop
 8000a24:	bd80      	pop	{r7, pc}
 8000a26:	bf00      	nop
 8000a28:	48000800 	.word	0x48000800

08000a2c <write_enable>:



void write_enable()
{
 8000a2c:	b580      	push	{r7, lr}
 8000a2e:	b084      	sub	sp, #16
 8000a30:	af00      	add	r7, sp, #0
	  uint8_t command [10] = {WREN};
 8000a32:	1d3b      	adds	r3, r7, #4
 8000a34:	2200      	movs	r2, #0
 8000a36:	601a      	str	r2, [r3, #0]
 8000a38:	605a      	str	r2, [r3, #4]
 8000a3a:	811a      	strh	r2, [r3, #8]
 8000a3c:	2306      	movs	r3, #6
 8000a3e:	713b      	strb	r3, [r7, #4]
	  uint8_t commandLength = 1;
 8000a40:	2301      	movs	r3, #1
 8000a42:	73fb      	strb	r3, [r7, #15]

	  reset_cs();
 8000a44:	f7ff ffe2 	bl	8000a0c <reset_cs>
	  HAL_SPI_Transmit(&hspi2,command,commandLength,50);
 8000a48:	7bfb      	ldrb	r3, [r7, #15]
 8000a4a:	b29a      	uxth	r2, r3
 8000a4c:	1d39      	adds	r1, r7, #4
 8000a4e:	2332      	movs	r3, #50	; 0x32
 8000a50:	4805      	ldr	r0, [pc, #20]	; (8000a68 <write_enable+0x3c>)
 8000a52:	f009 fb7b 	bl	800a14c <HAL_SPI_Transmit>
	  HAL_Delay(5);
 8000a56:	2005      	movs	r0, #5
 8000a58:	f007 fcb8 	bl	80083cc <HAL_Delay>
	  set_cs();
 8000a5c:	f7ff ffc6 	bl	80009ec <set_cs>

}
 8000a60:	bf00      	nop
 8000a62:	3710      	adds	r7, #16
 8000a64:	46bd      	mov	sp, r7
 8000a66:	bd80      	pop	{r7, pc}
 8000a68:	20000cd8 	.word	0x20000cd8

08000a6c <write_disable>:

void write_disable()
{
 8000a6c:	b580      	push	{r7, lr}
 8000a6e:	f5ad 6d81 	sub.w	sp, sp, #1032	; 0x408
 8000a72:	af00      	add	r7, sp, #0
	  uint8_t command [1024] = {WRDI};
 8000a74:	1d3b      	adds	r3, r7, #4
 8000a76:	4618      	mov	r0, r3
 8000a78:	f44f 6380 	mov.w	r3, #1024	; 0x400
 8000a7c:	461a      	mov	r2, r3
 8000a7e:	2100      	movs	r1, #0
 8000a80:	f00b fdea 	bl	800c658 <memset>
 8000a84:	1d3b      	adds	r3, r7, #4
 8000a86:	2204      	movs	r2, #4
 8000a88:	701a      	strb	r2, [r3, #0]
	  uint8_t commandLength = 1;
 8000a8a:	2301      	movs	r3, #1
 8000a8c:	f887 3407 	strb.w	r3, [r7, #1031]	; 0x407

	  reset_cs();
 8000a90:	f7ff ffbc 	bl	8000a0c <reset_cs>
	  HAL_SPI_Transmit(&hspi2,command,commandLength,50);
 8000a94:	f897 3407 	ldrb.w	r3, [r7, #1031]	; 0x407
 8000a98:	b29a      	uxth	r2, r3
 8000a9a:	1d39      	adds	r1, r7, #4
 8000a9c:	2332      	movs	r3, #50	; 0x32
 8000a9e:	4806      	ldr	r0, [pc, #24]	; (8000ab8 <write_disable+0x4c>)
 8000aa0:	f009 fb54 	bl	800a14c <HAL_SPI_Transmit>
	  HAL_Delay(5);
 8000aa4:	2005      	movs	r0, #5
 8000aa6:	f007 fc91 	bl	80083cc <HAL_Delay>
	  set_cs();
 8000aaa:	f7ff ff9f 	bl	80009ec <set_cs>
}
 8000aae:	bf00      	nop
 8000ab0:	f507 6781 	add.w	r7, r7, #1032	; 0x408
 8000ab4:	46bd      	mov	sp, r7
 8000ab6:	bd80      	pop	{r7, pc}
 8000ab8:	20000cd8 	.word	0x20000cd8

08000abc <MX_GPIO_Init>:
        * Output
        * EVENT_OUT
        * EXTI
*/
void MX_GPIO_Init(void)
{
 8000abc:	b580      	push	{r7, lr}
 8000abe:	b08a      	sub	sp, #40	; 0x28
 8000ac0:	af00      	add	r7, sp, #0

  GPIO_InitTypeDef GPIO_InitStruct = {0};
 8000ac2:	f107 0314 	add.w	r3, r7, #20
 8000ac6:	2200      	movs	r2, #0
 8000ac8:	601a      	str	r2, [r3, #0]
 8000aca:	605a      	str	r2, [r3, #4]
 8000acc:	609a      	str	r2, [r3, #8]
 8000ace:	60da      	str	r2, [r3, #12]
 8000ad0:	611a      	str	r2, [r3, #16]

  /* GPIO Ports Clock Enable */
  __HAL_RCC_GPIOC_CLK_ENABLE();
 8000ad2:	4b35      	ldr	r3, [pc, #212]	; (8000ba8 <MX_GPIO_Init+0xec>)
 8000ad4:	6cdb      	ldr	r3, [r3, #76]	; 0x4c
 8000ad6:	4a34      	ldr	r2, [pc, #208]	; (8000ba8 <MX_GPIO_Init+0xec>)
 8000ad8:	f043 0304 	orr.w	r3, r3, #4
 8000adc:	64d3      	str	r3, [r2, #76]	; 0x4c
 8000ade:	4b32      	ldr	r3, [pc, #200]	; (8000ba8 <MX_GPIO_Init+0xec>)
 8000ae0:	6cdb      	ldr	r3, [r3, #76]	; 0x4c
 8000ae2:	f003 0304 	and.w	r3, r3, #4
 8000ae6:	613b      	str	r3, [r7, #16]
 8000ae8:	693b      	ldr	r3, [r7, #16]
  __HAL_RCC_GPIOH_CLK_ENABLE();
 8000aea:	4b2f      	ldr	r3, [pc, #188]	; (8000ba8 <MX_GPIO_Init+0xec>)
 8000aec:	6cdb      	ldr	r3, [r3, #76]	; 0x4c
 8000aee:	4a2e      	ldr	r2, [pc, #184]	; (8000ba8 <MX_GPIO_Init+0xec>)
 8000af0:	f043 0380 	orr.w	r3, r3, #128	; 0x80
 8000af4:	64d3      	str	r3, [r2, #76]	; 0x4c
 8000af6:	4b2c      	ldr	r3, [pc, #176]	; (8000ba8 <MX_GPIO_Init+0xec>)
 8000af8:	6cdb      	ldr	r3, [r3, #76]	; 0x4c
 8000afa:	f003 0380 	and.w	r3, r3, #128	; 0x80
 8000afe:	60fb      	str	r3, [r7, #12]
 8000b00:	68fb      	ldr	r3, [r7, #12]
  __HAL_RCC_GPIOA_CLK_ENABLE();
 8000b02:	4b29      	ldr	r3, [pc, #164]	; (8000ba8 <MX_GPIO_Init+0xec>)
 8000b04:	6cdb      	ldr	r3, [r3, #76]	; 0x4c
 8000b06:	4a28      	ldr	r2, [pc, #160]	; (8000ba8 <MX_GPIO_Init+0xec>)
 8000b08:	f043 0301 	orr.w	r3, r3, #1
 8000b0c:	64d3      	str	r3, [r2, #76]	; 0x4c
 8000b0e:	4b26      	ldr	r3, [pc, #152]	; (8000ba8 <MX_GPIO_Init+0xec>)
 8000b10:	6cdb      	ldr	r3, [r3, #76]	; 0x4c
 8000b12:	f003 0301 	and.w	r3, r3, #1
 8000b16:	60bb      	str	r3, [r7, #8]
 8000b18:	68bb      	ldr	r3, [r7, #8]
  __HAL_RCC_GPIOB_CLK_ENABLE();
 8000b1a:	4b23      	ldr	r3, [pc, #140]	; (8000ba8 <MX_GPIO_Init+0xec>)
 8000b1c:	6cdb      	ldr	r3, [r3, #76]	; 0x4c
 8000b1e:	4a22      	ldr	r2, [pc, #136]	; (8000ba8 <MX_GPIO_Init+0xec>)
 8000b20:	f043 0302 	orr.w	r3, r3, #2
 8000b24:	64d3      	str	r3, [r2, #76]	; 0x4c
 8000b26:	4b20      	ldr	r3, [pc, #128]	; (8000ba8 <MX_GPIO_Init+0xec>)
 8000b28:	6cdb      	ldr	r3, [r3, #76]	; 0x4c
 8000b2a:	f003 0302 	and.w	r3, r3, #2
 8000b2e:	607b      	str	r3, [r7, #4]
 8000b30:	687b      	ldr	r3, [r7, #4]

  /*Configure GPIO pin Output Level */
  HAL_GPIO_WritePin(LD2_GPIO_Port, LD2_Pin, GPIO_PIN_RESET);
 8000b32:	2200      	movs	r2, #0
 8000b34:	2120      	movs	r1, #32
 8000b36:	f04f 4090 	mov.w	r0, #1207959552	; 0x48000000
 8000b3a:	f007 ff35 	bl	80089a8 <HAL_GPIO_WritePin>

  /*Configure GPIO pin Output Level */
  HAL_GPIO_WritePin(GPIOC, SPI_nCS_Pin|SPI_nWP_Pin|SPI_nHold_Pin, GPIO_PIN_RESET);
 8000b3e:	2200      	movs	r2, #0
 8000b40:	f44f 51e0 	mov.w	r1, #7168	; 0x1c00
 8000b44:	4819      	ldr	r0, [pc, #100]	; (8000bac <MX_GPIO_Init+0xf0>)
 8000b46:	f007 ff2f 	bl	80089a8 <HAL_GPIO_WritePin>

  /*Configure GPIO pin : PtPin */
  GPIO_InitStruct.Pin = B1_Pin;
 8000b4a:	f44f 5300 	mov.w	r3, #8192	; 0x2000
 8000b4e:	617b      	str	r3, [r7, #20]
  GPIO_InitStruct.Mode = GPIO_MODE_IT_FALLING;
 8000b50:	4b17      	ldr	r3, [pc, #92]	; (8000bb0 <MX_GPIO_Init+0xf4>)
 8000b52:	61bb      	str	r3, [r7, #24]
  GPIO_InitStruct.Pull = GPIO_NOPULL;
 8000b54:	2300      	movs	r3, #0
 8000b56:	61fb      	str	r3, [r7, #28]
  HAL_GPIO_Init(B1_GPIO_Port, &GPIO_InitStruct);
 8000b58:	f107 0314 	add.w	r3, r7, #20
 8000b5c:	4619      	mov	r1, r3
 8000b5e:	4813      	ldr	r0, [pc, #76]	; (8000bac <MX_GPIO_Init+0xf0>)
 8000b60:	f007 fd7a 	bl	8008658 <HAL_GPIO_Init>

  /*Configure GPIO pin : PtPin */
  GPIO_InitStruct.Pin = LD2_Pin;
 8000b64:	2320      	movs	r3, #32
 8000b66:	617b      	str	r3, [r7, #20]
  GPIO_InitStruct.Mode = GPIO_MODE_OUTPUT_PP;
 8000b68:	2301      	movs	r3, #1
 8000b6a:	61bb      	str	r3, [r7, #24]
  GPIO_InitStruct.Pull = GPIO_NOPULL;
 8000b6c:	2300      	movs	r3, #0
 8000b6e:	61fb      	str	r3, [r7, #28]
  GPIO_InitStruct.Speed = GPIO_SPEED_FREQ_LOW;
 8000b70:	2300      	movs	r3, #0
 8000b72:	623b      	str	r3, [r7, #32]
  HAL_GPIO_Init(LD2_GPIO_Port, &GPIO_InitStruct);
 8000b74:	f107 0314 	add.w	r3, r7, #20
 8000b78:	4619      	mov	r1, r3
 8000b7a:	f04f 4090 	mov.w	r0, #1207959552	; 0x48000000
 8000b7e:	f007 fd6b 	bl	8008658 <HAL_GPIO_Init>

  /*Configure GPIO pins : PCPin PCPin PCPin */
  GPIO_InitStruct.Pin = SPI_nCS_Pin|SPI_nWP_Pin|SPI_nHold_Pin;
 8000b82:	f44f 53e0 	mov.w	r3, #7168	; 0x1c00
 8000b86:	617b      	str	r3, [r7, #20]
  GPIO_InitStruct.Mode = GPIO_MODE_OUTPUT_PP;
 8000b88:	2301      	movs	r3, #1
 8000b8a:	61bb      	str	r3, [r7, #24]
  GPIO_InitStruct.Pull = GPIO_PULLUP;
 8000b8c:	2301      	movs	r3, #1
 8000b8e:	61fb      	str	r3, [r7, #28]
  GPIO_InitStruct.Speed = GPIO_SPEED_FREQ_LOW;
 8000b90:	2300      	movs	r3, #0
 8000b92:	623b      	str	r3, [r7, #32]
  HAL_GPIO_Init(GPIOC, &GPIO_InitStruct);
 8000b94:	f107 0314 	add.w	r3, r7, #20
 8000b98:	4619      	mov	r1, r3
 8000b9a:	4804      	ldr	r0, [pc, #16]	; (8000bac <MX_GPIO_Init+0xf0>)
 8000b9c:	f007 fd5c 	bl	8008658 <HAL_GPIO_Init>

}
 8000ba0:	bf00      	nop
 8000ba2:	3728      	adds	r7, #40	; 0x28
 8000ba4:	46bd      	mov	sp, r7
 8000ba6:	bd80      	pop	{r7, pc}
 8000ba8:	40021000 	.word	0x40021000
 8000bac:	48000800 	.word	0x48000800
 8000bb0:	10210000 	.word	0x10210000

08000bb4 <lfs_max>:
// Builtin functions, these may be replaced by more efficient
// toolchain-specific implementations. LFS_NO_INTRINSICS falls back to a more
// expensive basic C implementation for debugging purposes

// Min/max functions for unsigned 32-bit numbers
static inline uint32_t lfs_max(uint32_t a, uint32_t b) {
 8000bb4:	b480      	push	{r7}
 8000bb6:	b083      	sub	sp, #12
 8000bb8:	af00      	add	r7, sp, #0
 8000bba:	6078      	str	r0, [r7, #4]
 8000bbc:	6039      	str	r1, [r7, #0]
    return (a > b) ? a : b;
 8000bbe:	683a      	ldr	r2, [r7, #0]
 8000bc0:	687b      	ldr	r3, [r7, #4]
 8000bc2:	4293      	cmp	r3, r2
 8000bc4:	bf38      	it	cc
 8000bc6:	4613      	movcc	r3, r2
}
 8000bc8:	4618      	mov	r0, r3
 8000bca:	370c      	adds	r7, #12
 8000bcc:	46bd      	mov	sp, r7
 8000bce:	f85d 7b04 	ldr.w	r7, [sp], #4
 8000bd2:	4770      	bx	lr

08000bd4 <lfs_min>:

static inline uint32_t lfs_min(uint32_t a, uint32_t b) {
 8000bd4:	b480      	push	{r7}
 8000bd6:	b083      	sub	sp, #12
 8000bd8:	af00      	add	r7, sp, #0
 8000bda:	6078      	str	r0, [r7, #4]
 8000bdc:	6039      	str	r1, [r7, #0]
    return (a < b) ? a : b;
 8000bde:	683a      	ldr	r2, [r7, #0]
 8000be0:	687b      	ldr	r3, [r7, #4]
 8000be2:	4293      	cmp	r3, r2
 8000be4:	bf28      	it	cs
 8000be6:	4613      	movcs	r3, r2
}
 8000be8:	4618      	mov	r0, r3
 8000bea:	370c      	adds	r7, #12
 8000bec:	46bd      	mov	sp, r7
 8000bee:	f85d 7b04 	ldr.w	r7, [sp], #4
 8000bf2:	4770      	bx	lr

08000bf4 <lfs_aligndown>:

// Align to nearest multiple of a size
static inline uint32_t lfs_aligndown(uint32_t a, uint32_t alignment) {
 8000bf4:	b480      	push	{r7}
 8000bf6:	b083      	sub	sp, #12
 8000bf8:	af00      	add	r7, sp, #0
 8000bfa:	6078      	str	r0, [r7, #4]
 8000bfc:	6039      	str	r1, [r7, #0]
    return a - (a % alignment);
 8000bfe:	687b      	ldr	r3, [r7, #4]
 8000c00:	683a      	ldr	r2, [r7, #0]
 8000c02:	fbb3 f2f2 	udiv	r2, r3, r2
 8000c06:	6839      	ldr	r1, [r7, #0]
 8000c08:	fb01 f202 	mul.w	r2, r1, r2
 8000c0c:	1a9b      	subs	r3, r3, r2
 8000c0e:	687a      	ldr	r2, [r7, #4]
 8000c10:	1ad3      	subs	r3, r2, r3
}
 8000c12:	4618      	mov	r0, r3
 8000c14:	370c      	adds	r7, #12
 8000c16:	46bd      	mov	sp, r7
 8000c18:	f85d 7b04 	ldr.w	r7, [sp], #4
 8000c1c:	4770      	bx	lr

08000c1e <lfs_alignup>:

static inline uint32_t lfs_alignup(uint32_t a, uint32_t alignment) {
 8000c1e:	b580      	push	{r7, lr}
 8000c20:	b082      	sub	sp, #8
 8000c22:	af00      	add	r7, sp, #0
 8000c24:	6078      	str	r0, [r7, #4]
 8000c26:	6039      	str	r1, [r7, #0]
    return lfs_aligndown(a + alignment-1, alignment);
 8000c28:	687a      	ldr	r2, [r7, #4]
 8000c2a:	683b      	ldr	r3, [r7, #0]
 8000c2c:	4413      	add	r3, r2
 8000c2e:	3b01      	subs	r3, #1
 8000c30:	6839      	ldr	r1, [r7, #0]
 8000c32:	4618      	mov	r0, r3
 8000c34:	f7ff ffde 	bl	8000bf4 <lfs_aligndown>
 8000c38:	4603      	mov	r3, r0
}
 8000c3a:	4618      	mov	r0, r3
 8000c3c:	3708      	adds	r7, #8
 8000c3e:	46bd      	mov	sp, r7
 8000c40:	bd80      	pop	{r7, pc}

08000c42 <lfs_npw2>:

// Find the smallest power of 2 greater than or equal to a
static inline uint32_t lfs_npw2(uint32_t a) {
 8000c42:	b480      	push	{r7}
 8000c44:	b083      	sub	sp, #12
 8000c46:	af00      	add	r7, sp, #0
 8000c48:	6078      	str	r0, [r7, #4]
#if !defined(LFS_NO_INTRINSICS) && (defined(__GNUC__) || defined(__CC_ARM))
    return 32 - __builtin_clz(a-1);
 8000c4a:	687b      	ldr	r3, [r7, #4]
 8000c4c:	3b01      	subs	r3, #1
 8000c4e:	fab3 f383 	clz	r3, r3
 8000c52:	f1c3 0320 	rsb	r3, r3, #32
    s = (a > 0xff  ) << 3; a >>= s; r |= s;
    s = (a > 0xf   ) << 2; a >>= s; r |= s;
    s = (a > 0x3   ) << 1; a >>= s; r |= s;
    return (r | (a >> 1)) + 1;
#endif
}
 8000c56:	4618      	mov	r0, r3
 8000c58:	370c      	adds	r7, #12
 8000c5a:	46bd      	mov	sp, r7
 8000c5c:	f85d 7b04 	ldr.w	r7, [sp], #4
 8000c60:	4770      	bx	lr

08000c62 <lfs_ctz>:

// Count the number of trailing binary zeros in a
// lfs_ctz(0) may be undefined
static inline uint32_t lfs_ctz(uint32_t a) {
 8000c62:	b480      	push	{r7}
 8000c64:	b083      	sub	sp, #12
 8000c66:	af00      	add	r7, sp, #0
 8000c68:	6078      	str	r0, [r7, #4]
#if !defined(LFS_NO_INTRINSICS) && defined(__GNUC__)
    return __builtin_ctz(a);
 8000c6a:	687b      	ldr	r3, [r7, #4]
 8000c6c:	fa93 f3a3 	rbit	r3, r3
 8000c70:	fab3 f383 	clz	r3, r3
#else
    return lfs_npw2((a & -a) + 1) - 1;
#endif
}
 8000c74:	4618      	mov	r0, r3
 8000c76:	370c      	adds	r7, #12
 8000c78:	46bd      	mov	sp, r7
 8000c7a:	f85d 7b04 	ldr.w	r7, [sp], #4
 8000c7e:	4770      	bx	lr

08000c80 <lfs_popc>:

// Count the number of binary ones in a
static inline uint32_t lfs_popc(uint32_t a) {
 8000c80:	b580      	push	{r7, lr}
 8000c82:	b082      	sub	sp, #8
 8000c84:	af00      	add	r7, sp, #0
 8000c86:	6078      	str	r0, [r7, #4]
#if !defined(LFS_NO_INTRINSICS) && (defined(__GNUC__) || defined(__CC_ARM))
    return __builtin_popcount(a);
 8000c88:	6878      	ldr	r0, [r7, #4]
 8000c8a:	f7ff fb11 	bl	80002b0 <__popcountsi2>
 8000c8e:	4603      	mov	r3, r0
#else
    a = a - ((a >> 1) & 0x55555555);
    a = (a & 0x33333333) + ((a >> 2) & 0x33333333);
    return (((a + (a >> 4)) & 0xf0f0f0f) * 0x1010101) >> 24;
#endif
}
 8000c90:	4618      	mov	r0, r3
 8000c92:	3708      	adds	r7, #8
 8000c94:	46bd      	mov	sp, r7
 8000c96:	bd80      	pop	{r7, pc}

08000c98 <lfs_scmp>:

// Find the sequence comparison of a and b, this is the distance
// between a and b ignoring overflow
static inline int lfs_scmp(uint32_t a, uint32_t b) {
 8000c98:	b480      	push	{r7}
 8000c9a:	b083      	sub	sp, #12
 8000c9c:	af00      	add	r7, sp, #0
 8000c9e:	6078      	str	r0, [r7, #4]
 8000ca0:	6039      	str	r1, [r7, #0]
    return (int)(unsigned)(a - b);
 8000ca2:	687a      	ldr	r2, [r7, #4]
 8000ca4:	683b      	ldr	r3, [r7, #0]
 8000ca6:	1ad3      	subs	r3, r2, r3
}
 8000ca8:	4618      	mov	r0, r3
 8000caa:	370c      	adds	r7, #12
 8000cac:	46bd      	mov	sp, r7
 8000cae:	f85d 7b04 	ldr.w	r7, [sp], #4
 8000cb2:	4770      	bx	lr

08000cb4 <lfs_fromle32>:

// Convert between 32-bit little-endian and native order
static inline uint32_t lfs_fromle32(uint32_t a) {
 8000cb4:	b480      	push	{r7}
 8000cb6:	b083      	sub	sp, #12
 8000cb8:	af00      	add	r7, sp, #0
 8000cba:	6078      	str	r0, [r7, #4]
#if !defined(LFS_NO_INTRINSICS) && ( \
    (defined(  BYTE_ORDER  ) && defined(  ORDER_LITTLE_ENDIAN  ) &&   BYTE_ORDER   ==   ORDER_LITTLE_ENDIAN  ) || \
    (defined(__BYTE_ORDER  ) && defined(__ORDER_LITTLE_ENDIAN  ) && __BYTE_ORDER   == __ORDER_LITTLE_ENDIAN  ) || \
    (defined(__BYTE_ORDER__) && defined(__ORDER_LITTLE_ENDIAN__) && __BYTE_ORDER__ == __ORDER_LITTLE_ENDIAN__))
    return a;
 8000cbc:	687b      	ldr	r3, [r7, #4]
    return (((uint8_t*)&a)[0] <<  0) |
           (((uint8_t*)&a)[1] <<  8) |
           (((uint8_t*)&a)[2] << 16) |
           (((uint8_t*)&a)[3] << 24);
#endif
}
 8000cbe:	4618      	mov	r0, r3
 8000cc0:	370c      	adds	r7, #12
 8000cc2:	46bd      	mov	sp, r7
 8000cc4:	f85d 7b04 	ldr.w	r7, [sp], #4
 8000cc8:	4770      	bx	lr

08000cca <lfs_tole32>:

static inline uint32_t lfs_tole32(uint32_t a) {
 8000cca:	b580      	push	{r7, lr}
 8000ccc:	b082      	sub	sp, #8
 8000cce:	af00      	add	r7, sp, #0
 8000cd0:	6078      	str	r0, [r7, #4]
    return lfs_fromle32(a);
 8000cd2:	6878      	ldr	r0, [r7, #4]
 8000cd4:	f7ff ffee 	bl	8000cb4 <lfs_fromle32>
 8000cd8:	4603      	mov	r3, r0
}
 8000cda:	4618      	mov	r0, r3
 8000cdc:	3708      	adds	r7, #8
 8000cde:	46bd      	mov	sp, r7
 8000ce0:	bd80      	pop	{r7, pc}

08000ce2 <lfs_frombe32>:

// Convert between 32-bit big-endian and native order
static inline uint32_t lfs_frombe32(uint32_t a) {
 8000ce2:	b480      	push	{r7}
 8000ce4:	b083      	sub	sp, #12
 8000ce6:	af00      	add	r7, sp, #0
 8000ce8:	6078      	str	r0, [r7, #4]
#if !defined(LFS_NO_INTRINSICS) && ( \
    (defined(  BYTE_ORDER  ) && defined(  ORDER_LITTLE_ENDIAN  ) &&   BYTE_ORDER   ==   ORDER_LITTLE_ENDIAN  ) || \
    (defined(__BYTE_ORDER  ) && defined(__ORDER_LITTLE_ENDIAN  ) && __BYTE_ORDER   == __ORDER_LITTLE_ENDIAN  ) || \
    (defined(__BYTE_ORDER__) && defined(__ORDER_LITTLE_ENDIAN__) && __BYTE_ORDER__ == __ORDER_LITTLE_ENDIAN__))
    return __builtin_bswap32(a);
 8000cea:	687b      	ldr	r3, [r7, #4]
 8000cec:	ba1b      	rev	r3, r3
    return (((uint8_t*)&a)[0] << 24) |
           (((uint8_t*)&a)[1] << 16) |
           (((uint8_t*)&a)[2] <<  8) |
           (((uint8_t*)&a)[3] <<  0);
#endif
}
 8000cee:	4618      	mov	r0, r3
 8000cf0:	370c      	adds	r7, #12
 8000cf2:	46bd      	mov	sp, r7
 8000cf4:	f85d 7b04 	ldr.w	r7, [sp], #4
 8000cf8:	4770      	bx	lr

08000cfa <lfs_tobe32>:

static inline uint32_t lfs_tobe32(uint32_t a) {
 8000cfa:	b580      	push	{r7, lr}
 8000cfc:	b082      	sub	sp, #8
 8000cfe:	af00      	add	r7, sp, #0
 8000d00:	6078      	str	r0, [r7, #4]
    return lfs_frombe32(a);
 8000d02:	6878      	ldr	r0, [r7, #4]
 8000d04:	f7ff ffed 	bl	8000ce2 <lfs_frombe32>
 8000d08:	4603      	mov	r3, r0
}
 8000d0a:	4618      	mov	r0, r3
 8000d0c:	3708      	adds	r7, #8
 8000d0e:	46bd      	mov	sp, r7
 8000d10:	bd80      	pop	{r7, pc}

08000d12 <lfs_malloc>:
// Calculate CRC-32 with polynomial = 0x04c11db7
uint32_t lfs_crc(uint32_t crc, const void *buffer, size_t size);

// Allocate memory, only used if buffers are not provided to littlefs
// Note, memory must be 64-bit aligned
static inline void *lfs_malloc(size_t size) {
 8000d12:	b580      	push	{r7, lr}
 8000d14:	b082      	sub	sp, #8
 8000d16:	af00      	add	r7, sp, #0
 8000d18:	6078      	str	r0, [r7, #4]
#ifndef LFS_NO_MALLOC
    return malloc(size);
 8000d1a:	6878      	ldr	r0, [r7, #4]
 8000d1c:	f00b fc72 	bl	800c604 <malloc>
 8000d20:	4603      	mov	r3, r0
#else
    (void)size;
    return NULL;
#endif
}
 8000d22:	4618      	mov	r0, r3
 8000d24:	3708      	adds	r7, #8
 8000d26:	46bd      	mov	sp, r7
 8000d28:	bd80      	pop	{r7, pc}

08000d2a <lfs_free>:

// Deallocate memory, only used if buffers are not provided to littlefs
static inline void lfs_free(void *p) {
 8000d2a:	b580      	push	{r7, lr}
 8000d2c:	b082      	sub	sp, #8
 8000d2e:	af00      	add	r7, sp, #0
 8000d30:	6078      	str	r0, [r7, #4]
#ifndef LFS_NO_MALLOC
    free(p);
 8000d32:	6878      	ldr	r0, [r7, #4]
 8000d34:	f00b fc6e 	bl	800c614 <free>
#else
    (void)p;
#endif
}
 8000d38:	bf00      	nop
 8000d3a:	3708      	adds	r7, #8
 8000d3c:	46bd      	mov	sp, r7
 8000d3e:	bd80      	pop	{r7, pc}

08000d40 <lfs_cache_drop>:

#define LFS_BLOCK_NULL ((lfs_block_t)-1)
#define LFS_BLOCK_INLINE ((lfs_block_t)-2)

/// Caching block device operations ///
static inline void lfs_cache_drop(lfs_t *lfs, lfs_cache_t *rcache) {
 8000d40:	b480      	push	{r7}
 8000d42:	b083      	sub	sp, #12
 8000d44:	af00      	add	r7, sp, #0
 8000d46:	6078      	str	r0, [r7, #4]
 8000d48:	6039      	str	r1, [r7, #0]
    // do not zero, cheaper if cache is readonly or only going to be
    // written with identical data (during relocates)
    (void)lfs;
    rcache->block = LFS_BLOCK_NULL;
 8000d4a:	683b      	ldr	r3, [r7, #0]
 8000d4c:	f04f 32ff 	mov.w	r2, #4294967295
 8000d50:	601a      	str	r2, [r3, #0]
}
 8000d52:	bf00      	nop
 8000d54:	370c      	adds	r7, #12
 8000d56:	46bd      	mov	sp, r7
 8000d58:	f85d 7b04 	ldr.w	r7, [sp], #4
 8000d5c:	4770      	bx	lr

08000d5e <lfs_cache_zero>:

static inline void lfs_cache_zero(lfs_t *lfs, lfs_cache_t *pcache) {
 8000d5e:	b580      	push	{r7, lr}
 8000d60:	b082      	sub	sp, #8
 8000d62:	af00      	add	r7, sp, #0
 8000d64:	6078      	str	r0, [r7, #4]
 8000d66:	6039      	str	r1, [r7, #0]
    // zero to avoid information leak
    memset(pcache->buffer, 0xff, lfs->cfg->cache_size);
 8000d68:	683b      	ldr	r3, [r7, #0]
 8000d6a:	68d8      	ldr	r0, [r3, #12]
 8000d6c:	687b      	ldr	r3, [r7, #4]
 8000d6e:	6e9b      	ldr	r3, [r3, #104]	; 0x68
 8000d70:	6a9b      	ldr	r3, [r3, #40]	; 0x28
 8000d72:	461a      	mov	r2, r3
 8000d74:	21ff      	movs	r1, #255	; 0xff
 8000d76:	f00b fc6f 	bl	800c658 <memset>
    pcache->block = LFS_BLOCK_NULL;
 8000d7a:	683b      	ldr	r3, [r7, #0]
 8000d7c:	f04f 32ff 	mov.w	r2, #4294967295
 8000d80:	601a      	str	r2, [r3, #0]
}
 8000d82:	bf00      	nop
 8000d84:	3708      	adds	r7, #8
 8000d86:	46bd      	mov	sp, r7
 8000d88:	bd80      	pop	{r7, pc}
	...

08000d8c <lfs_bd_read>:

static int lfs_bd_read(lfs_t *lfs,
        const lfs_cache_t *pcache, lfs_cache_t *rcache, lfs_size_t hint,
        lfs_block_t block, lfs_off_t off,
        void *buffer, lfs_size_t size) {
 8000d8c:	b5b0      	push	{r4, r5, r7, lr}
 8000d8e:	b08a      	sub	sp, #40	; 0x28
 8000d90:	af02      	add	r7, sp, #8
 8000d92:	60f8      	str	r0, [r7, #12]
 8000d94:	60b9      	str	r1, [r7, #8]
 8000d96:	607a      	str	r2, [r7, #4]
 8000d98:	603b      	str	r3, [r7, #0]
    uint8_t *data = buffer;
 8000d9a:	6bbb      	ldr	r3, [r7, #56]	; 0x38
 8000d9c:	61fb      	str	r3, [r7, #28]
    if (block >= lfs->cfg->block_count ||
 8000d9e:	68fb      	ldr	r3, [r7, #12]
 8000da0:	6e9b      	ldr	r3, [r3, #104]	; 0x68
 8000da2:	6a1b      	ldr	r3, [r3, #32]
 8000da4:	6b3a      	ldr	r2, [r7, #48]	; 0x30
 8000da6:	429a      	cmp	r2, r3
 8000da8:	d208      	bcs.n	8000dbc <lfs_bd_read+0x30>
            off+size > lfs->cfg->block_size) {
 8000daa:	6b7a      	ldr	r2, [r7, #52]	; 0x34
 8000dac:	6bfb      	ldr	r3, [r7, #60]	; 0x3c
 8000dae:	441a      	add	r2, r3
 8000db0:	68fb      	ldr	r3, [r7, #12]
 8000db2:	6e9b      	ldr	r3, [r3, #104]	; 0x68
 8000db4:	69db      	ldr	r3, [r3, #28]
    if (block >= lfs->cfg->block_count ||
 8000db6:	429a      	cmp	r2, r3
 8000db8:	f240 811b 	bls.w	8000ff2 <lfs_bd_read+0x266>
        return LFS_ERR_CORRUPT;
 8000dbc:	f06f 0353 	mvn.w	r3, #83	; 0x53
 8000dc0:	e11c      	b.n	8000ffc <lfs_bd_read+0x270>
    }

    while (size > 0) {
        lfs_size_t diff = size;
 8000dc2:	6bfb      	ldr	r3, [r7, #60]	; 0x3c
 8000dc4:	61bb      	str	r3, [r7, #24]

        if (pcache && block == pcache->block &&
 8000dc6:	68bb      	ldr	r3, [r7, #8]
 8000dc8:	2b00      	cmp	r3, #0
 8000dca:	d03f      	beq.n	8000e4c <lfs_bd_read+0xc0>
 8000dcc:	68bb      	ldr	r3, [r7, #8]
 8000dce:	681b      	ldr	r3, [r3, #0]
 8000dd0:	6b3a      	ldr	r2, [r7, #48]	; 0x30
 8000dd2:	429a      	cmp	r2, r3
 8000dd4:	d13a      	bne.n	8000e4c <lfs_bd_read+0xc0>
                off < pcache->off + pcache->size) {
 8000dd6:	68bb      	ldr	r3, [r7, #8]
 8000dd8:	685a      	ldr	r2, [r3, #4]
 8000dda:	68bb      	ldr	r3, [r7, #8]
 8000ddc:	689b      	ldr	r3, [r3, #8]
 8000dde:	4413      	add	r3, r2
        if (pcache && block == pcache->block &&
 8000de0:	6b7a      	ldr	r2, [r7, #52]	; 0x34
 8000de2:	429a      	cmp	r2, r3
 8000de4:	d232      	bcs.n	8000e4c <lfs_bd_read+0xc0>
            if (off >= pcache->off) {
 8000de6:	68bb      	ldr	r3, [r7, #8]
 8000de8:	685b      	ldr	r3, [r3, #4]
 8000dea:	6b7a      	ldr	r2, [r7, #52]	; 0x34
 8000dec:	429a      	cmp	r2, r3
 8000dee:	d324      	bcc.n	8000e3a <lfs_bd_read+0xae>
                // is already in pcache?
                diff = lfs_min(diff, pcache->size - (off-pcache->off));
 8000df0:	68bb      	ldr	r3, [r7, #8]
 8000df2:	689a      	ldr	r2, [r3, #8]
 8000df4:	68bb      	ldr	r3, [r7, #8]
 8000df6:	6859      	ldr	r1, [r3, #4]
 8000df8:	6b7b      	ldr	r3, [r7, #52]	; 0x34
 8000dfa:	1acb      	subs	r3, r1, r3
 8000dfc:	4413      	add	r3, r2
 8000dfe:	4619      	mov	r1, r3
 8000e00:	69b8      	ldr	r0, [r7, #24]
 8000e02:	f7ff fee7 	bl	8000bd4 <lfs_min>
 8000e06:	61b8      	str	r0, [r7, #24]
                memcpy(data, &pcache->buffer[off-pcache->off], diff);
 8000e08:	68bb      	ldr	r3, [r7, #8]
 8000e0a:	68da      	ldr	r2, [r3, #12]
 8000e0c:	68bb      	ldr	r3, [r7, #8]
 8000e0e:	685b      	ldr	r3, [r3, #4]
 8000e10:	6b79      	ldr	r1, [r7, #52]	; 0x34
 8000e12:	1acb      	subs	r3, r1, r3
 8000e14:	4413      	add	r3, r2
 8000e16:	69ba      	ldr	r2, [r7, #24]
 8000e18:	4619      	mov	r1, r3
 8000e1a:	69f8      	ldr	r0, [r7, #28]
 8000e1c:	f00b fc11 	bl	800c642 <memcpy>

                data += diff;
 8000e20:	69fa      	ldr	r2, [r7, #28]
 8000e22:	69bb      	ldr	r3, [r7, #24]
 8000e24:	4413      	add	r3, r2
 8000e26:	61fb      	str	r3, [r7, #28]
                off += diff;
 8000e28:	6b7a      	ldr	r2, [r7, #52]	; 0x34
 8000e2a:	69bb      	ldr	r3, [r7, #24]
 8000e2c:	4413      	add	r3, r2
 8000e2e:	637b      	str	r3, [r7, #52]	; 0x34
                size -= diff;
 8000e30:	6bfa      	ldr	r2, [r7, #60]	; 0x3c
 8000e32:	69bb      	ldr	r3, [r7, #24]
 8000e34:	1ad3      	subs	r3, r2, r3
 8000e36:	63fb      	str	r3, [r7, #60]	; 0x3c
                continue;
 8000e38:	e0db      	b.n	8000ff2 <lfs_bd_read+0x266>
            }

            // pcache takes priority
            diff = lfs_min(diff, pcache->off-off);
 8000e3a:	68bb      	ldr	r3, [r7, #8]
 8000e3c:	685a      	ldr	r2, [r3, #4]
 8000e3e:	6b7b      	ldr	r3, [r7, #52]	; 0x34
 8000e40:	1ad3      	subs	r3, r2, r3
 8000e42:	4619      	mov	r1, r3
 8000e44:	69b8      	ldr	r0, [r7, #24]
 8000e46:	f7ff fec5 	bl	8000bd4 <lfs_min>
 8000e4a:	61b8      	str	r0, [r7, #24]
        }

        if (block == rcache->block &&
 8000e4c:	687b      	ldr	r3, [r7, #4]
 8000e4e:	681b      	ldr	r3, [r3, #0]
 8000e50:	6b3a      	ldr	r2, [r7, #48]	; 0x30
 8000e52:	429a      	cmp	r2, r3
 8000e54:	d13a      	bne.n	8000ecc <lfs_bd_read+0x140>
                off < rcache->off + rcache->size) {
 8000e56:	687b      	ldr	r3, [r7, #4]
 8000e58:	685a      	ldr	r2, [r3, #4]
 8000e5a:	687b      	ldr	r3, [r7, #4]
 8000e5c:	689b      	ldr	r3, [r3, #8]
 8000e5e:	4413      	add	r3, r2
        if (block == rcache->block &&
 8000e60:	6b7a      	ldr	r2, [r7, #52]	; 0x34
 8000e62:	429a      	cmp	r2, r3
 8000e64:	d232      	bcs.n	8000ecc <lfs_bd_read+0x140>
            if (off >= rcache->off) {
 8000e66:	687b      	ldr	r3, [r7, #4]
 8000e68:	685b      	ldr	r3, [r3, #4]
 8000e6a:	6b7a      	ldr	r2, [r7, #52]	; 0x34
 8000e6c:	429a      	cmp	r2, r3
 8000e6e:	d324      	bcc.n	8000eba <lfs_bd_read+0x12e>
                // is already in rcache?
                diff = lfs_min(diff, rcache->size - (off-rcache->off));
 8000e70:	687b      	ldr	r3, [r7, #4]
 8000e72:	689a      	ldr	r2, [r3, #8]
 8000e74:	687b      	ldr	r3, [r7, #4]
 8000e76:	6859      	ldr	r1, [r3, #4]
 8000e78:	6b7b      	ldr	r3, [r7, #52]	; 0x34
 8000e7a:	1acb      	subs	r3, r1, r3
 8000e7c:	4413      	add	r3, r2
 8000e7e:	4619      	mov	r1, r3
 8000e80:	69b8      	ldr	r0, [r7, #24]
 8000e82:	f7ff fea7 	bl	8000bd4 <lfs_min>
 8000e86:	61b8      	str	r0, [r7, #24]
                memcpy(data, &rcache->buffer[off-rcache->off], diff);
 8000e88:	687b      	ldr	r3, [r7, #4]
 8000e8a:	68da      	ldr	r2, [r3, #12]
 8000e8c:	687b      	ldr	r3, [r7, #4]
 8000e8e:	685b      	ldr	r3, [r3, #4]
 8000e90:	6b79      	ldr	r1, [r7, #52]	; 0x34
 8000e92:	1acb      	subs	r3, r1, r3
 8000e94:	4413      	add	r3, r2
 8000e96:	69ba      	ldr	r2, [r7, #24]
 8000e98:	4619      	mov	r1, r3
 8000e9a:	69f8      	ldr	r0, [r7, #28]
 8000e9c:	f00b fbd1 	bl	800c642 <memcpy>

                data += diff;
 8000ea0:	69fa      	ldr	r2, [r7, #28]
 8000ea2:	69bb      	ldr	r3, [r7, #24]
 8000ea4:	4413      	add	r3, r2
 8000ea6:	61fb      	str	r3, [r7, #28]
                off += diff;
 8000ea8:	6b7a      	ldr	r2, [r7, #52]	; 0x34
 8000eaa:	69bb      	ldr	r3, [r7, #24]
 8000eac:	4413      	add	r3, r2
 8000eae:	637b      	str	r3, [r7, #52]	; 0x34
                size -= diff;
 8000eb0:	6bfa      	ldr	r2, [r7, #60]	; 0x3c
 8000eb2:	69bb      	ldr	r3, [r7, #24]
 8000eb4:	1ad3      	subs	r3, r2, r3
 8000eb6:	63fb      	str	r3, [r7, #60]	; 0x3c
                continue;
 8000eb8:	e09b      	b.n	8000ff2 <lfs_bd_read+0x266>
            }

            // rcache takes priority
            diff = lfs_min(diff, rcache->off-off);
 8000eba:	687b      	ldr	r3, [r7, #4]
 8000ebc:	685a      	ldr	r2, [r3, #4]
 8000ebe:	6b7b      	ldr	r3, [r7, #52]	; 0x34
 8000ec0:	1ad3      	subs	r3, r2, r3
 8000ec2:	4619      	mov	r1, r3
 8000ec4:	69b8      	ldr	r0, [r7, #24]
 8000ec6:	f7ff fe85 	bl	8000bd4 <lfs_min>
 8000eca:	61b8      	str	r0, [r7, #24]
        }

        if (size >= hint && off % lfs->cfg->read_size == 0 &&
 8000ecc:	6bfa      	ldr	r2, [r7, #60]	; 0x3c
 8000ece:	683b      	ldr	r3, [r7, #0]
 8000ed0:	429a      	cmp	r2, r3
 8000ed2:	d336      	bcc.n	8000f42 <lfs_bd_read+0x1b6>
 8000ed4:	68fb      	ldr	r3, [r7, #12]
 8000ed6:	6e9b      	ldr	r3, [r3, #104]	; 0x68
 8000ed8:	695a      	ldr	r2, [r3, #20]
 8000eda:	6b7b      	ldr	r3, [r7, #52]	; 0x34
 8000edc:	fbb3 f1f2 	udiv	r1, r3, r2
 8000ee0:	fb02 f201 	mul.w	r2, r2, r1
 8000ee4:	1a9b      	subs	r3, r3, r2
 8000ee6:	2b00      	cmp	r3, #0
 8000ee8:	d12b      	bne.n	8000f42 <lfs_bd_read+0x1b6>
                size >= lfs->cfg->read_size) {
 8000eea:	68fb      	ldr	r3, [r7, #12]
 8000eec:	6e9b      	ldr	r3, [r3, #104]	; 0x68
 8000eee:	695b      	ldr	r3, [r3, #20]
        if (size >= hint && off % lfs->cfg->read_size == 0 &&
 8000ef0:	6bfa      	ldr	r2, [r7, #60]	; 0x3c
 8000ef2:	429a      	cmp	r2, r3
 8000ef4:	d325      	bcc.n	8000f42 <lfs_bd_read+0x1b6>
            // bypass cache?
            diff = lfs_aligndown(diff, lfs->cfg->read_size);
 8000ef6:	68fb      	ldr	r3, [r7, #12]
 8000ef8:	6e9b      	ldr	r3, [r3, #104]	; 0x68
 8000efa:	695b      	ldr	r3, [r3, #20]
 8000efc:	4619      	mov	r1, r3
 8000efe:	69b8      	ldr	r0, [r7, #24]
 8000f00:	f7ff fe78 	bl	8000bf4 <lfs_aligndown>
 8000f04:	61b8      	str	r0, [r7, #24]
            int err = lfs->cfg->read(lfs->cfg, block, off, data, diff);
 8000f06:	68fb      	ldr	r3, [r7, #12]
 8000f08:	6e9b      	ldr	r3, [r3, #104]	; 0x68
 8000f0a:	685c      	ldr	r4, [r3, #4]
 8000f0c:	68fb      	ldr	r3, [r7, #12]
 8000f0e:	6e98      	ldr	r0, [r3, #104]	; 0x68
 8000f10:	69bb      	ldr	r3, [r7, #24]
 8000f12:	9300      	str	r3, [sp, #0]
 8000f14:	69fb      	ldr	r3, [r7, #28]
 8000f16:	6b7a      	ldr	r2, [r7, #52]	; 0x34
 8000f18:	6b39      	ldr	r1, [r7, #48]	; 0x30
 8000f1a:	47a0      	blx	r4
 8000f1c:	6178      	str	r0, [r7, #20]
            if (err) {
 8000f1e:	697b      	ldr	r3, [r7, #20]
 8000f20:	2b00      	cmp	r3, #0
 8000f22:	d001      	beq.n	8000f28 <lfs_bd_read+0x19c>
                return err;
 8000f24:	697b      	ldr	r3, [r7, #20]
 8000f26:	e069      	b.n	8000ffc <lfs_bd_read+0x270>
            }

            data += diff;
 8000f28:	69fa      	ldr	r2, [r7, #28]
 8000f2a:	69bb      	ldr	r3, [r7, #24]
 8000f2c:	4413      	add	r3, r2
 8000f2e:	61fb      	str	r3, [r7, #28]
            off += diff;
 8000f30:	6b7a      	ldr	r2, [r7, #52]	; 0x34
 8000f32:	69bb      	ldr	r3, [r7, #24]
 8000f34:	4413      	add	r3, r2
 8000f36:	637b      	str	r3, [r7, #52]	; 0x34
            size -= diff;
 8000f38:	6bfa      	ldr	r2, [r7, #60]	; 0x3c
 8000f3a:	69bb      	ldr	r3, [r7, #24]
 8000f3c:	1ad3      	subs	r3, r2, r3
 8000f3e:	63fb      	str	r3, [r7, #60]	; 0x3c
            continue;
 8000f40:	e057      	b.n	8000ff2 <lfs_bd_read+0x266>
        }

        // load to cache, first condition can no longer fail
        LFS_ASSERT(block < lfs->cfg->block_count);
 8000f42:	68fb      	ldr	r3, [r7, #12]
 8000f44:	6e9b      	ldr	r3, [r3, #104]	; 0x68
 8000f46:	6a1b      	ldr	r3, [r3, #32]
 8000f48:	6b3a      	ldr	r2, [r7, #48]	; 0x30
 8000f4a:	429a      	cmp	r2, r3
 8000f4c:	d305      	bcc.n	8000f5a <lfs_bd_read+0x1ce>
 8000f4e:	4b2d      	ldr	r3, [pc, #180]	; (8001004 <lfs_bd_read+0x278>)
 8000f50:	4a2d      	ldr	r2, [pc, #180]	; (8001008 <lfs_bd_read+0x27c>)
 8000f52:	215a      	movs	r1, #90	; 0x5a
 8000f54:	482d      	ldr	r0, [pc, #180]	; (800100c <lfs_bd_read+0x280>)
 8000f56:	f00b faf7 	bl	800c548 <__assert_func>
        rcache->block = block;
 8000f5a:	687b      	ldr	r3, [r7, #4]
 8000f5c:	6b3a      	ldr	r2, [r7, #48]	; 0x30
 8000f5e:	601a      	str	r2, [r3, #0]
        rcache->off = lfs_aligndown(off, lfs->cfg->read_size);
 8000f60:	68fb      	ldr	r3, [r7, #12]
 8000f62:	6e9b      	ldr	r3, [r3, #104]	; 0x68
 8000f64:	695b      	ldr	r3, [r3, #20]
 8000f66:	4619      	mov	r1, r3
 8000f68:	6b78      	ldr	r0, [r7, #52]	; 0x34
 8000f6a:	f7ff fe43 	bl	8000bf4 <lfs_aligndown>
 8000f6e:	4602      	mov	r2, r0
 8000f70:	687b      	ldr	r3, [r7, #4]
 8000f72:	605a      	str	r2, [r3, #4]
        rcache->size = lfs_min(
                lfs_min(
 8000f74:	6b7a      	ldr	r2, [r7, #52]	; 0x34
 8000f76:	683b      	ldr	r3, [r7, #0]
 8000f78:	441a      	add	r2, r3
                    lfs_alignup(off+hint, lfs->cfg->read_size),
 8000f7a:	68fb      	ldr	r3, [r7, #12]
 8000f7c:	6e9b      	ldr	r3, [r3, #104]	; 0x68
                lfs_min(
 8000f7e:	695b      	ldr	r3, [r3, #20]
 8000f80:	4619      	mov	r1, r3
 8000f82:	4610      	mov	r0, r2
 8000f84:	f7ff fe4b 	bl	8000c1e <lfs_alignup>
 8000f88:	4602      	mov	r2, r0
                    lfs->cfg->block_size)
 8000f8a:	68fb      	ldr	r3, [r7, #12]
 8000f8c:	6e9b      	ldr	r3, [r3, #104]	; 0x68
                lfs_min(
 8000f8e:	69db      	ldr	r3, [r3, #28]
 8000f90:	4619      	mov	r1, r3
 8000f92:	4610      	mov	r0, r2
 8000f94:	f7ff fe1e 	bl	8000bd4 <lfs_min>
 8000f98:	4602      	mov	r2, r0
                - rcache->off,
 8000f9a:	687b      	ldr	r3, [r7, #4]
 8000f9c:	685b      	ldr	r3, [r3, #4]
        rcache->size = lfs_min(
 8000f9e:	1ad2      	subs	r2, r2, r3
                lfs->cfg->cache_size);
 8000fa0:	68fb      	ldr	r3, [r7, #12]
 8000fa2:	6e9b      	ldr	r3, [r3, #104]	; 0x68
        rcache->size = lfs_min(
 8000fa4:	6a9b      	ldr	r3, [r3, #40]	; 0x28
 8000fa6:	4619      	mov	r1, r3
 8000fa8:	4610      	mov	r0, r2
 8000faa:	f7ff fe13 	bl	8000bd4 <lfs_min>
 8000fae:	4602      	mov	r2, r0
 8000fb0:	687b      	ldr	r3, [r7, #4]
 8000fb2:	609a      	str	r2, [r3, #8]
        int err = lfs->cfg->read(lfs->cfg, rcache->block,
 8000fb4:	68fb      	ldr	r3, [r7, #12]
 8000fb6:	6e9b      	ldr	r3, [r3, #104]	; 0x68
 8000fb8:	685c      	ldr	r4, [r3, #4]
 8000fba:	68fb      	ldr	r3, [r7, #12]
 8000fbc:	6e98      	ldr	r0, [r3, #104]	; 0x68
 8000fbe:	687b      	ldr	r3, [r7, #4]
 8000fc0:	6819      	ldr	r1, [r3, #0]
 8000fc2:	687b      	ldr	r3, [r7, #4]
 8000fc4:	685a      	ldr	r2, [r3, #4]
                rcache->off, rcache->buffer, rcache->size);
 8000fc6:	687b      	ldr	r3, [r7, #4]
 8000fc8:	68dd      	ldr	r5, [r3, #12]
        int err = lfs->cfg->read(lfs->cfg, rcache->block,
 8000fca:	687b      	ldr	r3, [r7, #4]
 8000fcc:	689b      	ldr	r3, [r3, #8]
 8000fce:	9300      	str	r3, [sp, #0]
 8000fd0:	462b      	mov	r3, r5
 8000fd2:	47a0      	blx	r4
 8000fd4:	6138      	str	r0, [r7, #16]
        LFS_ASSERT(err <= 0);
 8000fd6:	693b      	ldr	r3, [r7, #16]
 8000fd8:	2b00      	cmp	r3, #0
 8000fda:	dd05      	ble.n	8000fe8 <lfs_bd_read+0x25c>
 8000fdc:	4b0c      	ldr	r3, [pc, #48]	; (8001010 <lfs_bd_read+0x284>)
 8000fde:	4a0a      	ldr	r2, [pc, #40]	; (8001008 <lfs_bd_read+0x27c>)
 8000fe0:	2165      	movs	r1, #101	; 0x65
 8000fe2:	480a      	ldr	r0, [pc, #40]	; (800100c <lfs_bd_read+0x280>)
 8000fe4:	f00b fab0 	bl	800c548 <__assert_func>
        if (err) {
 8000fe8:	693b      	ldr	r3, [r7, #16]
 8000fea:	2b00      	cmp	r3, #0
 8000fec:	d001      	beq.n	8000ff2 <lfs_bd_read+0x266>
            return err;
 8000fee:	693b      	ldr	r3, [r7, #16]
 8000ff0:	e004      	b.n	8000ffc <lfs_bd_read+0x270>
    while (size > 0) {
 8000ff2:	6bfb      	ldr	r3, [r7, #60]	; 0x3c
 8000ff4:	2b00      	cmp	r3, #0
 8000ff6:	f47f aee4 	bne.w	8000dc2 <lfs_bd_read+0x36>
        }
    }

    return 0;
 8000ffa:	2300      	movs	r3, #0
}
 8000ffc:	4618      	mov	r0, r3
 8000ffe:	3720      	adds	r7, #32
 8001000:	46bd      	mov	sp, r7
 8001002:	bdb0      	pop	{r4, r5, r7, pc}
 8001004:	0800da90 	.word	0x0800da90
 8001008:	0800ea5c 	.word	0x0800ea5c
 800100c:	0800dab0 	.word	0x0800dab0
 8001010:	0800dac4 	.word	0x0800dac4

08001014 <lfs_bd_cmp>:
};

static int lfs_bd_cmp(lfs_t *lfs,
        const lfs_cache_t *pcache, lfs_cache_t *rcache, lfs_size_t hint,
        lfs_block_t block, lfs_off_t off,
        const void *buffer, lfs_size_t size) {
 8001014:	b580      	push	{r7, lr}
 8001016:	b08c      	sub	sp, #48	; 0x30
 8001018:	af04      	add	r7, sp, #16
 800101a:	60f8      	str	r0, [r7, #12]
 800101c:	60b9      	str	r1, [r7, #8]
 800101e:	607a      	str	r2, [r7, #4]
 8001020:	603b      	str	r3, [r7, #0]
    const uint8_t *data = buffer;
 8001022:	6b3b      	ldr	r3, [r7, #48]	; 0x30
 8001024:	61bb      	str	r3, [r7, #24]

    for (lfs_off_t i = 0; i < size; i++) {
 8001026:	2300      	movs	r3, #0
 8001028:	61fb      	str	r3, [r7, #28]
 800102a:	e02e      	b.n	800108a <lfs_bd_cmp+0x76>
        uint8_t dat;
        int err = lfs_bd_read(lfs,
 800102c:	683a      	ldr	r2, [r7, #0]
 800102e:	69fb      	ldr	r3, [r7, #28]
 8001030:	1ad1      	subs	r1, r2, r3
 8001032:	6afa      	ldr	r2, [r7, #44]	; 0x2c
 8001034:	69fb      	ldr	r3, [r7, #28]
 8001036:	4413      	add	r3, r2
 8001038:	2201      	movs	r2, #1
 800103a:	9203      	str	r2, [sp, #12]
 800103c:	f107 0213 	add.w	r2, r7, #19
 8001040:	9202      	str	r2, [sp, #8]
 8001042:	9301      	str	r3, [sp, #4]
 8001044:	6abb      	ldr	r3, [r7, #40]	; 0x28
 8001046:	9300      	str	r3, [sp, #0]
 8001048:	460b      	mov	r3, r1
 800104a:	687a      	ldr	r2, [r7, #4]
 800104c:	68b9      	ldr	r1, [r7, #8]
 800104e:	68f8      	ldr	r0, [r7, #12]
 8001050:	f7ff fe9c 	bl	8000d8c <lfs_bd_read>
 8001054:	6178      	str	r0, [r7, #20]
                pcache, rcache, hint-i,
                block, off+i, &dat, 1);
        if (err) {
 8001056:	697b      	ldr	r3, [r7, #20]
 8001058:	2b00      	cmp	r3, #0
 800105a:	d001      	beq.n	8001060 <lfs_bd_cmp+0x4c>
            return err;
 800105c:	697b      	ldr	r3, [r7, #20]
 800105e:	e019      	b.n	8001094 <lfs_bd_cmp+0x80>
        }

        if (dat != data[i]) {
 8001060:	69ba      	ldr	r2, [r7, #24]
 8001062:	69fb      	ldr	r3, [r7, #28]
 8001064:	4413      	add	r3, r2
 8001066:	781a      	ldrb	r2, [r3, #0]
 8001068:	7cfb      	ldrb	r3, [r7, #19]
 800106a:	429a      	cmp	r2, r3
 800106c:	d00a      	beq.n	8001084 <lfs_bd_cmp+0x70>
            return (dat < data[i]) ? LFS_CMP_LT : LFS_CMP_GT;
 800106e:	69ba      	ldr	r2, [r7, #24]
 8001070:	69fb      	ldr	r3, [r7, #28]
 8001072:	4413      	add	r3, r2
 8001074:	781a      	ldrb	r2, [r3, #0]
 8001076:	7cfb      	ldrb	r3, [r7, #19]
 8001078:	429a      	cmp	r2, r3
 800107a:	d901      	bls.n	8001080 <lfs_bd_cmp+0x6c>
 800107c:	2301      	movs	r3, #1
 800107e:	e009      	b.n	8001094 <lfs_bd_cmp+0x80>
 8001080:	2302      	movs	r3, #2
 8001082:	e007      	b.n	8001094 <lfs_bd_cmp+0x80>
    for (lfs_off_t i = 0; i < size; i++) {
 8001084:	69fb      	ldr	r3, [r7, #28]
 8001086:	3301      	adds	r3, #1
 8001088:	61fb      	str	r3, [r7, #28]
 800108a:	69fa      	ldr	r2, [r7, #28]
 800108c:	6b7b      	ldr	r3, [r7, #52]	; 0x34
 800108e:	429a      	cmp	r2, r3
 8001090:	d3cc      	bcc.n	800102c <lfs_bd_cmp+0x18>
        }
    }

    return LFS_CMP_EQ;
 8001092:	2300      	movs	r3, #0
}
 8001094:	4618      	mov	r0, r3
 8001096:	3720      	adds	r7, #32
 8001098:	46bd      	mov	sp, r7
 800109a:	bd80      	pop	{r7, pc}

0800109c <lfs_bd_flush>:

static int lfs_bd_flush(lfs_t *lfs,
        lfs_cache_t *pcache, lfs_cache_t *rcache, bool validate) {
 800109c:	b5b0      	push	{r4, r5, r7, lr}
 800109e:	b08c      	sub	sp, #48	; 0x30
 80010a0:	af04      	add	r7, sp, #16
 80010a2:	60f8      	str	r0, [r7, #12]
 80010a4:	60b9      	str	r1, [r7, #8]
 80010a6:	607a      	str	r2, [r7, #4]
 80010a8:	70fb      	strb	r3, [r7, #3]
    if (pcache->block != LFS_BLOCK_NULL && pcache->block != LFS_BLOCK_INLINE) {
 80010aa:	68bb      	ldr	r3, [r7, #8]
 80010ac:	681b      	ldr	r3, [r3, #0]
 80010ae:	f1b3 3fff 	cmp.w	r3, #4294967295
 80010b2:	d061      	beq.n	8001178 <lfs_bd_flush+0xdc>
 80010b4:	68bb      	ldr	r3, [r7, #8]
 80010b6:	681b      	ldr	r3, [r3, #0]
 80010b8:	f113 0f02 	cmn.w	r3, #2
 80010bc:	d05c      	beq.n	8001178 <lfs_bd_flush+0xdc>
        LFS_ASSERT(pcache->block < lfs->cfg->block_count);
 80010be:	68bb      	ldr	r3, [r7, #8]
 80010c0:	681a      	ldr	r2, [r3, #0]
 80010c2:	68fb      	ldr	r3, [r7, #12]
 80010c4:	6e9b      	ldr	r3, [r3, #104]	; 0x68
 80010c6:	6a1b      	ldr	r3, [r3, #32]
 80010c8:	429a      	cmp	r2, r3
 80010ca:	d305      	bcc.n	80010d8 <lfs_bd_flush+0x3c>
 80010cc:	4b2d      	ldr	r3, [pc, #180]	; (8001184 <lfs_bd_flush+0xe8>)
 80010ce:	4a2e      	ldr	r2, [pc, #184]	; (8001188 <lfs_bd_flush+0xec>)
 80010d0:	218e      	movs	r1, #142	; 0x8e
 80010d2:	482e      	ldr	r0, [pc, #184]	; (800118c <lfs_bd_flush+0xf0>)
 80010d4:	f00b fa38 	bl	800c548 <__assert_func>
        lfs_size_t diff = lfs_alignup(pcache->size, lfs->cfg->prog_size);
 80010d8:	68bb      	ldr	r3, [r7, #8]
 80010da:	689a      	ldr	r2, [r3, #8]
 80010dc:	68fb      	ldr	r3, [r7, #12]
 80010de:	6e9b      	ldr	r3, [r3, #104]	; 0x68
 80010e0:	699b      	ldr	r3, [r3, #24]
 80010e2:	4619      	mov	r1, r3
 80010e4:	4610      	mov	r0, r2
 80010e6:	f7ff fd9a 	bl	8000c1e <lfs_alignup>
 80010ea:	61f8      	str	r0, [r7, #28]
        int err = lfs->cfg->prog(lfs->cfg, pcache->block,
 80010ec:	68fb      	ldr	r3, [r7, #12]
 80010ee:	6e9b      	ldr	r3, [r3, #104]	; 0x68
 80010f0:	689c      	ldr	r4, [r3, #8]
 80010f2:	68fb      	ldr	r3, [r7, #12]
 80010f4:	6e98      	ldr	r0, [r3, #104]	; 0x68
 80010f6:	68bb      	ldr	r3, [r7, #8]
 80010f8:	6819      	ldr	r1, [r3, #0]
 80010fa:	68bb      	ldr	r3, [r7, #8]
 80010fc:	685a      	ldr	r2, [r3, #4]
                pcache->off, pcache->buffer, diff);
 80010fe:	68bb      	ldr	r3, [r7, #8]
 8001100:	68dd      	ldr	r5, [r3, #12]
        int err = lfs->cfg->prog(lfs->cfg, pcache->block,
 8001102:	69fb      	ldr	r3, [r7, #28]
 8001104:	9300      	str	r3, [sp, #0]
 8001106:	462b      	mov	r3, r5
 8001108:	47a0      	blx	r4
 800110a:	61b8      	str	r0, [r7, #24]
        LFS_ASSERT(err <= 0);
 800110c:	69bb      	ldr	r3, [r7, #24]
 800110e:	2b00      	cmp	r3, #0
 8001110:	dd05      	ble.n	800111e <lfs_bd_flush+0x82>
 8001112:	4b1f      	ldr	r3, [pc, #124]	; (8001190 <lfs_bd_flush+0xf4>)
 8001114:	4a1c      	ldr	r2, [pc, #112]	; (8001188 <lfs_bd_flush+0xec>)
 8001116:	2192      	movs	r1, #146	; 0x92
 8001118:	481c      	ldr	r0, [pc, #112]	; (800118c <lfs_bd_flush+0xf0>)
 800111a:	f00b fa15 	bl	800c548 <__assert_func>
        if (err) {
 800111e:	69bb      	ldr	r3, [r7, #24]
 8001120:	2b00      	cmp	r3, #0
 8001122:	d001      	beq.n	8001128 <lfs_bd_flush+0x8c>
            return err;
 8001124:	69bb      	ldr	r3, [r7, #24]
 8001126:	e028      	b.n	800117a <lfs_bd_flush+0xde>
        }

        if (validate) {
 8001128:	78fb      	ldrb	r3, [r7, #3]
 800112a:	2b00      	cmp	r3, #0
 800112c:	d020      	beq.n	8001170 <lfs_bd_flush+0xd4>
            // check data on disk
            lfs_cache_drop(lfs, rcache);
 800112e:	6879      	ldr	r1, [r7, #4]
 8001130:	68f8      	ldr	r0, [r7, #12]
 8001132:	f7ff fe05 	bl	8000d40 <lfs_cache_drop>
            int res = lfs_bd_cmp(lfs,
 8001136:	68bb      	ldr	r3, [r7, #8]
 8001138:	681b      	ldr	r3, [r3, #0]
 800113a:	68ba      	ldr	r2, [r7, #8]
 800113c:	6852      	ldr	r2, [r2, #4]
                    NULL, rcache, diff,
                    pcache->block, pcache->off, pcache->buffer, diff);
 800113e:	68b9      	ldr	r1, [r7, #8]
 8001140:	68c9      	ldr	r1, [r1, #12]
            int res = lfs_bd_cmp(lfs,
 8001142:	69f8      	ldr	r0, [r7, #28]
 8001144:	9003      	str	r0, [sp, #12]
 8001146:	9102      	str	r1, [sp, #8]
 8001148:	9201      	str	r2, [sp, #4]
 800114a:	9300      	str	r3, [sp, #0]
 800114c:	69fb      	ldr	r3, [r7, #28]
 800114e:	687a      	ldr	r2, [r7, #4]
 8001150:	2100      	movs	r1, #0
 8001152:	68f8      	ldr	r0, [r7, #12]
 8001154:	f7ff ff5e 	bl	8001014 <lfs_bd_cmp>
 8001158:	6178      	str	r0, [r7, #20]
            if (res < 0) {
 800115a:	697b      	ldr	r3, [r7, #20]
 800115c:	2b00      	cmp	r3, #0
 800115e:	da01      	bge.n	8001164 <lfs_bd_flush+0xc8>
                return res;
 8001160:	697b      	ldr	r3, [r7, #20]
 8001162:	e00a      	b.n	800117a <lfs_bd_flush+0xde>
            }

            if (res != LFS_CMP_EQ) {
 8001164:	697b      	ldr	r3, [r7, #20]
 8001166:	2b00      	cmp	r3, #0
 8001168:	d002      	beq.n	8001170 <lfs_bd_flush+0xd4>
                return LFS_ERR_CORRUPT;
 800116a:	f06f 0353 	mvn.w	r3, #83	; 0x53
 800116e:	e004      	b.n	800117a <lfs_bd_flush+0xde>
            }
        }

        lfs_cache_zero(lfs, pcache);
 8001170:	68b9      	ldr	r1, [r7, #8]
 8001172:	68f8      	ldr	r0, [r7, #12]
 8001174:	f7ff fdf3 	bl	8000d5e <lfs_cache_zero>
    }

    return 0;
 8001178:	2300      	movs	r3, #0
}
 800117a:	4618      	mov	r0, r3
 800117c:	3720      	adds	r7, #32
 800117e:	46bd      	mov	sp, r7
 8001180:	bdb0      	pop	{r4, r5, r7, pc}
 8001182:	bf00      	nop
 8001184:	0800dad0 	.word	0x0800dad0
 8001188:	0800ea68 	.word	0x0800ea68
 800118c:	0800dab0 	.word	0x0800dab0
 8001190:	0800dac4 	.word	0x0800dac4

08001194 <lfs_bd_sync>:

static int lfs_bd_sync(lfs_t *lfs,
        lfs_cache_t *pcache, lfs_cache_t *rcache, bool validate) {
 8001194:	b580      	push	{r7, lr}
 8001196:	b086      	sub	sp, #24
 8001198:	af00      	add	r7, sp, #0
 800119a:	60f8      	str	r0, [r7, #12]
 800119c:	60b9      	str	r1, [r7, #8]
 800119e:	607a      	str	r2, [r7, #4]
 80011a0:	70fb      	strb	r3, [r7, #3]
    lfs_cache_drop(lfs, rcache);
 80011a2:	6879      	ldr	r1, [r7, #4]
 80011a4:	68f8      	ldr	r0, [r7, #12]
 80011a6:	f7ff fdcb 	bl	8000d40 <lfs_cache_drop>

    int err = lfs_bd_flush(lfs, pcache, rcache, validate);
 80011aa:	78fb      	ldrb	r3, [r7, #3]
 80011ac:	687a      	ldr	r2, [r7, #4]
 80011ae:	68b9      	ldr	r1, [r7, #8]
 80011b0:	68f8      	ldr	r0, [r7, #12]
 80011b2:	f7ff ff73 	bl	800109c <lfs_bd_flush>
 80011b6:	6178      	str	r0, [r7, #20]
    if (err) {
 80011b8:	697b      	ldr	r3, [r7, #20]
 80011ba:	2b00      	cmp	r3, #0
 80011bc:	d001      	beq.n	80011c2 <lfs_bd_sync+0x2e>
        return err;
 80011be:	697b      	ldr	r3, [r7, #20]
 80011c0:	e011      	b.n	80011e6 <lfs_bd_sync+0x52>
    }

    err = lfs->cfg->sync(lfs->cfg);
 80011c2:	68fb      	ldr	r3, [r7, #12]
 80011c4:	6e9b      	ldr	r3, [r3, #104]	; 0x68
 80011c6:	691b      	ldr	r3, [r3, #16]
 80011c8:	68fa      	ldr	r2, [r7, #12]
 80011ca:	6e92      	ldr	r2, [r2, #104]	; 0x68
 80011cc:	4610      	mov	r0, r2
 80011ce:	4798      	blx	r3
 80011d0:	6178      	str	r0, [r7, #20]
    LFS_ASSERT(err <= 0);
 80011d2:	697b      	ldr	r3, [r7, #20]
 80011d4:	2b00      	cmp	r3, #0
 80011d6:	dd05      	ble.n	80011e4 <lfs_bd_sync+0x50>
 80011d8:	4b05      	ldr	r3, [pc, #20]	; (80011f0 <lfs_bd_sync+0x5c>)
 80011da:	4a06      	ldr	r2, [pc, #24]	; (80011f4 <lfs_bd_sync+0x60>)
 80011dc:	21b6      	movs	r1, #182	; 0xb6
 80011de:	4806      	ldr	r0, [pc, #24]	; (80011f8 <lfs_bd_sync+0x64>)
 80011e0:	f00b f9b2 	bl	800c548 <__assert_func>
    return err;
 80011e4:	697b      	ldr	r3, [r7, #20]
}
 80011e6:	4618      	mov	r0, r3
 80011e8:	3718      	adds	r7, #24
 80011ea:	46bd      	mov	sp, r7
 80011ec:	bd80      	pop	{r7, pc}
 80011ee:	bf00      	nop
 80011f0:	0800dac4 	.word	0x0800dac4
 80011f4:	0800ea78 	.word	0x0800ea78
 80011f8:	0800dab0 	.word	0x0800dab0

080011fc <lfs_bd_prog>:

static int lfs_bd_prog(lfs_t *lfs,
        lfs_cache_t *pcache, lfs_cache_t *rcache, bool validate,
        lfs_block_t block, lfs_off_t off,
        const void *buffer, lfs_size_t size) {
 80011fc:	b580      	push	{r7, lr}
 80011fe:	b088      	sub	sp, #32
 8001200:	af00      	add	r7, sp, #0
 8001202:	60f8      	str	r0, [r7, #12]
 8001204:	60b9      	str	r1, [r7, #8]
 8001206:	607a      	str	r2, [r7, #4]
 8001208:	70fb      	strb	r3, [r7, #3]
    const uint8_t *data = buffer;
 800120a:	6b3b      	ldr	r3, [r7, #48]	; 0x30
 800120c:	61fb      	str	r3, [r7, #28]
    LFS_ASSERT(block == LFS_BLOCK_INLINE || block < lfs->cfg->block_count);
 800120e:	6abb      	ldr	r3, [r7, #40]	; 0x28
 8001210:	f113 0f02 	cmn.w	r3, #2
 8001214:	d00b      	beq.n	800122e <lfs_bd_prog+0x32>
 8001216:	68fb      	ldr	r3, [r7, #12]
 8001218:	6e9b      	ldr	r3, [r3, #104]	; 0x68
 800121a:	6a1b      	ldr	r3, [r3, #32]
 800121c:	6aba      	ldr	r2, [r7, #40]	; 0x28
 800121e:	429a      	cmp	r2, r3
 8001220:	d305      	bcc.n	800122e <lfs_bd_prog+0x32>
 8001222:	4b47      	ldr	r3, [pc, #284]	; (8001340 <lfs_bd_prog+0x144>)
 8001224:	4a47      	ldr	r2, [pc, #284]	; (8001344 <lfs_bd_prog+0x148>)
 8001226:	21bf      	movs	r1, #191	; 0xbf
 8001228:	4847      	ldr	r0, [pc, #284]	; (8001348 <lfs_bd_prog+0x14c>)
 800122a:	f00b f98d 	bl	800c548 <__assert_func>
    LFS_ASSERT(off + size <= lfs->cfg->block_size);
 800122e:	6afa      	ldr	r2, [r7, #44]	; 0x2c
 8001230:	6b7b      	ldr	r3, [r7, #52]	; 0x34
 8001232:	441a      	add	r2, r3
 8001234:	68fb      	ldr	r3, [r7, #12]
 8001236:	6e9b      	ldr	r3, [r3, #104]	; 0x68
 8001238:	69db      	ldr	r3, [r3, #28]
 800123a:	429a      	cmp	r2, r3
 800123c:	d977      	bls.n	800132e <lfs_bd_prog+0x132>
 800123e:	4b43      	ldr	r3, [pc, #268]	; (800134c <lfs_bd_prog+0x150>)
 8001240:	4a40      	ldr	r2, [pc, #256]	; (8001344 <lfs_bd_prog+0x148>)
 8001242:	21c0      	movs	r1, #192	; 0xc0
 8001244:	4840      	ldr	r0, [pc, #256]	; (8001348 <lfs_bd_prog+0x14c>)
 8001246:	f00b f97f 	bl	800c548 <__assert_func>

    while (size > 0) {
        if (block == pcache->block &&
 800124a:	68bb      	ldr	r3, [r7, #8]
 800124c:	681b      	ldr	r3, [r3, #0]
 800124e:	6aba      	ldr	r2, [r7, #40]	; 0x28
 8001250:	429a      	cmp	r2, r3
 8001252:	d151      	bne.n	80012f8 <lfs_bd_prog+0xfc>
                off >= pcache->off &&
 8001254:	68bb      	ldr	r3, [r7, #8]
 8001256:	685b      	ldr	r3, [r3, #4]
        if (block == pcache->block &&
 8001258:	6afa      	ldr	r2, [r7, #44]	; 0x2c
 800125a:	429a      	cmp	r2, r3
 800125c:	d34c      	bcc.n	80012f8 <lfs_bd_prog+0xfc>
                off < pcache->off + lfs->cfg->cache_size) {
 800125e:	68bb      	ldr	r3, [r7, #8]
 8001260:	685a      	ldr	r2, [r3, #4]
 8001262:	68fb      	ldr	r3, [r7, #12]
 8001264:	6e9b      	ldr	r3, [r3, #104]	; 0x68
 8001266:	6a9b      	ldr	r3, [r3, #40]	; 0x28
 8001268:	4413      	add	r3, r2
                off >= pcache->off &&
 800126a:	6afa      	ldr	r2, [r7, #44]	; 0x2c
 800126c:	429a      	cmp	r2, r3
 800126e:	d243      	bcs.n	80012f8 <lfs_bd_prog+0xfc>
            // already fits in pcache?
            lfs_size_t diff = lfs_min(size,
                    lfs->cfg->cache_size - (off-pcache->off));
 8001270:	68fb      	ldr	r3, [r7, #12]
 8001272:	6e9b      	ldr	r3, [r3, #104]	; 0x68
 8001274:	6a9a      	ldr	r2, [r3, #40]	; 0x28
 8001276:	68bb      	ldr	r3, [r7, #8]
 8001278:	6859      	ldr	r1, [r3, #4]
 800127a:	6afb      	ldr	r3, [r7, #44]	; 0x2c
 800127c:	1acb      	subs	r3, r1, r3
            lfs_size_t diff = lfs_min(size,
 800127e:	4413      	add	r3, r2
 8001280:	4619      	mov	r1, r3
 8001282:	6b78      	ldr	r0, [r7, #52]	; 0x34
 8001284:	f7ff fca6 	bl	8000bd4 <lfs_min>
 8001288:	61b8      	str	r0, [r7, #24]
            memcpy(&pcache->buffer[off-pcache->off], data, diff);
 800128a:	68bb      	ldr	r3, [r7, #8]
 800128c:	68da      	ldr	r2, [r3, #12]
 800128e:	68bb      	ldr	r3, [r7, #8]
 8001290:	685b      	ldr	r3, [r3, #4]
 8001292:	6af9      	ldr	r1, [r7, #44]	; 0x2c
 8001294:	1acb      	subs	r3, r1, r3
 8001296:	4413      	add	r3, r2
 8001298:	69ba      	ldr	r2, [r7, #24]
 800129a:	69f9      	ldr	r1, [r7, #28]
 800129c:	4618      	mov	r0, r3
 800129e:	f00b f9d0 	bl	800c642 <memcpy>

            data += diff;
 80012a2:	69fa      	ldr	r2, [r7, #28]
 80012a4:	69bb      	ldr	r3, [r7, #24]
 80012a6:	4413      	add	r3, r2
 80012a8:	61fb      	str	r3, [r7, #28]
            off += diff;
 80012aa:	6afa      	ldr	r2, [r7, #44]	; 0x2c
 80012ac:	69bb      	ldr	r3, [r7, #24]
 80012ae:	4413      	add	r3, r2
 80012b0:	62fb      	str	r3, [r7, #44]	; 0x2c
            size -= diff;
 80012b2:	6b7a      	ldr	r2, [r7, #52]	; 0x34
 80012b4:	69bb      	ldr	r3, [r7, #24]
 80012b6:	1ad3      	subs	r3, r2, r3
 80012b8:	637b      	str	r3, [r7, #52]	; 0x34

            pcache->size = lfs_max(pcache->size, off - pcache->off);
 80012ba:	68bb      	ldr	r3, [r7, #8]
 80012bc:	6898      	ldr	r0, [r3, #8]
 80012be:	68bb      	ldr	r3, [r7, #8]
 80012c0:	685b      	ldr	r3, [r3, #4]
 80012c2:	6afa      	ldr	r2, [r7, #44]	; 0x2c
 80012c4:	1ad3      	subs	r3, r2, r3
 80012c6:	4619      	mov	r1, r3
 80012c8:	f7ff fc74 	bl	8000bb4 <lfs_max>
 80012cc:	4602      	mov	r2, r0
 80012ce:	68bb      	ldr	r3, [r7, #8]
 80012d0:	609a      	str	r2, [r3, #8]
            if (pcache->size == lfs->cfg->cache_size) {
 80012d2:	68bb      	ldr	r3, [r7, #8]
 80012d4:	689a      	ldr	r2, [r3, #8]
 80012d6:	68fb      	ldr	r3, [r7, #12]
 80012d8:	6e9b      	ldr	r3, [r3, #104]	; 0x68
 80012da:	6a9b      	ldr	r3, [r3, #40]	; 0x28
 80012dc:	429a      	cmp	r2, r3
 80012de:	d126      	bne.n	800132e <lfs_bd_prog+0x132>
                // eagerly flush out pcache if we fill up
                int err = lfs_bd_flush(lfs, pcache, rcache, validate);
 80012e0:	78fb      	ldrb	r3, [r7, #3]
 80012e2:	687a      	ldr	r2, [r7, #4]
 80012e4:	68b9      	ldr	r1, [r7, #8]
 80012e6:	68f8      	ldr	r0, [r7, #12]
 80012e8:	f7ff fed8 	bl	800109c <lfs_bd_flush>
 80012ec:	6178      	str	r0, [r7, #20]
                if (err) {
 80012ee:	697b      	ldr	r3, [r7, #20]
 80012f0:	2b00      	cmp	r3, #0
 80012f2:	d01c      	beq.n	800132e <lfs_bd_prog+0x132>
                    return err;
 80012f4:	697b      	ldr	r3, [r7, #20]
 80012f6:	e01e      	b.n	8001336 <lfs_bd_prog+0x13a>
            continue;
        }

        // pcache must have been flushed, either by programming and
        // entire block or manually flushing the pcache
        LFS_ASSERT(pcache->block == LFS_BLOCK_NULL);
 80012f8:	68bb      	ldr	r3, [r7, #8]
 80012fa:	681b      	ldr	r3, [r3, #0]
 80012fc:	f1b3 3fff 	cmp.w	r3, #4294967295
 8001300:	d005      	beq.n	800130e <lfs_bd_prog+0x112>
 8001302:	4b13      	ldr	r3, [pc, #76]	; (8001350 <lfs_bd_prog+0x154>)
 8001304:	4a0f      	ldr	r2, [pc, #60]	; (8001344 <lfs_bd_prog+0x148>)
 8001306:	21dd      	movs	r1, #221	; 0xdd
 8001308:	480f      	ldr	r0, [pc, #60]	; (8001348 <lfs_bd_prog+0x14c>)
 800130a:	f00b f91d 	bl	800c548 <__assert_func>

        // prepare pcache, first condition can no longer fail
        pcache->block = block;
 800130e:	68bb      	ldr	r3, [r7, #8]
 8001310:	6aba      	ldr	r2, [r7, #40]	; 0x28
 8001312:	601a      	str	r2, [r3, #0]
        pcache->off = lfs_aligndown(off, lfs->cfg->prog_size);
 8001314:	68fb      	ldr	r3, [r7, #12]
 8001316:	6e9b      	ldr	r3, [r3, #104]	; 0x68
 8001318:	699b      	ldr	r3, [r3, #24]
 800131a:	4619      	mov	r1, r3
 800131c:	6af8      	ldr	r0, [r7, #44]	; 0x2c
 800131e:	f7ff fc69 	bl	8000bf4 <lfs_aligndown>
 8001322:	4602      	mov	r2, r0
 8001324:	68bb      	ldr	r3, [r7, #8]
 8001326:	605a      	str	r2, [r3, #4]
        pcache->size = 0;
 8001328:	68bb      	ldr	r3, [r7, #8]
 800132a:	2200      	movs	r2, #0
 800132c:	609a      	str	r2, [r3, #8]
    while (size > 0) {
 800132e:	6b7b      	ldr	r3, [r7, #52]	; 0x34
 8001330:	2b00      	cmp	r3, #0
 8001332:	d18a      	bne.n	800124a <lfs_bd_prog+0x4e>
    }

    return 0;
 8001334:	2300      	movs	r3, #0
}
 8001336:	4618      	mov	r0, r3
 8001338:	3720      	adds	r7, #32
 800133a:	46bd      	mov	sp, r7
 800133c:	bd80      	pop	{r7, pc}
 800133e:	bf00      	nop
 8001340:	0800daf8 	.word	0x0800daf8
 8001344:	0800ea84 	.word	0x0800ea84
 8001348:	0800dab0 	.word	0x0800dab0
 800134c:	0800db34 	.word	0x0800db34
 8001350:	0800db58 	.word	0x0800db58

08001354 <lfs_bd_erase>:

static int lfs_bd_erase(lfs_t *lfs, lfs_block_t block) {
 8001354:	b580      	push	{r7, lr}
 8001356:	b084      	sub	sp, #16
 8001358:	af00      	add	r7, sp, #0
 800135a:	6078      	str	r0, [r7, #4]
 800135c:	6039      	str	r1, [r7, #0]
    LFS_ASSERT(block < lfs->cfg->block_count);
 800135e:	687b      	ldr	r3, [r7, #4]
 8001360:	6e9b      	ldr	r3, [r3, #104]	; 0x68
 8001362:	6a1b      	ldr	r3, [r3, #32]
 8001364:	683a      	ldr	r2, [r7, #0]
 8001366:	429a      	cmp	r2, r3
 8001368:	d305      	bcc.n	8001376 <lfs_bd_erase+0x22>
 800136a:	4b0e      	ldr	r3, [pc, #56]	; (80013a4 <lfs_bd_erase+0x50>)
 800136c:	4a0e      	ldr	r2, [pc, #56]	; (80013a8 <lfs_bd_erase+0x54>)
 800136e:	21e9      	movs	r1, #233	; 0xe9
 8001370:	480e      	ldr	r0, [pc, #56]	; (80013ac <lfs_bd_erase+0x58>)
 8001372:	f00b f8e9 	bl	800c548 <__assert_func>
    int err = lfs->cfg->erase(lfs->cfg, block);
 8001376:	687b      	ldr	r3, [r7, #4]
 8001378:	6e9b      	ldr	r3, [r3, #104]	; 0x68
 800137a:	68db      	ldr	r3, [r3, #12]
 800137c:	687a      	ldr	r2, [r7, #4]
 800137e:	6e92      	ldr	r2, [r2, #104]	; 0x68
 8001380:	6839      	ldr	r1, [r7, #0]
 8001382:	4610      	mov	r0, r2
 8001384:	4798      	blx	r3
 8001386:	60f8      	str	r0, [r7, #12]
    LFS_ASSERT(err <= 0);
 8001388:	68fb      	ldr	r3, [r7, #12]
 800138a:	2b00      	cmp	r3, #0
 800138c:	dd05      	ble.n	800139a <lfs_bd_erase+0x46>
 800138e:	4b08      	ldr	r3, [pc, #32]	; (80013b0 <lfs_bd_erase+0x5c>)
 8001390:	4a05      	ldr	r2, [pc, #20]	; (80013a8 <lfs_bd_erase+0x54>)
 8001392:	21eb      	movs	r1, #235	; 0xeb
 8001394:	4805      	ldr	r0, [pc, #20]	; (80013ac <lfs_bd_erase+0x58>)
 8001396:	f00b f8d7 	bl	800c548 <__assert_func>
    return err;
 800139a:	68fb      	ldr	r3, [r7, #12]
}
 800139c:	4618      	mov	r0, r3
 800139e:	3710      	adds	r7, #16
 80013a0:	46bd      	mov	sp, r7
 80013a2:	bd80      	pop	{r7, pc}
 80013a4:	0800da90 	.word	0x0800da90
 80013a8:	0800ea90 	.word	0x0800ea90
 80013ac:	0800dab0 	.word	0x0800dab0
 80013b0:	0800dac4 	.word	0x0800dac4

080013b4 <lfs_pair_swap>:


/// Small type-level utilities ///
// operations on block pairs
static inline void lfs_pair_swap(lfs_block_t pair[2]) {
 80013b4:	b480      	push	{r7}
 80013b6:	b085      	sub	sp, #20
 80013b8:	af00      	add	r7, sp, #0
 80013ba:	6078      	str	r0, [r7, #4]
    lfs_block_t t = pair[0];
 80013bc:	687b      	ldr	r3, [r7, #4]
 80013be:	681b      	ldr	r3, [r3, #0]
 80013c0:	60fb      	str	r3, [r7, #12]
    pair[0] = pair[1];
 80013c2:	687b      	ldr	r3, [r7, #4]
 80013c4:	685a      	ldr	r2, [r3, #4]
 80013c6:	687b      	ldr	r3, [r7, #4]
 80013c8:	601a      	str	r2, [r3, #0]
    pair[1] = t;
 80013ca:	687b      	ldr	r3, [r7, #4]
 80013cc:	3304      	adds	r3, #4
 80013ce:	68fa      	ldr	r2, [r7, #12]
 80013d0:	601a      	str	r2, [r3, #0]
}
 80013d2:	bf00      	nop
 80013d4:	3714      	adds	r7, #20
 80013d6:	46bd      	mov	sp, r7
 80013d8:	f85d 7b04 	ldr.w	r7, [sp], #4
 80013dc:	4770      	bx	lr

080013de <lfs_pair_isnull>:

static inline bool lfs_pair_isnull(const lfs_block_t pair[2]) {
 80013de:	b480      	push	{r7}
 80013e0:	b083      	sub	sp, #12
 80013e2:	af00      	add	r7, sp, #0
 80013e4:	6078      	str	r0, [r7, #4]
    return pair[0] == LFS_BLOCK_NULL || pair[1] == LFS_BLOCK_NULL;
 80013e6:	687b      	ldr	r3, [r7, #4]
 80013e8:	681b      	ldr	r3, [r3, #0]
 80013ea:	f1b3 3fff 	cmp.w	r3, #4294967295
 80013ee:	d005      	beq.n	80013fc <lfs_pair_isnull+0x1e>
 80013f0:	687b      	ldr	r3, [r7, #4]
 80013f2:	3304      	adds	r3, #4
 80013f4:	681b      	ldr	r3, [r3, #0]
 80013f6:	f1b3 3fff 	cmp.w	r3, #4294967295
 80013fa:	d101      	bne.n	8001400 <lfs_pair_isnull+0x22>
 80013fc:	2301      	movs	r3, #1
 80013fe:	e000      	b.n	8001402 <lfs_pair_isnull+0x24>
 8001400:	2300      	movs	r3, #0
 8001402:	f003 0301 	and.w	r3, r3, #1
 8001406:	b2db      	uxtb	r3, r3
}
 8001408:	4618      	mov	r0, r3
 800140a:	370c      	adds	r7, #12
 800140c:	46bd      	mov	sp, r7
 800140e:	f85d 7b04 	ldr.w	r7, [sp], #4
 8001412:	4770      	bx	lr

08001414 <lfs_pair_cmp>:

static inline int lfs_pair_cmp(
        const lfs_block_t paira[2],
        const lfs_block_t pairb[2]) {
 8001414:	b480      	push	{r7}
 8001416:	b083      	sub	sp, #12
 8001418:	af00      	add	r7, sp, #0
 800141a:	6078      	str	r0, [r7, #4]
 800141c:	6039      	str	r1, [r7, #0]
    return !(paira[0] == pairb[0] || paira[1] == pairb[1] ||
 800141e:	687b      	ldr	r3, [r7, #4]
 8001420:	681a      	ldr	r2, [r3, #0]
 8001422:	683b      	ldr	r3, [r7, #0]
 8001424:	681b      	ldr	r3, [r3, #0]
 8001426:	429a      	cmp	r2, r3
 8001428:	d017      	beq.n	800145a <lfs_pair_cmp+0x46>
 800142a:	687b      	ldr	r3, [r7, #4]
 800142c:	3304      	adds	r3, #4
 800142e:	681a      	ldr	r2, [r3, #0]
 8001430:	683b      	ldr	r3, [r7, #0]
 8001432:	3304      	adds	r3, #4
 8001434:	681b      	ldr	r3, [r3, #0]
 8001436:	429a      	cmp	r2, r3
 8001438:	d00f      	beq.n	800145a <lfs_pair_cmp+0x46>
             paira[0] == pairb[1] || paira[1] == pairb[0]);
 800143a:	687b      	ldr	r3, [r7, #4]
 800143c:	681a      	ldr	r2, [r3, #0]
 800143e:	683b      	ldr	r3, [r7, #0]
 8001440:	3304      	adds	r3, #4
 8001442:	681b      	ldr	r3, [r3, #0]
    return !(paira[0] == pairb[0] || paira[1] == pairb[1] ||
 8001444:	429a      	cmp	r2, r3
 8001446:	d008      	beq.n	800145a <lfs_pair_cmp+0x46>
             paira[0] == pairb[1] || paira[1] == pairb[0]);
 8001448:	687b      	ldr	r3, [r7, #4]
 800144a:	3304      	adds	r3, #4
 800144c:	681a      	ldr	r2, [r3, #0]
 800144e:	683b      	ldr	r3, [r7, #0]
 8001450:	681b      	ldr	r3, [r3, #0]
    return !(paira[0] == pairb[0] || paira[1] == pairb[1] ||
 8001452:	429a      	cmp	r2, r3
 8001454:	d001      	beq.n	800145a <lfs_pair_cmp+0x46>
 8001456:	2301      	movs	r3, #1
 8001458:	e000      	b.n	800145c <lfs_pair_cmp+0x48>
 800145a:	2300      	movs	r3, #0
}
 800145c:	4618      	mov	r0, r3
 800145e:	370c      	adds	r7, #12
 8001460:	46bd      	mov	sp, r7
 8001462:	f85d 7b04 	ldr.w	r7, [sp], #4
 8001466:	4770      	bx	lr

08001468 <lfs_pair_sync>:

static inline bool lfs_pair_sync(
        const lfs_block_t paira[2],
        const lfs_block_t pairb[2]) {
 8001468:	b480      	push	{r7}
 800146a:	b083      	sub	sp, #12
 800146c:	af00      	add	r7, sp, #0
 800146e:	6078      	str	r0, [r7, #4]
 8001470:	6039      	str	r1, [r7, #0]
    return (paira[0] == pairb[0] && paira[1] == pairb[1]) ||
 8001472:	687b      	ldr	r3, [r7, #4]
 8001474:	681a      	ldr	r2, [r3, #0]
 8001476:	683b      	ldr	r3, [r7, #0]
 8001478:	681b      	ldr	r3, [r3, #0]
 800147a:	429a      	cmp	r2, r3
 800147c:	d107      	bne.n	800148e <lfs_pair_sync+0x26>
 800147e:	687b      	ldr	r3, [r7, #4]
 8001480:	3304      	adds	r3, #4
 8001482:	681a      	ldr	r2, [r3, #0]
 8001484:	683b      	ldr	r3, [r7, #0]
 8001486:	3304      	adds	r3, #4
 8001488:	681b      	ldr	r3, [r3, #0]
 800148a:	429a      	cmp	r2, r3
 800148c:	d00d      	beq.n	80014aa <lfs_pair_sync+0x42>
           (paira[0] == pairb[1] && paira[1] == pairb[0]);
 800148e:	687b      	ldr	r3, [r7, #4]
 8001490:	681a      	ldr	r2, [r3, #0]
 8001492:	683b      	ldr	r3, [r7, #0]
 8001494:	3304      	adds	r3, #4
 8001496:	681b      	ldr	r3, [r3, #0]
    return (paira[0] == pairb[0] && paira[1] == pairb[1]) ||
 8001498:	429a      	cmp	r2, r3
 800149a:	d108      	bne.n	80014ae <lfs_pair_sync+0x46>
           (paira[0] == pairb[1] && paira[1] == pairb[0]);
 800149c:	687b      	ldr	r3, [r7, #4]
 800149e:	3304      	adds	r3, #4
 80014a0:	681a      	ldr	r2, [r3, #0]
 80014a2:	683b      	ldr	r3, [r7, #0]
 80014a4:	681b      	ldr	r3, [r3, #0]
 80014a6:	429a      	cmp	r2, r3
 80014a8:	d101      	bne.n	80014ae <lfs_pair_sync+0x46>
    return (paira[0] == pairb[0] && paira[1] == pairb[1]) ||
 80014aa:	2301      	movs	r3, #1
 80014ac:	e000      	b.n	80014b0 <lfs_pair_sync+0x48>
 80014ae:	2300      	movs	r3, #0
 80014b0:	f003 0301 	and.w	r3, r3, #1
 80014b4:	b2db      	uxtb	r3, r3
}
 80014b6:	4618      	mov	r0, r3
 80014b8:	370c      	adds	r7, #12
 80014ba:	46bd      	mov	sp, r7
 80014bc:	f85d 7b04 	ldr.w	r7, [sp], #4
 80014c0:	4770      	bx	lr

080014c2 <lfs_pair_fromle32>:

static inline void lfs_pair_fromle32(lfs_block_t pair[2]) {
 80014c2:	b590      	push	{r4, r7, lr}
 80014c4:	b083      	sub	sp, #12
 80014c6:	af00      	add	r7, sp, #0
 80014c8:	6078      	str	r0, [r7, #4]
    pair[0] = lfs_fromle32(pair[0]);
 80014ca:	687b      	ldr	r3, [r7, #4]
 80014cc:	681b      	ldr	r3, [r3, #0]
 80014ce:	4618      	mov	r0, r3
 80014d0:	f7ff fbf0 	bl	8000cb4 <lfs_fromle32>
 80014d4:	4602      	mov	r2, r0
 80014d6:	687b      	ldr	r3, [r7, #4]
 80014d8:	601a      	str	r2, [r3, #0]
    pair[1] = lfs_fromle32(pair[1]);
 80014da:	687b      	ldr	r3, [r7, #4]
 80014dc:	3304      	adds	r3, #4
 80014de:	681a      	ldr	r2, [r3, #0]
 80014e0:	687b      	ldr	r3, [r7, #4]
 80014e2:	1d1c      	adds	r4, r3, #4
 80014e4:	4610      	mov	r0, r2
 80014e6:	f7ff fbe5 	bl	8000cb4 <lfs_fromle32>
 80014ea:	4603      	mov	r3, r0
 80014ec:	6023      	str	r3, [r4, #0]
}
 80014ee:	bf00      	nop
 80014f0:	370c      	adds	r7, #12
 80014f2:	46bd      	mov	sp, r7
 80014f4:	bd90      	pop	{r4, r7, pc}

080014f6 <lfs_pair_tole32>:

static inline void lfs_pair_tole32(lfs_block_t pair[2]) {
 80014f6:	b590      	push	{r4, r7, lr}
 80014f8:	b083      	sub	sp, #12
 80014fa:	af00      	add	r7, sp, #0
 80014fc:	6078      	str	r0, [r7, #4]
    pair[0] = lfs_tole32(pair[0]);
 80014fe:	687b      	ldr	r3, [r7, #4]
 8001500:	681b      	ldr	r3, [r3, #0]
 8001502:	4618      	mov	r0, r3
 8001504:	f7ff fbe1 	bl	8000cca <lfs_tole32>
 8001508:	4602      	mov	r2, r0
 800150a:	687b      	ldr	r3, [r7, #4]
 800150c:	601a      	str	r2, [r3, #0]
    pair[1] = lfs_tole32(pair[1]);
 800150e:	687b      	ldr	r3, [r7, #4]
 8001510:	3304      	adds	r3, #4
 8001512:	681a      	ldr	r2, [r3, #0]
 8001514:	687b      	ldr	r3, [r7, #4]
 8001516:	1d1c      	adds	r4, r3, #4
 8001518:	4610      	mov	r0, r2
 800151a:	f7ff fbd6 	bl	8000cca <lfs_tole32>
 800151e:	4603      	mov	r3, r0
 8001520:	6023      	str	r3, [r4, #0]
}
 8001522:	bf00      	nop
 8001524:	370c      	adds	r7, #12
 8001526:	46bd      	mov	sp, r7
 8001528:	bd90      	pop	{r4, r7, pc}

0800152a <lfs_tag_isvalid>:
    ((cond) ? LFS_MKTAG(type, id, size) : LFS_MKTAG(LFS_FROM_NOOP, 0, 0))

#define LFS_MKTAG_IF_ELSE(cond, type1, id1, size1, type2, id2, size2) \
    ((cond) ? LFS_MKTAG(type1, id1, size1) : LFS_MKTAG(type2, id2, size2))

static inline bool lfs_tag_isvalid(lfs_tag_t tag) {
 800152a:	b480      	push	{r7}
 800152c:	b083      	sub	sp, #12
 800152e:	af00      	add	r7, sp, #0
 8001530:	6078      	str	r0, [r7, #4]
    return !(tag & 0x80000000);
 8001532:	687b      	ldr	r3, [r7, #4]
 8001534:	43db      	mvns	r3, r3
 8001536:	0fdb      	lsrs	r3, r3, #31
 8001538:	b2db      	uxtb	r3, r3
}
 800153a:	4618      	mov	r0, r3
 800153c:	370c      	adds	r7, #12
 800153e:	46bd      	mov	sp, r7
 8001540:	f85d 7b04 	ldr.w	r7, [sp], #4
 8001544:	4770      	bx	lr

08001546 <lfs_tag_isdelete>:

static inline bool lfs_tag_isdelete(lfs_tag_t tag) {
 8001546:	b480      	push	{r7}
 8001548:	b083      	sub	sp, #12
 800154a:	af00      	add	r7, sp, #0
 800154c:	6078      	str	r0, [r7, #4]
    return ((int32_t)(tag << 22) >> 22) == -1;
 800154e:	687b      	ldr	r3, [r7, #4]
 8001550:	059b      	lsls	r3, r3, #22
 8001552:	159b      	asrs	r3, r3, #22
 8001554:	f1b3 3fff 	cmp.w	r3, #4294967295
 8001558:	bf0c      	ite	eq
 800155a:	2301      	moveq	r3, #1
 800155c:	2300      	movne	r3, #0
 800155e:	b2db      	uxtb	r3, r3
}
 8001560:	4618      	mov	r0, r3
 8001562:	370c      	adds	r7, #12
 8001564:	46bd      	mov	sp, r7
 8001566:	f85d 7b04 	ldr.w	r7, [sp], #4
 800156a:	4770      	bx	lr

0800156c <lfs_tag_type1>:

static inline uint16_t lfs_tag_type1(lfs_tag_t tag) {
 800156c:	b480      	push	{r7}
 800156e:	b083      	sub	sp, #12
 8001570:	af00      	add	r7, sp, #0
 8001572:	6078      	str	r0, [r7, #4]
    return (tag & 0x70000000) >> 20;
 8001574:	687b      	ldr	r3, [r7, #4]
 8001576:	0d1b      	lsrs	r3, r3, #20
 8001578:	b29b      	uxth	r3, r3
 800157a:	f403 63e0 	and.w	r3, r3, #1792	; 0x700
 800157e:	b29b      	uxth	r3, r3
}
 8001580:	4618      	mov	r0, r3
 8001582:	370c      	adds	r7, #12
 8001584:	46bd      	mov	sp, r7
 8001586:	f85d 7b04 	ldr.w	r7, [sp], #4
 800158a:	4770      	bx	lr

0800158c <lfs_tag_type3>:

static inline uint16_t lfs_tag_type3(lfs_tag_t tag) {
 800158c:	b480      	push	{r7}
 800158e:	b083      	sub	sp, #12
 8001590:	af00      	add	r7, sp, #0
 8001592:	6078      	str	r0, [r7, #4]
    return (tag & 0x7ff00000) >> 20;
 8001594:	687b      	ldr	r3, [r7, #4]
 8001596:	0d1b      	lsrs	r3, r3, #20
 8001598:	b29b      	uxth	r3, r3
 800159a:	f3c3 030a 	ubfx	r3, r3, #0, #11
 800159e:	b29b      	uxth	r3, r3
}
 80015a0:	4618      	mov	r0, r3
 80015a2:	370c      	adds	r7, #12
 80015a4:	46bd      	mov	sp, r7
 80015a6:	f85d 7b04 	ldr.w	r7, [sp], #4
 80015aa:	4770      	bx	lr

080015ac <lfs_tag_chunk>:

static inline uint8_t lfs_tag_chunk(lfs_tag_t tag) {
 80015ac:	b480      	push	{r7}
 80015ae:	b083      	sub	sp, #12
 80015b0:	af00      	add	r7, sp, #0
 80015b2:	6078      	str	r0, [r7, #4]
    return (tag & 0x0ff00000) >> 20;
 80015b4:	687b      	ldr	r3, [r7, #4]
 80015b6:	0d1b      	lsrs	r3, r3, #20
 80015b8:	b2db      	uxtb	r3, r3
}
 80015ba:	4618      	mov	r0, r3
 80015bc:	370c      	adds	r7, #12
 80015be:	46bd      	mov	sp, r7
 80015c0:	f85d 7b04 	ldr.w	r7, [sp], #4
 80015c4:	4770      	bx	lr

080015c6 <lfs_tag_splice>:

static inline int8_t lfs_tag_splice(lfs_tag_t tag) {
 80015c6:	b580      	push	{r7, lr}
 80015c8:	b082      	sub	sp, #8
 80015ca:	af00      	add	r7, sp, #0
 80015cc:	6078      	str	r0, [r7, #4]
    return (int8_t)lfs_tag_chunk(tag);
 80015ce:	6878      	ldr	r0, [r7, #4]
 80015d0:	f7ff ffec 	bl	80015ac <lfs_tag_chunk>
 80015d4:	4603      	mov	r3, r0
 80015d6:	b25b      	sxtb	r3, r3
}
 80015d8:	4618      	mov	r0, r3
 80015da:	3708      	adds	r7, #8
 80015dc:	46bd      	mov	sp, r7
 80015de:	bd80      	pop	{r7, pc}

080015e0 <lfs_tag_id>:

static inline uint16_t lfs_tag_id(lfs_tag_t tag) {
 80015e0:	b480      	push	{r7}
 80015e2:	b083      	sub	sp, #12
 80015e4:	af00      	add	r7, sp, #0
 80015e6:	6078      	str	r0, [r7, #4]
    return (tag & 0x000ffc00) >> 10;
 80015e8:	687b      	ldr	r3, [r7, #4]
 80015ea:	0a9b      	lsrs	r3, r3, #10
 80015ec:	b29b      	uxth	r3, r3
 80015ee:	f3c3 0309 	ubfx	r3, r3, #0, #10
 80015f2:	b29b      	uxth	r3, r3
}
 80015f4:	4618      	mov	r0, r3
 80015f6:	370c      	adds	r7, #12
 80015f8:	46bd      	mov	sp, r7
 80015fa:	f85d 7b04 	ldr.w	r7, [sp], #4
 80015fe:	4770      	bx	lr

08001600 <lfs_tag_size>:

static inline lfs_size_t lfs_tag_size(lfs_tag_t tag) {
 8001600:	b480      	push	{r7}
 8001602:	b083      	sub	sp, #12
 8001604:	af00      	add	r7, sp, #0
 8001606:	6078      	str	r0, [r7, #4]
    return tag & 0x000003ff;
 8001608:	687b      	ldr	r3, [r7, #4]
 800160a:	f3c3 0309 	ubfx	r3, r3, #0, #10
}
 800160e:	4618      	mov	r0, r3
 8001610:	370c      	adds	r7, #12
 8001612:	46bd      	mov	sp, r7
 8001614:	f85d 7b04 	ldr.w	r7, [sp], #4
 8001618:	4770      	bx	lr

0800161a <lfs_tag_dsize>:

static inline lfs_size_t lfs_tag_dsize(lfs_tag_t tag) {
 800161a:	b580      	push	{r7, lr}
 800161c:	b082      	sub	sp, #8
 800161e:	af00      	add	r7, sp, #0
 8001620:	6078      	str	r0, [r7, #4]
    return sizeof(tag) + lfs_tag_size(tag + lfs_tag_isdelete(tag));
 8001622:	6878      	ldr	r0, [r7, #4]
 8001624:	f7ff ff8f 	bl	8001546 <lfs_tag_isdelete>
 8001628:	4603      	mov	r3, r0
 800162a:	461a      	mov	r2, r3
 800162c:	687b      	ldr	r3, [r7, #4]
 800162e:	4413      	add	r3, r2
 8001630:	4618      	mov	r0, r3
 8001632:	f7ff ffe5 	bl	8001600 <lfs_tag_size>
 8001636:	4603      	mov	r3, r0
 8001638:	3304      	adds	r3, #4
}
 800163a:	4618      	mov	r0, r3
 800163c:	3708      	adds	r7, #8
 800163e:	46bd      	mov	sp, r7
 8001640:	bd80      	pop	{r7, pc}

08001642 <lfs_gstate_xor>:
#define LFS_MKATTRS(...) \
    (struct lfs_mattr[]){__VA_ARGS__}, \
    sizeof((struct lfs_mattr[]){__VA_ARGS__}) / sizeof(struct lfs_mattr)

// operations on global state
static inline void lfs_gstate_xor(lfs_gstate_t *a, const lfs_gstate_t *b) {
 8001642:	b480      	push	{r7}
 8001644:	b085      	sub	sp, #20
 8001646:	af00      	add	r7, sp, #0
 8001648:	6078      	str	r0, [r7, #4]
 800164a:	6039      	str	r1, [r7, #0]
    for (int i = 0; i < 3; i++) {
 800164c:	2300      	movs	r3, #0
 800164e:	60fb      	str	r3, [r7, #12]
 8001650:	e012      	b.n	8001678 <lfs_gstate_xor+0x36>
        ((uint32_t*)a)[i] ^= ((const uint32_t*)b)[i];
 8001652:	68fb      	ldr	r3, [r7, #12]
 8001654:	009b      	lsls	r3, r3, #2
 8001656:	687a      	ldr	r2, [r7, #4]
 8001658:	4413      	add	r3, r2
 800165a:	6819      	ldr	r1, [r3, #0]
 800165c:	68fb      	ldr	r3, [r7, #12]
 800165e:	009b      	lsls	r3, r3, #2
 8001660:	683a      	ldr	r2, [r7, #0]
 8001662:	4413      	add	r3, r2
 8001664:	681a      	ldr	r2, [r3, #0]
 8001666:	68fb      	ldr	r3, [r7, #12]
 8001668:	009b      	lsls	r3, r3, #2
 800166a:	6878      	ldr	r0, [r7, #4]
 800166c:	4403      	add	r3, r0
 800166e:	404a      	eors	r2, r1
 8001670:	601a      	str	r2, [r3, #0]
    for (int i = 0; i < 3; i++) {
 8001672:	68fb      	ldr	r3, [r7, #12]
 8001674:	3301      	adds	r3, #1
 8001676:	60fb      	str	r3, [r7, #12]
 8001678:	68fb      	ldr	r3, [r7, #12]
 800167a:	2b02      	cmp	r3, #2
 800167c:	dde9      	ble.n	8001652 <lfs_gstate_xor+0x10>
    }
}
 800167e:	bf00      	nop
 8001680:	3714      	adds	r7, #20
 8001682:	46bd      	mov	sp, r7
 8001684:	f85d 7b04 	ldr.w	r7, [sp], #4
 8001688:	4770      	bx	lr

0800168a <lfs_gstate_iszero>:

static inline bool lfs_gstate_iszero(const lfs_gstate_t *a) {
 800168a:	b480      	push	{r7}
 800168c:	b085      	sub	sp, #20
 800168e:	af00      	add	r7, sp, #0
 8001690:	6078      	str	r0, [r7, #4]
    for (int i = 0; i < 3; i++) {
 8001692:	2300      	movs	r3, #0
 8001694:	60fb      	str	r3, [r7, #12]
 8001696:	e00b      	b.n	80016b0 <lfs_gstate_iszero+0x26>
        if (((uint32_t*)a)[i] != 0) {
 8001698:	68fb      	ldr	r3, [r7, #12]
 800169a:	009b      	lsls	r3, r3, #2
 800169c:	687a      	ldr	r2, [r7, #4]
 800169e:	4413      	add	r3, r2
 80016a0:	681b      	ldr	r3, [r3, #0]
 80016a2:	2b00      	cmp	r3, #0
 80016a4:	d001      	beq.n	80016aa <lfs_gstate_iszero+0x20>
            return false;
 80016a6:	2300      	movs	r3, #0
 80016a8:	e006      	b.n	80016b8 <lfs_gstate_iszero+0x2e>
    for (int i = 0; i < 3; i++) {
 80016aa:	68fb      	ldr	r3, [r7, #12]
 80016ac:	3301      	adds	r3, #1
 80016ae:	60fb      	str	r3, [r7, #12]
 80016b0:	68fb      	ldr	r3, [r7, #12]
 80016b2:	2b02      	cmp	r3, #2
 80016b4:	ddf0      	ble.n	8001698 <lfs_gstate_iszero+0xe>
        }
    }
    return true;
 80016b6:	2301      	movs	r3, #1
}
 80016b8:	4618      	mov	r0, r3
 80016ba:	3714      	adds	r7, #20
 80016bc:	46bd      	mov	sp, r7
 80016be:	f85d 7b04 	ldr.w	r7, [sp], #4
 80016c2:	4770      	bx	lr

080016c4 <lfs_gstate_hasorphans>:

static inline bool lfs_gstate_hasorphans(const lfs_gstate_t *a) {
 80016c4:	b580      	push	{r7, lr}
 80016c6:	b082      	sub	sp, #8
 80016c8:	af00      	add	r7, sp, #0
 80016ca:	6078      	str	r0, [r7, #4]
    return lfs_tag_size(a->tag);
 80016cc:	687b      	ldr	r3, [r7, #4]
 80016ce:	681b      	ldr	r3, [r3, #0]
 80016d0:	4618      	mov	r0, r3
 80016d2:	f7ff ff95 	bl	8001600 <lfs_tag_size>
 80016d6:	4603      	mov	r3, r0
 80016d8:	2b00      	cmp	r3, #0
 80016da:	bf14      	ite	ne
 80016dc:	2301      	movne	r3, #1
 80016de:	2300      	moveq	r3, #0
 80016e0:	b2db      	uxtb	r3, r3
}
 80016e2:	4618      	mov	r0, r3
 80016e4:	3708      	adds	r7, #8
 80016e6:	46bd      	mov	sp, r7
 80016e8:	bd80      	pop	{r7, pc}

080016ea <lfs_gstate_getorphans>:

static inline uint8_t lfs_gstate_getorphans(const lfs_gstate_t *a) {
 80016ea:	b580      	push	{r7, lr}
 80016ec:	b082      	sub	sp, #8
 80016ee:	af00      	add	r7, sp, #0
 80016f0:	6078      	str	r0, [r7, #4]
    return lfs_tag_size(a->tag);
 80016f2:	687b      	ldr	r3, [r7, #4]
 80016f4:	681b      	ldr	r3, [r3, #0]
 80016f6:	4618      	mov	r0, r3
 80016f8:	f7ff ff82 	bl	8001600 <lfs_tag_size>
 80016fc:	4603      	mov	r3, r0
 80016fe:	b2db      	uxtb	r3, r3
}
 8001700:	4618      	mov	r0, r3
 8001702:	3708      	adds	r7, #8
 8001704:	46bd      	mov	sp, r7
 8001706:	bd80      	pop	{r7, pc}

08001708 <lfs_gstate_hasmove>:

static inline bool lfs_gstate_hasmove(const lfs_gstate_t *a) {
 8001708:	b580      	push	{r7, lr}
 800170a:	b082      	sub	sp, #8
 800170c:	af00      	add	r7, sp, #0
 800170e:	6078      	str	r0, [r7, #4]
    return lfs_tag_type1(a->tag);
 8001710:	687b      	ldr	r3, [r7, #4]
 8001712:	681b      	ldr	r3, [r3, #0]
 8001714:	4618      	mov	r0, r3
 8001716:	f7ff ff29 	bl	800156c <lfs_tag_type1>
 800171a:	4603      	mov	r3, r0
 800171c:	2b00      	cmp	r3, #0
 800171e:	bf14      	ite	ne
 8001720:	2301      	movne	r3, #1
 8001722:	2300      	moveq	r3, #0
 8001724:	b2db      	uxtb	r3, r3
}
 8001726:	4618      	mov	r0, r3
 8001728:	3708      	adds	r7, #8
 800172a:	46bd      	mov	sp, r7
 800172c:	bd80      	pop	{r7, pc}

0800172e <lfs_gstate_hasmovehere>:

static inline bool lfs_gstate_hasmovehere(const lfs_gstate_t *a,
        const lfs_block_t *pair) {
 800172e:	b580      	push	{r7, lr}
 8001730:	b082      	sub	sp, #8
 8001732:	af00      	add	r7, sp, #0
 8001734:	6078      	str	r0, [r7, #4]
 8001736:	6039      	str	r1, [r7, #0]
    return lfs_tag_type1(a->tag) && lfs_pair_cmp(a->pair, pair) == 0;
 8001738:	687b      	ldr	r3, [r7, #4]
 800173a:	681b      	ldr	r3, [r3, #0]
 800173c:	4618      	mov	r0, r3
 800173e:	f7ff ff15 	bl	800156c <lfs_tag_type1>
 8001742:	4603      	mov	r3, r0
 8001744:	2b00      	cmp	r3, #0
 8001746:	d00a      	beq.n	800175e <lfs_gstate_hasmovehere+0x30>
 8001748:	687b      	ldr	r3, [r7, #4]
 800174a:	3304      	adds	r3, #4
 800174c:	6839      	ldr	r1, [r7, #0]
 800174e:	4618      	mov	r0, r3
 8001750:	f7ff fe60 	bl	8001414 <lfs_pair_cmp>
 8001754:	4603      	mov	r3, r0
 8001756:	2b00      	cmp	r3, #0
 8001758:	d101      	bne.n	800175e <lfs_gstate_hasmovehere+0x30>
 800175a:	2301      	movs	r3, #1
 800175c:	e000      	b.n	8001760 <lfs_gstate_hasmovehere+0x32>
 800175e:	2300      	movs	r3, #0
 8001760:	f003 0301 	and.w	r3, r3, #1
 8001764:	b2db      	uxtb	r3, r3
}
 8001766:	4618      	mov	r0, r3
 8001768:	3708      	adds	r7, #8
 800176a:	46bd      	mov	sp, r7
 800176c:	bd80      	pop	{r7, pc}

0800176e <lfs_gstate_fromle32>:

static inline void lfs_gstate_fromle32(lfs_gstate_t *a) {
 800176e:	b580      	push	{r7, lr}
 8001770:	b082      	sub	sp, #8
 8001772:	af00      	add	r7, sp, #0
 8001774:	6078      	str	r0, [r7, #4]
    a->tag     = lfs_fromle32(a->tag);
 8001776:	687b      	ldr	r3, [r7, #4]
 8001778:	681b      	ldr	r3, [r3, #0]
 800177a:	4618      	mov	r0, r3
 800177c:	f7ff fa9a 	bl	8000cb4 <lfs_fromle32>
 8001780:	4602      	mov	r2, r0
 8001782:	687b      	ldr	r3, [r7, #4]
 8001784:	601a      	str	r2, [r3, #0]
    a->pair[0] = lfs_fromle32(a->pair[0]);
 8001786:	687b      	ldr	r3, [r7, #4]
 8001788:	685b      	ldr	r3, [r3, #4]
 800178a:	4618      	mov	r0, r3
 800178c:	f7ff fa92 	bl	8000cb4 <lfs_fromle32>
 8001790:	4602      	mov	r2, r0
 8001792:	687b      	ldr	r3, [r7, #4]
 8001794:	605a      	str	r2, [r3, #4]
    a->pair[1] = lfs_fromle32(a->pair[1]);
 8001796:	687b      	ldr	r3, [r7, #4]
 8001798:	689b      	ldr	r3, [r3, #8]
 800179a:	4618      	mov	r0, r3
 800179c:	f7ff fa8a 	bl	8000cb4 <lfs_fromle32>
 80017a0:	4602      	mov	r2, r0
 80017a2:	687b      	ldr	r3, [r7, #4]
 80017a4:	609a      	str	r2, [r3, #8]
}
 80017a6:	bf00      	nop
 80017a8:	3708      	adds	r7, #8
 80017aa:	46bd      	mov	sp, r7
 80017ac:	bd80      	pop	{r7, pc}

080017ae <lfs_gstate_tole32>:

static inline void lfs_gstate_tole32(lfs_gstate_t *a) {
 80017ae:	b580      	push	{r7, lr}
 80017b0:	b082      	sub	sp, #8
 80017b2:	af00      	add	r7, sp, #0
 80017b4:	6078      	str	r0, [r7, #4]
    a->tag     = lfs_tole32(a->tag);
 80017b6:	687b      	ldr	r3, [r7, #4]
 80017b8:	681b      	ldr	r3, [r3, #0]
 80017ba:	4618      	mov	r0, r3
 80017bc:	f7ff fa85 	bl	8000cca <lfs_tole32>
 80017c0:	4602      	mov	r2, r0
 80017c2:	687b      	ldr	r3, [r7, #4]
 80017c4:	601a      	str	r2, [r3, #0]
    a->pair[0] = lfs_tole32(a->pair[0]);
 80017c6:	687b      	ldr	r3, [r7, #4]
 80017c8:	685b      	ldr	r3, [r3, #4]
 80017ca:	4618      	mov	r0, r3
 80017cc:	f7ff fa7d 	bl	8000cca <lfs_tole32>
 80017d0:	4602      	mov	r2, r0
 80017d2:	687b      	ldr	r3, [r7, #4]
 80017d4:	605a      	str	r2, [r3, #4]
    a->pair[1] = lfs_tole32(a->pair[1]);
 80017d6:	687b      	ldr	r3, [r7, #4]
 80017d8:	689b      	ldr	r3, [r3, #8]
 80017da:	4618      	mov	r0, r3
 80017dc:	f7ff fa75 	bl	8000cca <lfs_tole32>
 80017e0:	4602      	mov	r2, r0
 80017e2:	687b      	ldr	r3, [r7, #4]
 80017e4:	609a      	str	r2, [r3, #8]
}
 80017e6:	bf00      	nop
 80017e8:	3708      	adds	r7, #8
 80017ea:	46bd      	mov	sp, r7
 80017ec:	bd80      	pop	{r7, pc}

080017ee <lfs_ctz_fromle32>:

// other endianness operations
static void lfs_ctz_fromle32(struct lfs_ctz *ctz) {
 80017ee:	b580      	push	{r7, lr}
 80017f0:	b082      	sub	sp, #8
 80017f2:	af00      	add	r7, sp, #0
 80017f4:	6078      	str	r0, [r7, #4]
    ctz->head = lfs_fromle32(ctz->head);
 80017f6:	687b      	ldr	r3, [r7, #4]
 80017f8:	681b      	ldr	r3, [r3, #0]
 80017fa:	4618      	mov	r0, r3
 80017fc:	f7ff fa5a 	bl	8000cb4 <lfs_fromle32>
 8001800:	4602      	mov	r2, r0
 8001802:	687b      	ldr	r3, [r7, #4]
 8001804:	601a      	str	r2, [r3, #0]
    ctz->size = lfs_fromle32(ctz->size);
 8001806:	687b      	ldr	r3, [r7, #4]
 8001808:	685b      	ldr	r3, [r3, #4]
 800180a:	4618      	mov	r0, r3
 800180c:	f7ff fa52 	bl	8000cb4 <lfs_fromle32>
 8001810:	4602      	mov	r2, r0
 8001812:	687b      	ldr	r3, [r7, #4]
 8001814:	605a      	str	r2, [r3, #4]
}
 8001816:	bf00      	nop
 8001818:	3708      	adds	r7, #8
 800181a:	46bd      	mov	sp, r7
 800181c:	bd80      	pop	{r7, pc}

0800181e <lfs_ctz_tole32>:

static void lfs_ctz_tole32(struct lfs_ctz *ctz) {
 800181e:	b580      	push	{r7, lr}
 8001820:	b082      	sub	sp, #8
 8001822:	af00      	add	r7, sp, #0
 8001824:	6078      	str	r0, [r7, #4]
    ctz->head = lfs_tole32(ctz->head);
 8001826:	687b      	ldr	r3, [r7, #4]
 8001828:	681b      	ldr	r3, [r3, #0]
 800182a:	4618      	mov	r0, r3
 800182c:	f7ff fa4d 	bl	8000cca <lfs_tole32>
 8001830:	4602      	mov	r2, r0
 8001832:	687b      	ldr	r3, [r7, #4]
 8001834:	601a      	str	r2, [r3, #0]
    ctz->size = lfs_tole32(ctz->size);
 8001836:	687b      	ldr	r3, [r7, #4]
 8001838:	685b      	ldr	r3, [r3, #4]
 800183a:	4618      	mov	r0, r3
 800183c:	f7ff fa45 	bl	8000cca <lfs_tole32>
 8001840:	4602      	mov	r2, r0
 8001842:	687b      	ldr	r3, [r7, #4]
 8001844:	605a      	str	r2, [r3, #4]
}
 8001846:	bf00      	nop
 8001848:	3708      	adds	r7, #8
 800184a:	46bd      	mov	sp, r7
 800184c:	bd80      	pop	{r7, pc}

0800184e <lfs_superblock_fromle32>:

static inline void lfs_superblock_fromle32(lfs_superblock_t *superblock) {
 800184e:	b580      	push	{r7, lr}
 8001850:	b082      	sub	sp, #8
 8001852:	af00      	add	r7, sp, #0
 8001854:	6078      	str	r0, [r7, #4]
    superblock->version     = lfs_fromle32(superblock->version);
 8001856:	687b      	ldr	r3, [r7, #4]
 8001858:	681b      	ldr	r3, [r3, #0]
 800185a:	4618      	mov	r0, r3
 800185c:	f7ff fa2a 	bl	8000cb4 <lfs_fromle32>
 8001860:	4602      	mov	r2, r0
 8001862:	687b      	ldr	r3, [r7, #4]
 8001864:	601a      	str	r2, [r3, #0]
    superblock->block_size  = lfs_fromle32(superblock->block_size);
 8001866:	687b      	ldr	r3, [r7, #4]
 8001868:	685b      	ldr	r3, [r3, #4]
 800186a:	4618      	mov	r0, r3
 800186c:	f7ff fa22 	bl	8000cb4 <lfs_fromle32>
 8001870:	4602      	mov	r2, r0
 8001872:	687b      	ldr	r3, [r7, #4]
 8001874:	605a      	str	r2, [r3, #4]
    superblock->block_count = lfs_fromle32(superblock->block_count);
 8001876:	687b      	ldr	r3, [r7, #4]
 8001878:	689b      	ldr	r3, [r3, #8]
 800187a:	4618      	mov	r0, r3
 800187c:	f7ff fa1a 	bl	8000cb4 <lfs_fromle32>
 8001880:	4602      	mov	r2, r0
 8001882:	687b      	ldr	r3, [r7, #4]
 8001884:	609a      	str	r2, [r3, #8]
    superblock->name_max    = lfs_fromle32(superblock->name_max);
 8001886:	687b      	ldr	r3, [r7, #4]
 8001888:	68db      	ldr	r3, [r3, #12]
 800188a:	4618      	mov	r0, r3
 800188c:	f7ff fa12 	bl	8000cb4 <lfs_fromle32>
 8001890:	4602      	mov	r2, r0
 8001892:	687b      	ldr	r3, [r7, #4]
 8001894:	60da      	str	r2, [r3, #12]
    superblock->file_max    = lfs_fromle32(superblock->file_max);
 8001896:	687b      	ldr	r3, [r7, #4]
 8001898:	691b      	ldr	r3, [r3, #16]
 800189a:	4618      	mov	r0, r3
 800189c:	f7ff fa0a 	bl	8000cb4 <lfs_fromle32>
 80018a0:	4602      	mov	r2, r0
 80018a2:	687b      	ldr	r3, [r7, #4]
 80018a4:	611a      	str	r2, [r3, #16]
    superblock->attr_max    = lfs_fromle32(superblock->attr_max);
 80018a6:	687b      	ldr	r3, [r7, #4]
 80018a8:	695b      	ldr	r3, [r3, #20]
 80018aa:	4618      	mov	r0, r3
 80018ac:	f7ff fa02 	bl	8000cb4 <lfs_fromle32>
 80018b0:	4602      	mov	r2, r0
 80018b2:	687b      	ldr	r3, [r7, #4]
 80018b4:	615a      	str	r2, [r3, #20]
}
 80018b6:	bf00      	nop
 80018b8:	3708      	adds	r7, #8
 80018ba:	46bd      	mov	sp, r7
 80018bc:	bd80      	pop	{r7, pc}

080018be <lfs_superblock_tole32>:

static inline void lfs_superblock_tole32(lfs_superblock_t *superblock) {
 80018be:	b580      	push	{r7, lr}
 80018c0:	b082      	sub	sp, #8
 80018c2:	af00      	add	r7, sp, #0
 80018c4:	6078      	str	r0, [r7, #4]
    superblock->version     = lfs_tole32(superblock->version);
 80018c6:	687b      	ldr	r3, [r7, #4]
 80018c8:	681b      	ldr	r3, [r3, #0]
 80018ca:	4618      	mov	r0, r3
 80018cc:	f7ff f9fd 	bl	8000cca <lfs_tole32>
 80018d0:	4602      	mov	r2, r0
 80018d2:	687b      	ldr	r3, [r7, #4]
 80018d4:	601a      	str	r2, [r3, #0]
    superblock->block_size  = lfs_tole32(superblock->block_size);
 80018d6:	687b      	ldr	r3, [r7, #4]
 80018d8:	685b      	ldr	r3, [r3, #4]
 80018da:	4618      	mov	r0, r3
 80018dc:	f7ff f9f5 	bl	8000cca <lfs_tole32>
 80018e0:	4602      	mov	r2, r0
 80018e2:	687b      	ldr	r3, [r7, #4]
 80018e4:	605a      	str	r2, [r3, #4]
    superblock->block_count = lfs_tole32(superblock->block_count);
 80018e6:	687b      	ldr	r3, [r7, #4]
 80018e8:	689b      	ldr	r3, [r3, #8]
 80018ea:	4618      	mov	r0, r3
 80018ec:	f7ff f9ed 	bl	8000cca <lfs_tole32>
 80018f0:	4602      	mov	r2, r0
 80018f2:	687b      	ldr	r3, [r7, #4]
 80018f4:	609a      	str	r2, [r3, #8]
    superblock->name_max    = lfs_tole32(superblock->name_max);
 80018f6:	687b      	ldr	r3, [r7, #4]
 80018f8:	68db      	ldr	r3, [r3, #12]
 80018fa:	4618      	mov	r0, r3
 80018fc:	f7ff f9e5 	bl	8000cca <lfs_tole32>
 8001900:	4602      	mov	r2, r0
 8001902:	687b      	ldr	r3, [r7, #4]
 8001904:	60da      	str	r2, [r3, #12]
    superblock->file_max    = lfs_tole32(superblock->file_max);
 8001906:	687b      	ldr	r3, [r7, #4]
 8001908:	691b      	ldr	r3, [r3, #16]
 800190a:	4618      	mov	r0, r3
 800190c:	f7ff f9dd 	bl	8000cca <lfs_tole32>
 8001910:	4602      	mov	r2, r0
 8001912:	687b      	ldr	r3, [r7, #4]
 8001914:	611a      	str	r2, [r3, #16]
    superblock->attr_max    = lfs_tole32(superblock->attr_max);
 8001916:	687b      	ldr	r3, [r7, #4]
 8001918:	695b      	ldr	r3, [r3, #20]
 800191a:	4618      	mov	r0, r3
 800191c:	f7ff f9d5 	bl	8000cca <lfs_tole32>
 8001920:	4602      	mov	r2, r0
 8001922:	687b      	ldr	r3, [r7, #4]
 8001924:	615a      	str	r2, [r3, #20]
}
 8001926:	bf00      	nop
 8001928:	3708      	adds	r7, #8
 800192a:	46bd      	mov	sp, r7
 800192c:	bd80      	pop	{r7, pc}

0800192e <lfs_alloc_lookahead>:
static int lfs1_traverse(lfs_t *lfs,
        int (*cb)(void*, lfs_block_t), void *data);
#endif

/// Block allocator ///
static int lfs_alloc_lookahead(void *p, lfs_block_t block) {
 800192e:	b480      	push	{r7}
 8001930:	b085      	sub	sp, #20
 8001932:	af00      	add	r7, sp, #0
 8001934:	6078      	str	r0, [r7, #4]
 8001936:	6039      	str	r1, [r7, #0]
    lfs_t *lfs = (lfs_t*)p;
 8001938:	687b      	ldr	r3, [r7, #4]
 800193a:	60fb      	str	r3, [r7, #12]
    lfs_block_t off = ((block - lfs->free.off)
 800193c:	68fb      	ldr	r3, [r7, #12]
 800193e:	6d5b      	ldr	r3, [r3, #84]	; 0x54
 8001940:	683a      	ldr	r2, [r7, #0]
 8001942:	1ad2      	subs	r2, r2, r3
            + lfs->cfg->block_count) % lfs->cfg->block_count;
 8001944:	68fb      	ldr	r3, [r7, #12]
 8001946:	6e9b      	ldr	r3, [r3, #104]	; 0x68
 8001948:	6a1b      	ldr	r3, [r3, #32]
 800194a:	4413      	add	r3, r2
 800194c:	68fa      	ldr	r2, [r7, #12]
 800194e:	6e92      	ldr	r2, [r2, #104]	; 0x68
 8001950:	6a12      	ldr	r2, [r2, #32]
    lfs_block_t off = ((block - lfs->free.off)
 8001952:	fbb3 f1f2 	udiv	r1, r3, r2
 8001956:	fb02 f201 	mul.w	r2, r2, r1
 800195a:	1a9b      	subs	r3, r3, r2
 800195c:	60bb      	str	r3, [r7, #8]

    if (off < lfs->free.size) {
 800195e:	68fb      	ldr	r3, [r7, #12]
 8001960:	6d9b      	ldr	r3, [r3, #88]	; 0x58
 8001962:	68ba      	ldr	r2, [r7, #8]
 8001964:	429a      	cmp	r2, r3
 8001966:	d212      	bcs.n	800198e <lfs_alloc_lookahead+0x60>
        lfs->free.buffer[off / 32] |= 1U << (off % 32);
 8001968:	68fb      	ldr	r3, [r7, #12]
 800196a:	6e59      	ldr	r1, [r3, #100]	; 0x64
 800196c:	68bb      	ldr	r3, [r7, #8]
 800196e:	095b      	lsrs	r3, r3, #5
 8001970:	009a      	lsls	r2, r3, #2
 8001972:	440a      	add	r2, r1
 8001974:	6811      	ldr	r1, [r2, #0]
 8001976:	68ba      	ldr	r2, [r7, #8]
 8001978:	f002 021f 	and.w	r2, r2, #31
 800197c:	2001      	movs	r0, #1
 800197e:	fa00 f202 	lsl.w	r2, r0, r2
 8001982:	68f8      	ldr	r0, [r7, #12]
 8001984:	6e40      	ldr	r0, [r0, #100]	; 0x64
 8001986:	009b      	lsls	r3, r3, #2
 8001988:	4403      	add	r3, r0
 800198a:	430a      	orrs	r2, r1
 800198c:	601a      	str	r2, [r3, #0]
    }

    return 0;
 800198e:	2300      	movs	r3, #0
}
 8001990:	4618      	mov	r0, r3
 8001992:	3714      	adds	r7, #20
 8001994:	46bd      	mov	sp, r7
 8001996:	f85d 7b04 	ldr.w	r7, [sp], #4
 800199a:	4770      	bx	lr

0800199c <lfs_alloc_ack>:

static void lfs_alloc_ack(lfs_t *lfs) {
 800199c:	b480      	push	{r7}
 800199e:	b083      	sub	sp, #12
 80019a0:	af00      	add	r7, sp, #0
 80019a2:	6078      	str	r0, [r7, #4]
    lfs->free.ack = lfs->cfg->block_count;
 80019a4:	687b      	ldr	r3, [r7, #4]
 80019a6:	6e9b      	ldr	r3, [r3, #104]	; 0x68
 80019a8:	6a1a      	ldr	r2, [r3, #32]
 80019aa:	687b      	ldr	r3, [r7, #4]
 80019ac:	661a      	str	r2, [r3, #96]	; 0x60
}
 80019ae:	bf00      	nop
 80019b0:	370c      	adds	r7, #12
 80019b2:	46bd      	mov	sp, r7
 80019b4:	f85d 7b04 	ldr.w	r7, [sp], #4
 80019b8:	4770      	bx	lr

080019ba <lfs_alloc_reset>:

// Invalidate the lookahead buffer. This is done during mounting and
// failed traversals
static void lfs_alloc_reset(lfs_t *lfs) {
 80019ba:	b580      	push	{r7, lr}
 80019bc:	b082      	sub	sp, #8
 80019be:	af00      	add	r7, sp, #0
 80019c0:	6078      	str	r0, [r7, #4]
    lfs->free.off = lfs->seed % lfs->cfg->block_size;
 80019c2:	687b      	ldr	r3, [r7, #4]
 80019c4:	6adb      	ldr	r3, [r3, #44]	; 0x2c
 80019c6:	687a      	ldr	r2, [r7, #4]
 80019c8:	6e92      	ldr	r2, [r2, #104]	; 0x68
 80019ca:	69d2      	ldr	r2, [r2, #28]
 80019cc:	fbb3 f1f2 	udiv	r1, r3, r2
 80019d0:	fb02 f201 	mul.w	r2, r2, r1
 80019d4:	1a9a      	subs	r2, r3, r2
 80019d6:	687b      	ldr	r3, [r7, #4]
 80019d8:	655a      	str	r2, [r3, #84]	; 0x54
    lfs->free.size = 0;
 80019da:	687b      	ldr	r3, [r7, #4]
 80019dc:	2200      	movs	r2, #0
 80019de:	659a      	str	r2, [r3, #88]	; 0x58
    lfs->free.i = 0;
 80019e0:	687b      	ldr	r3, [r7, #4]
 80019e2:	2200      	movs	r2, #0
 80019e4:	65da      	str	r2, [r3, #92]	; 0x5c
    lfs_alloc_ack(lfs);
 80019e6:	6878      	ldr	r0, [r7, #4]
 80019e8:	f7ff ffd8 	bl	800199c <lfs_alloc_ack>
}
 80019ec:	bf00      	nop
 80019ee:	3708      	adds	r7, #8
 80019f0:	46bd      	mov	sp, r7
 80019f2:	bd80      	pop	{r7, pc}

080019f4 <lfs_alloc>:

static int lfs_alloc(lfs_t *lfs, lfs_block_t *block) {
 80019f4:	b580      	push	{r7, lr}
 80019f6:	b086      	sub	sp, #24
 80019f8:	af02      	add	r7, sp, #8
 80019fa:	6078      	str	r0, [r7, #4]
 80019fc:	6039      	str	r1, [r7, #0]
    while (true) {
        while (lfs->free.i != lfs->free.size) {
 80019fe:	e04f      	b.n	8001aa0 <lfs_alloc+0xac>
            lfs_block_t off = lfs->free.i;
 8001a00:	687b      	ldr	r3, [r7, #4]
 8001a02:	6ddb      	ldr	r3, [r3, #92]	; 0x5c
 8001a04:	60bb      	str	r3, [r7, #8]
            lfs->free.i += 1;
 8001a06:	687b      	ldr	r3, [r7, #4]
 8001a08:	6ddb      	ldr	r3, [r3, #92]	; 0x5c
 8001a0a:	1c5a      	adds	r2, r3, #1
 8001a0c:	687b      	ldr	r3, [r7, #4]
 8001a0e:	65da      	str	r2, [r3, #92]	; 0x5c
            lfs->free.ack -= 1;
 8001a10:	687b      	ldr	r3, [r7, #4]
 8001a12:	6e1b      	ldr	r3, [r3, #96]	; 0x60
 8001a14:	1e5a      	subs	r2, r3, #1
 8001a16:	687b      	ldr	r3, [r7, #4]
 8001a18:	661a      	str	r2, [r3, #96]	; 0x60

            if (!(lfs->free.buffer[off / 32] & (1U << (off % 32)))) {
 8001a1a:	687b      	ldr	r3, [r7, #4]
 8001a1c:	6e5a      	ldr	r2, [r3, #100]	; 0x64
 8001a1e:	68bb      	ldr	r3, [r7, #8]
 8001a20:	095b      	lsrs	r3, r3, #5
 8001a22:	009b      	lsls	r3, r3, #2
 8001a24:	4413      	add	r3, r2
 8001a26:	681a      	ldr	r2, [r3, #0]
 8001a28:	68bb      	ldr	r3, [r7, #8]
 8001a2a:	f003 031f 	and.w	r3, r3, #31
 8001a2e:	2101      	movs	r1, #1
 8001a30:	fa01 f303 	lsl.w	r3, r1, r3
 8001a34:	4013      	ands	r3, r2
 8001a36:	2b00      	cmp	r3, #0
 8001a38:	d132      	bne.n	8001aa0 <lfs_alloc+0xac>
                // found a free block
                *block = (lfs->free.off + off) % lfs->cfg->block_count;
 8001a3a:	687b      	ldr	r3, [r7, #4]
 8001a3c:	6d5a      	ldr	r2, [r3, #84]	; 0x54
 8001a3e:	68bb      	ldr	r3, [r7, #8]
 8001a40:	4413      	add	r3, r2
 8001a42:	687a      	ldr	r2, [r7, #4]
 8001a44:	6e92      	ldr	r2, [r2, #104]	; 0x68
 8001a46:	6a12      	ldr	r2, [r2, #32]
 8001a48:	fbb3 f1f2 	udiv	r1, r3, r2
 8001a4c:	fb02 f201 	mul.w	r2, r2, r1
 8001a50:	1a9a      	subs	r2, r3, r2
 8001a52:	683b      	ldr	r3, [r7, #0]
 8001a54:	601a      	str	r2, [r3, #0]

                // eagerly find next off so an alloc ack can
                // discredit old lookahead blocks
                while (lfs->free.i != lfs->free.size &&
 8001a56:	e009      	b.n	8001a6c <lfs_alloc+0x78>
                        (lfs->free.buffer[lfs->free.i / 32]
                            & (1U << (lfs->free.i % 32)))) {
                    lfs->free.i += 1;
 8001a58:	687b      	ldr	r3, [r7, #4]
 8001a5a:	6ddb      	ldr	r3, [r3, #92]	; 0x5c
 8001a5c:	1c5a      	adds	r2, r3, #1
 8001a5e:	687b      	ldr	r3, [r7, #4]
 8001a60:	65da      	str	r2, [r3, #92]	; 0x5c
                    lfs->free.ack -= 1;
 8001a62:	687b      	ldr	r3, [r7, #4]
 8001a64:	6e1b      	ldr	r3, [r3, #96]	; 0x60
 8001a66:	1e5a      	subs	r2, r3, #1
 8001a68:	687b      	ldr	r3, [r7, #4]
 8001a6a:	661a      	str	r2, [r3, #96]	; 0x60
                while (lfs->free.i != lfs->free.size &&
 8001a6c:	687b      	ldr	r3, [r7, #4]
 8001a6e:	6dda      	ldr	r2, [r3, #92]	; 0x5c
 8001a70:	687b      	ldr	r3, [r7, #4]
 8001a72:	6d9b      	ldr	r3, [r3, #88]	; 0x58
 8001a74:	429a      	cmp	r2, r3
 8001a76:	d011      	beq.n	8001a9c <lfs_alloc+0xa8>
                        (lfs->free.buffer[lfs->free.i / 32]
 8001a78:	687b      	ldr	r3, [r7, #4]
 8001a7a:	6e5a      	ldr	r2, [r3, #100]	; 0x64
 8001a7c:	687b      	ldr	r3, [r7, #4]
 8001a7e:	6ddb      	ldr	r3, [r3, #92]	; 0x5c
 8001a80:	095b      	lsrs	r3, r3, #5
 8001a82:	009b      	lsls	r3, r3, #2
 8001a84:	4413      	add	r3, r2
 8001a86:	681a      	ldr	r2, [r3, #0]
                            & (1U << (lfs->free.i % 32)))) {
 8001a88:	687b      	ldr	r3, [r7, #4]
 8001a8a:	6ddb      	ldr	r3, [r3, #92]	; 0x5c
 8001a8c:	f003 031f 	and.w	r3, r3, #31
 8001a90:	2101      	movs	r1, #1
 8001a92:	fa01 f303 	lsl.w	r3, r1, r3
 8001a96:	4013      	ands	r3, r2
                while (lfs->free.i != lfs->free.size &&
 8001a98:	2b00      	cmp	r3, #0
 8001a9a:	d1dd      	bne.n	8001a58 <lfs_alloc+0x64>
                }

                return 0;
 8001a9c:	2300      	movs	r3, #0
 8001a9e:	e051      	b.n	8001b44 <lfs_alloc+0x150>
        while (lfs->free.i != lfs->free.size) {
 8001aa0:	687b      	ldr	r3, [r7, #4]
 8001aa2:	6dda      	ldr	r2, [r3, #92]	; 0x5c
 8001aa4:	687b      	ldr	r3, [r7, #4]
 8001aa6:	6d9b      	ldr	r3, [r3, #88]	; 0x58
 8001aa8:	429a      	cmp	r2, r3
 8001aaa:	d1a9      	bne.n	8001a00 <lfs_alloc+0xc>
            }
        }

        // check if we have looked at all blocks since last ack
        if (lfs->free.ack == 0) {
 8001aac:	687b      	ldr	r3, [r7, #4]
 8001aae:	6e1b      	ldr	r3, [r3, #96]	; 0x60
 8001ab0:	2b00      	cmp	r3, #0
 8001ab2:	d110      	bne.n	8001ad6 <lfs_alloc+0xe2>
            LFS_ERROR("No more free space %"PRIu32,
 8001ab4:	687b      	ldr	r3, [r7, #4]
 8001ab6:	6dda      	ldr	r2, [r3, #92]	; 0x5c
 8001ab8:	687b      	ldr	r3, [r7, #4]
 8001aba:	6d5b      	ldr	r3, [r3, #84]	; 0x54
 8001abc:	441a      	add	r2, r3
 8001abe:	4b23      	ldr	r3, [pc, #140]	; (8001b4c <lfs_alloc+0x158>)
 8001ac0:	9300      	str	r3, [sp, #0]
 8001ac2:	4613      	mov	r3, r2
 8001ac4:	f240 12ef 	movw	r2, #495	; 0x1ef
 8001ac8:	4921      	ldr	r1, [pc, #132]	; (8001b50 <lfs_alloc+0x15c>)
 8001aca:	4822      	ldr	r0, [pc, #136]	; (8001b54 <lfs_alloc+0x160>)
 8001acc:	f00b f93c 	bl	800cd48 <iprintf>
                    lfs->free.i + lfs->free.off);
            return LFS_ERR_NOSPC;
 8001ad0:	f06f 031b 	mvn.w	r3, #27
 8001ad4:	e036      	b.n	8001b44 <lfs_alloc+0x150>
        }

        lfs->free.off = (lfs->free.off + lfs->free.size)
 8001ad6:	687b      	ldr	r3, [r7, #4]
 8001ad8:	6d5a      	ldr	r2, [r3, #84]	; 0x54
 8001ada:	687b      	ldr	r3, [r7, #4]
 8001adc:	6d9b      	ldr	r3, [r3, #88]	; 0x58
 8001ade:	4413      	add	r3, r2
                % lfs->cfg->block_count;
 8001ae0:	687a      	ldr	r2, [r7, #4]
 8001ae2:	6e92      	ldr	r2, [r2, #104]	; 0x68
 8001ae4:	6a12      	ldr	r2, [r2, #32]
 8001ae6:	fbb3 f1f2 	udiv	r1, r3, r2
 8001aea:	fb02 f201 	mul.w	r2, r2, r1
 8001aee:	1a9a      	subs	r2, r3, r2
        lfs->free.off = (lfs->free.off + lfs->free.size)
 8001af0:	687b      	ldr	r3, [r7, #4]
 8001af2:	655a      	str	r2, [r3, #84]	; 0x54
        lfs->free.size = lfs_min(8*lfs->cfg->lookahead_size, lfs->free.ack);
 8001af4:	687b      	ldr	r3, [r7, #4]
 8001af6:	6e9b      	ldr	r3, [r3, #104]	; 0x68
 8001af8:	6adb      	ldr	r3, [r3, #44]	; 0x2c
 8001afa:	00da      	lsls	r2, r3, #3
 8001afc:	687b      	ldr	r3, [r7, #4]
 8001afe:	6e1b      	ldr	r3, [r3, #96]	; 0x60
 8001b00:	4619      	mov	r1, r3
 8001b02:	4610      	mov	r0, r2
 8001b04:	f7ff f866 	bl	8000bd4 <lfs_min>
 8001b08:	4602      	mov	r2, r0
 8001b0a:	687b      	ldr	r3, [r7, #4]
 8001b0c:	659a      	str	r2, [r3, #88]	; 0x58
        lfs->free.i = 0;
 8001b0e:	687b      	ldr	r3, [r7, #4]
 8001b10:	2200      	movs	r2, #0
 8001b12:	65da      	str	r2, [r3, #92]	; 0x5c

        // find mask of free blocks from tree
        memset(lfs->free.buffer, 0, lfs->cfg->lookahead_size);
 8001b14:	687b      	ldr	r3, [r7, #4]
 8001b16:	6e58      	ldr	r0, [r3, #100]	; 0x64
 8001b18:	687b      	ldr	r3, [r7, #4]
 8001b1a:	6e9b      	ldr	r3, [r3, #104]	; 0x68
 8001b1c:	6adb      	ldr	r3, [r3, #44]	; 0x2c
 8001b1e:	461a      	mov	r2, r3
 8001b20:	2100      	movs	r1, #0
 8001b22:	f00a fd99 	bl	800c658 <memset>
        int err = lfs_fs_traverseraw(lfs, lfs_alloc_lookahead, lfs, true);
 8001b26:	2301      	movs	r3, #1
 8001b28:	687a      	ldr	r2, [r7, #4]
 8001b2a:	490b      	ldr	r1, [pc, #44]	; (8001b58 <lfs_alloc+0x164>)
 8001b2c:	6878      	ldr	r0, [r7, #4]
 8001b2e:	f004 f9db 	bl	8005ee8 <lfs_fs_traverseraw>
 8001b32:	60f8      	str	r0, [r7, #12]
        if (err) {
 8001b34:	68fb      	ldr	r3, [r7, #12]
 8001b36:	2b00      	cmp	r3, #0
 8001b38:	f43f af61 	beq.w	80019fe <lfs_alloc+0xa>
            lfs_alloc_reset(lfs);
 8001b3c:	6878      	ldr	r0, [r7, #4]
 8001b3e:	f7ff ff3c 	bl	80019ba <lfs_alloc_reset>
            return err;
 8001b42:	68fb      	ldr	r3, [r7, #12]
        }
    }
}
 8001b44:	4618      	mov	r0, r3
 8001b46:	3710      	adds	r7, #16
 8001b48:	46bd      	mov	sp, r7
 8001b4a:	bd80      	pop	{r7, pc}
 8001b4c:	0800dba4 	.word	0x0800dba4
 8001b50:	0800dab0 	.word	0x0800dab0
 8001b54:	0800db7c 	.word	0x0800db7c
 8001b58:	0800192f 	.word	0x0800192f

08001b5c <lfs_dir_getslice>:

/// Metadata pair and directory operations ///
static lfs_stag_t lfs_dir_getslice(lfs_t *lfs, const lfs_mdir_t *dir,
        lfs_tag_t gmask, lfs_tag_t gtag,
        lfs_off_t goff, void *gbuffer, lfs_size_t gsize) {
 8001b5c:	b590      	push	{r4, r7, lr}
 8001b5e:	b08f      	sub	sp, #60	; 0x3c
 8001b60:	af04      	add	r7, sp, #16
 8001b62:	60f8      	str	r0, [r7, #12]
 8001b64:	60b9      	str	r1, [r7, #8]
 8001b66:	607a      	str	r2, [r7, #4]
 8001b68:	603b      	str	r3, [r7, #0]
    lfs_off_t off = dir->off;
 8001b6a:	68bb      	ldr	r3, [r7, #8]
 8001b6c:	68db      	ldr	r3, [r3, #12]
 8001b6e:	627b      	str	r3, [r7, #36]	; 0x24
    lfs_tag_t ntag = dir->etag;
 8001b70:	68bb      	ldr	r3, [r7, #8]
 8001b72:	691b      	ldr	r3, [r3, #16]
 8001b74:	613b      	str	r3, [r7, #16]
    lfs_stag_t gdiff = 0;
 8001b76:	2300      	movs	r3, #0
 8001b78:	623b      	str	r3, [r7, #32]

    if (lfs_gstate_hasmovehere(&lfs->gdisk, dir->pair) &&
 8001b7a:	68fb      	ldr	r3, [r7, #12]
 8001b7c:	333c      	adds	r3, #60	; 0x3c
 8001b7e:	68ba      	ldr	r2, [r7, #8]
 8001b80:	4611      	mov	r1, r2
 8001b82:	4618      	mov	r0, r3
 8001b84:	f7ff fdd3 	bl	800172e <lfs_gstate_hasmovehere>
 8001b88:	4603      	mov	r3, r0
 8001b8a:	2b00      	cmp	r3, #0
 8001b8c:	f000 80b9 	beq.w	8001d02 <lfs_dir_getslice+0x1a6>
            lfs_tag_id(gmask) != 0 &&
 8001b90:	6878      	ldr	r0, [r7, #4]
 8001b92:	f7ff fd25 	bl	80015e0 <lfs_tag_id>
 8001b96:	4603      	mov	r3, r0
    if (lfs_gstate_hasmovehere(&lfs->gdisk, dir->pair) &&
 8001b98:	2b00      	cmp	r3, #0
 8001b9a:	f000 80b2 	beq.w	8001d02 <lfs_dir_getslice+0x1a6>
            lfs_tag_id(lfs->gdisk.tag) <= lfs_tag_id(gtag)) {
 8001b9e:	68fb      	ldr	r3, [r7, #12]
 8001ba0:	6bdb      	ldr	r3, [r3, #60]	; 0x3c
 8001ba2:	4618      	mov	r0, r3
 8001ba4:	f7ff fd1c 	bl	80015e0 <lfs_tag_id>
 8001ba8:	4603      	mov	r3, r0
 8001baa:	461c      	mov	r4, r3
 8001bac:	6838      	ldr	r0, [r7, #0]
 8001bae:	f7ff fd17 	bl	80015e0 <lfs_tag_id>
 8001bb2:	4603      	mov	r3, r0
            lfs_tag_id(gmask) != 0 &&
 8001bb4:	429c      	cmp	r4, r3
 8001bb6:	f200 80a4 	bhi.w	8001d02 <lfs_dir_getslice+0x1a6>
        // synthetic moves
        gdiff -= LFS_MKTAG(0, 1, 0);
 8001bba:	6a3b      	ldr	r3, [r7, #32]
 8001bbc:	f5a3 6380 	sub.w	r3, r3, #1024	; 0x400
 8001bc0:	623b      	str	r3, [r7, #32]
    }

    // iterate over dir block backwards (for faster lookups)
    while (off >= sizeof(lfs_tag_t) + lfs_tag_dsize(ntag)) {
 8001bc2:	e09e      	b.n	8001d02 <lfs_dir_getslice+0x1a6>
        off -= lfs_tag_dsize(ntag);
 8001bc4:	693b      	ldr	r3, [r7, #16]
 8001bc6:	4618      	mov	r0, r3
 8001bc8:	f7ff fd27 	bl	800161a <lfs_tag_dsize>
 8001bcc:	4602      	mov	r2, r0
 8001bce:	6a7b      	ldr	r3, [r7, #36]	; 0x24
 8001bd0:	1a9b      	subs	r3, r3, r2
 8001bd2:	627b      	str	r3, [r7, #36]	; 0x24
        lfs_tag_t tag = ntag;
 8001bd4:	693b      	ldr	r3, [r7, #16]
 8001bd6:	61fb      	str	r3, [r7, #28]
        int err = lfs_bd_read(lfs,
 8001bd8:	68f9      	ldr	r1, [r7, #12]
 8001bda:	68bb      	ldr	r3, [r7, #8]
 8001bdc:	681b      	ldr	r3, [r3, #0]
 8001bde:	2204      	movs	r2, #4
 8001be0:	9203      	str	r2, [sp, #12]
 8001be2:	f107 0210 	add.w	r2, r7, #16
 8001be6:	9202      	str	r2, [sp, #8]
 8001be8:	6a7a      	ldr	r2, [r7, #36]	; 0x24
 8001bea:	9201      	str	r2, [sp, #4]
 8001bec:	9300      	str	r3, [sp, #0]
 8001bee:	2304      	movs	r3, #4
 8001bf0:	460a      	mov	r2, r1
 8001bf2:	2100      	movs	r1, #0
 8001bf4:	68f8      	ldr	r0, [r7, #12]
 8001bf6:	f7ff f8c9 	bl	8000d8c <lfs_bd_read>
 8001bfa:	61b8      	str	r0, [r7, #24]
                NULL, &lfs->rcache, sizeof(ntag),
                dir->pair[0], off, &ntag, sizeof(ntag));
        if (err) {
 8001bfc:	69bb      	ldr	r3, [r7, #24]
 8001bfe:	2b00      	cmp	r3, #0
 8001c00:	d001      	beq.n	8001c06 <lfs_dir_getslice+0xaa>
            return err;
 8001c02:	69bb      	ldr	r3, [r7, #24]
 8001c04:	e089      	b.n	8001d1a <lfs_dir_getslice+0x1be>
        }

        ntag = (lfs_frombe32(ntag) ^ tag) & 0x7fffffff;
 8001c06:	693b      	ldr	r3, [r7, #16]
 8001c08:	4618      	mov	r0, r3
 8001c0a:	f7ff f86a 	bl	8000ce2 <lfs_frombe32>
 8001c0e:	4602      	mov	r2, r0
 8001c10:	69fb      	ldr	r3, [r7, #28]
 8001c12:	4053      	eors	r3, r2
 8001c14:	f023 4300 	bic.w	r3, r3, #2147483648	; 0x80000000
 8001c18:	613b      	str	r3, [r7, #16]

        if (lfs_tag_id(gmask) != 0 &&
 8001c1a:	6878      	ldr	r0, [r7, #4]
 8001c1c:	f7ff fce0 	bl	80015e0 <lfs_tag_id>
 8001c20:	4603      	mov	r3, r0
 8001c22:	2b00      	cmp	r3, #0
 8001c24:	d02b      	beq.n	8001c7e <lfs_dir_getslice+0x122>
                lfs_tag_type1(tag) == LFS_TYPE_SPLICE &&
 8001c26:	69f8      	ldr	r0, [r7, #28]
 8001c28:	f7ff fca0 	bl	800156c <lfs_tag_type1>
 8001c2c:	4603      	mov	r3, r0
        if (lfs_tag_id(gmask) != 0 &&
 8001c2e:	f5b3 6f80 	cmp.w	r3, #1024	; 0x400
 8001c32:	d124      	bne.n	8001c7e <lfs_dir_getslice+0x122>
                lfs_tag_id(tag) <= lfs_tag_id(gtag - gdiff)) {
 8001c34:	69f8      	ldr	r0, [r7, #28]
 8001c36:	f7ff fcd3 	bl	80015e0 <lfs_tag_id>
 8001c3a:	4603      	mov	r3, r0
 8001c3c:	461c      	mov	r4, r3
 8001c3e:	6a3b      	ldr	r3, [r7, #32]
 8001c40:	683a      	ldr	r2, [r7, #0]
 8001c42:	1ad3      	subs	r3, r2, r3
 8001c44:	4618      	mov	r0, r3
 8001c46:	f7ff fccb 	bl	80015e0 <lfs_tag_id>
 8001c4a:	4603      	mov	r3, r0
                lfs_tag_type1(tag) == LFS_TYPE_SPLICE &&
 8001c4c:	429c      	cmp	r4, r3
 8001c4e:	d816      	bhi.n	8001c7e <lfs_dir_getslice+0x122>
            if (tag == (LFS_MKTAG(LFS_TYPE_CREATE, 0, 0) |
                    (LFS_MKTAG(0, 0x3ff, 0) & (gtag - gdiff)))) {
 8001c50:	6a3b      	ldr	r3, [r7, #32]
 8001c52:	683a      	ldr	r2, [r7, #0]
 8001c54:	1ad2      	subs	r2, r2, r3
 8001c56:	4b33      	ldr	r3, [pc, #204]	; (8001d24 <lfs_dir_getslice+0x1c8>)
 8001c58:	4013      	ands	r3, r2
            if (tag == (LFS_MKTAG(LFS_TYPE_CREATE, 0, 0) |
 8001c5a:	f043 4380 	orr.w	r3, r3, #1073741824	; 0x40000000
 8001c5e:	f443 1380 	orr.w	r3, r3, #1048576	; 0x100000
 8001c62:	69fa      	ldr	r2, [r7, #28]
 8001c64:	429a      	cmp	r2, r3
 8001c66:	d102      	bne.n	8001c6e <lfs_dir_getslice+0x112>
                // found where we were created
                return LFS_ERR_NOENT;
 8001c68:	f06f 0301 	mvn.w	r3, #1
 8001c6c:	e055      	b.n	8001d1a <lfs_dir_getslice+0x1be>
            }

            // move around splices
            gdiff += LFS_MKTAG(0, lfs_tag_splice(tag), 0);
 8001c6e:	69f8      	ldr	r0, [r7, #28]
 8001c70:	f7ff fca9 	bl	80015c6 <lfs_tag_splice>
 8001c74:	4603      	mov	r3, r0
 8001c76:	029a      	lsls	r2, r3, #10
 8001c78:	6a3b      	ldr	r3, [r7, #32]
 8001c7a:	4413      	add	r3, r2
 8001c7c:	623b      	str	r3, [r7, #32]
        }

        if ((gmask & tag) == (gmask & (gtag - gdiff))) {
 8001c7e:	6a3b      	ldr	r3, [r7, #32]
 8001c80:	683a      	ldr	r2, [r7, #0]
 8001c82:	1ad2      	subs	r2, r2, r3
 8001c84:	69fb      	ldr	r3, [r7, #28]
 8001c86:	405a      	eors	r2, r3
 8001c88:	687b      	ldr	r3, [r7, #4]
 8001c8a:	4013      	ands	r3, r2
 8001c8c:	2b00      	cmp	r3, #0
 8001c8e:	d138      	bne.n	8001d02 <lfs_dir_getslice+0x1a6>
            if (lfs_tag_isdelete(tag)) {
 8001c90:	69f8      	ldr	r0, [r7, #28]
 8001c92:	f7ff fc58 	bl	8001546 <lfs_tag_isdelete>
 8001c96:	4603      	mov	r3, r0
 8001c98:	2b00      	cmp	r3, #0
 8001c9a:	d002      	beq.n	8001ca2 <lfs_dir_getslice+0x146>
                return LFS_ERR_NOENT;
 8001c9c:	f06f 0301 	mvn.w	r3, #1
 8001ca0:	e03b      	b.n	8001d1a <lfs_dir_getslice+0x1be>
            }

            lfs_size_t diff = lfs_min(lfs_tag_size(tag), gsize);
 8001ca2:	69f8      	ldr	r0, [r7, #28]
 8001ca4:	f7ff fcac 	bl	8001600 <lfs_tag_size>
 8001ca8:	4603      	mov	r3, r0
 8001caa:	6c39      	ldr	r1, [r7, #64]	; 0x40
 8001cac:	4618      	mov	r0, r3
 8001cae:	f7fe ff91 	bl	8000bd4 <lfs_min>
 8001cb2:	6178      	str	r0, [r7, #20]
            err = lfs_bd_read(lfs,
 8001cb4:	68f8      	ldr	r0, [r7, #12]
 8001cb6:	68bb      	ldr	r3, [r7, #8]
 8001cb8:	681b      	ldr	r3, [r3, #0]
                    NULL, &lfs->rcache, diff,
                    dir->pair[0], off+sizeof(tag)+goff, gbuffer, diff);
 8001cba:	6a79      	ldr	r1, [r7, #36]	; 0x24
 8001cbc:	6bba      	ldr	r2, [r7, #56]	; 0x38
 8001cbe:	440a      	add	r2, r1
            err = lfs_bd_read(lfs,
 8001cc0:	3204      	adds	r2, #4
 8001cc2:	6979      	ldr	r1, [r7, #20]
 8001cc4:	9103      	str	r1, [sp, #12]
 8001cc6:	6bf9      	ldr	r1, [r7, #60]	; 0x3c
 8001cc8:	9102      	str	r1, [sp, #8]
 8001cca:	9201      	str	r2, [sp, #4]
 8001ccc:	9300      	str	r3, [sp, #0]
 8001cce:	697b      	ldr	r3, [r7, #20]
 8001cd0:	4602      	mov	r2, r0
 8001cd2:	2100      	movs	r1, #0
 8001cd4:	68f8      	ldr	r0, [r7, #12]
 8001cd6:	f7ff f859 	bl	8000d8c <lfs_bd_read>
 8001cda:	61b8      	str	r0, [r7, #24]
            if (err) {
 8001cdc:	69bb      	ldr	r3, [r7, #24]
 8001cde:	2b00      	cmp	r3, #0
 8001ce0:	d001      	beq.n	8001ce6 <lfs_dir_getslice+0x18a>
                return err;
 8001ce2:	69bb      	ldr	r3, [r7, #24]
 8001ce4:	e019      	b.n	8001d1a <lfs_dir_getslice+0x1be>
            }

            memset((uint8_t*)gbuffer + diff, 0, gsize - diff);
 8001ce6:	6bfa      	ldr	r2, [r7, #60]	; 0x3c
 8001ce8:	697b      	ldr	r3, [r7, #20]
 8001cea:	18d0      	adds	r0, r2, r3
 8001cec:	6c3a      	ldr	r2, [r7, #64]	; 0x40
 8001cee:	697b      	ldr	r3, [r7, #20]
 8001cf0:	1ad3      	subs	r3, r2, r3
 8001cf2:	461a      	mov	r2, r3
 8001cf4:	2100      	movs	r1, #0
 8001cf6:	f00a fcaf 	bl	800c658 <memset>

            return tag + gdiff;
 8001cfa:	6a3a      	ldr	r2, [r7, #32]
 8001cfc:	69fb      	ldr	r3, [r7, #28]
 8001cfe:	4413      	add	r3, r2
 8001d00:	e00b      	b.n	8001d1a <lfs_dir_getslice+0x1be>
    while (off >= sizeof(lfs_tag_t) + lfs_tag_dsize(ntag)) {
 8001d02:	693b      	ldr	r3, [r7, #16]
 8001d04:	4618      	mov	r0, r3
 8001d06:	f7ff fc88 	bl	800161a <lfs_tag_dsize>
 8001d0a:	4603      	mov	r3, r0
 8001d0c:	3304      	adds	r3, #4
 8001d0e:	6a7a      	ldr	r2, [r7, #36]	; 0x24
 8001d10:	429a      	cmp	r2, r3
 8001d12:	f4bf af57 	bcs.w	8001bc4 <lfs_dir_getslice+0x68>
        }
    }

    return LFS_ERR_NOENT;
 8001d16:	f06f 0301 	mvn.w	r3, #1
}
 8001d1a:	4618      	mov	r0, r3
 8001d1c:	372c      	adds	r7, #44	; 0x2c
 8001d1e:	46bd      	mov	sp, r7
 8001d20:	bd90      	pop	{r4, r7, pc}
 8001d22:	bf00      	nop
 8001d24:	000ffc00 	.word	0x000ffc00

08001d28 <lfs_dir_get>:

static lfs_stag_t lfs_dir_get(lfs_t *lfs, const lfs_mdir_t *dir,
        lfs_tag_t gmask, lfs_tag_t gtag, void *buffer) {
 8001d28:	b580      	push	{r7, lr}
 8001d2a:	b088      	sub	sp, #32
 8001d2c:	af04      	add	r7, sp, #16
 8001d2e:	60f8      	str	r0, [r7, #12]
 8001d30:	60b9      	str	r1, [r7, #8]
 8001d32:	607a      	str	r2, [r7, #4]
 8001d34:	603b      	str	r3, [r7, #0]
    return lfs_dir_getslice(lfs, dir,
 8001d36:	6838      	ldr	r0, [r7, #0]
 8001d38:	f7ff fc62 	bl	8001600 <lfs_tag_size>
 8001d3c:	4603      	mov	r3, r0
 8001d3e:	9302      	str	r3, [sp, #8]
 8001d40:	69bb      	ldr	r3, [r7, #24]
 8001d42:	9301      	str	r3, [sp, #4]
 8001d44:	2300      	movs	r3, #0
 8001d46:	9300      	str	r3, [sp, #0]
 8001d48:	683b      	ldr	r3, [r7, #0]
 8001d4a:	687a      	ldr	r2, [r7, #4]
 8001d4c:	68b9      	ldr	r1, [r7, #8]
 8001d4e:	68f8      	ldr	r0, [r7, #12]
 8001d50:	f7ff ff04 	bl	8001b5c <lfs_dir_getslice>
 8001d54:	4603      	mov	r3, r0
            gmask, gtag,
            0, buffer, lfs_tag_size(gtag));
}
 8001d56:	4618      	mov	r0, r3
 8001d58:	3710      	adds	r7, #16
 8001d5a:	46bd      	mov	sp, r7
 8001d5c:	bd80      	pop	{r7, pc}

08001d5e <lfs_dir_getread>:

static int lfs_dir_getread(lfs_t *lfs, const lfs_mdir_t *dir,
        const lfs_cache_t *pcache, lfs_cache_t *rcache, lfs_size_t hint,
        lfs_tag_t gmask, lfs_tag_t gtag,
        lfs_off_t off, void *buffer, lfs_size_t size) {
 8001d5e:	b580      	push	{r7, lr}
 8001d60:	b08c      	sub	sp, #48	; 0x30
 8001d62:	af04      	add	r7, sp, #16
 8001d64:	60f8      	str	r0, [r7, #12]
 8001d66:	60b9      	str	r1, [r7, #8]
 8001d68:	607a      	str	r2, [r7, #4]
 8001d6a:	603b      	str	r3, [r7, #0]
    uint8_t *data = buffer;
 8001d6c:	6bbb      	ldr	r3, [r7, #56]	; 0x38
 8001d6e:	61fb      	str	r3, [r7, #28]
    if (off+size > lfs->cfg->block_size) {
 8001d70:	6b7a      	ldr	r2, [r7, #52]	; 0x34
 8001d72:	6bfb      	ldr	r3, [r7, #60]	; 0x3c
 8001d74:	441a      	add	r2, r3
 8001d76:	68fb      	ldr	r3, [r7, #12]
 8001d78:	6e9b      	ldr	r3, [r3, #104]	; 0x68
 8001d7a:	69db      	ldr	r3, [r3, #28]
 8001d7c:	429a      	cmp	r2, r3
 8001d7e:	f240 80c0 	bls.w	8001f02 <lfs_dir_getread+0x1a4>
        return LFS_ERR_CORRUPT;
 8001d82:	f06f 0353 	mvn.w	r3, #83	; 0x53
 8001d86:	e0c1      	b.n	8001f0c <lfs_dir_getread+0x1ae>
    }

    while (size > 0) {
        lfs_size_t diff = size;
 8001d88:	6bfb      	ldr	r3, [r7, #60]	; 0x3c
 8001d8a:	61bb      	str	r3, [r7, #24]

        if (pcache && pcache->block == LFS_BLOCK_INLINE &&
 8001d8c:	687b      	ldr	r3, [r7, #4]
 8001d8e:	2b00      	cmp	r3, #0
 8001d90:	d03f      	beq.n	8001e12 <lfs_dir_getread+0xb4>
 8001d92:	687b      	ldr	r3, [r7, #4]
 8001d94:	681b      	ldr	r3, [r3, #0]
 8001d96:	f113 0f02 	cmn.w	r3, #2
 8001d9a:	d13a      	bne.n	8001e12 <lfs_dir_getread+0xb4>
                off < pcache->off + pcache->size) {
 8001d9c:	687b      	ldr	r3, [r7, #4]
 8001d9e:	685a      	ldr	r2, [r3, #4]
 8001da0:	687b      	ldr	r3, [r7, #4]
 8001da2:	689b      	ldr	r3, [r3, #8]
 8001da4:	4413      	add	r3, r2
        if (pcache && pcache->block == LFS_BLOCK_INLINE &&
 8001da6:	6b7a      	ldr	r2, [r7, #52]	; 0x34
 8001da8:	429a      	cmp	r2, r3
 8001daa:	d232      	bcs.n	8001e12 <lfs_dir_getread+0xb4>
            if (off >= pcache->off) {
 8001dac:	687b      	ldr	r3, [r7, #4]
 8001dae:	685b      	ldr	r3, [r3, #4]
 8001db0:	6b7a      	ldr	r2, [r7, #52]	; 0x34
 8001db2:	429a      	cmp	r2, r3
 8001db4:	d324      	bcc.n	8001e00 <lfs_dir_getread+0xa2>
                // is already in pcache?
                diff = lfs_min(diff, pcache->size - (off-pcache->off));
 8001db6:	687b      	ldr	r3, [r7, #4]
 8001db8:	689a      	ldr	r2, [r3, #8]
 8001dba:	687b      	ldr	r3, [r7, #4]
 8001dbc:	6859      	ldr	r1, [r3, #4]
 8001dbe:	6b7b      	ldr	r3, [r7, #52]	; 0x34
 8001dc0:	1acb      	subs	r3, r1, r3
 8001dc2:	4413      	add	r3, r2
 8001dc4:	4619      	mov	r1, r3
 8001dc6:	69b8      	ldr	r0, [r7, #24]
 8001dc8:	f7fe ff04 	bl	8000bd4 <lfs_min>
 8001dcc:	61b8      	str	r0, [r7, #24]
                memcpy(data, &pcache->buffer[off-pcache->off], diff);
 8001dce:	687b      	ldr	r3, [r7, #4]
 8001dd0:	68da      	ldr	r2, [r3, #12]
 8001dd2:	687b      	ldr	r3, [r7, #4]
 8001dd4:	685b      	ldr	r3, [r3, #4]
 8001dd6:	6b79      	ldr	r1, [r7, #52]	; 0x34
 8001dd8:	1acb      	subs	r3, r1, r3
 8001dda:	4413      	add	r3, r2
 8001ddc:	69ba      	ldr	r2, [r7, #24]
 8001dde:	4619      	mov	r1, r3
 8001de0:	69f8      	ldr	r0, [r7, #28]
 8001de2:	f00a fc2e 	bl	800c642 <memcpy>

                data += diff;
 8001de6:	69fa      	ldr	r2, [r7, #28]
 8001de8:	69bb      	ldr	r3, [r7, #24]
 8001dea:	4413      	add	r3, r2
 8001dec:	61fb      	str	r3, [r7, #28]
                off += diff;
 8001dee:	6b7a      	ldr	r2, [r7, #52]	; 0x34
 8001df0:	69bb      	ldr	r3, [r7, #24]
 8001df2:	4413      	add	r3, r2
 8001df4:	637b      	str	r3, [r7, #52]	; 0x34
                size -= diff;
 8001df6:	6bfa      	ldr	r2, [r7, #60]	; 0x3c
 8001df8:	69bb      	ldr	r3, [r7, #24]
 8001dfa:	1ad3      	subs	r3, r2, r3
 8001dfc:	63fb      	str	r3, [r7, #60]	; 0x3c
                continue;
 8001dfe:	e080      	b.n	8001f02 <lfs_dir_getread+0x1a4>
            }

            // pcache takes priority
            diff = lfs_min(diff, pcache->off-off);
 8001e00:	687b      	ldr	r3, [r7, #4]
 8001e02:	685a      	ldr	r2, [r3, #4]
 8001e04:	6b7b      	ldr	r3, [r7, #52]	; 0x34
 8001e06:	1ad3      	subs	r3, r2, r3
 8001e08:	4619      	mov	r1, r3
 8001e0a:	69b8      	ldr	r0, [r7, #24]
 8001e0c:	f7fe fee2 	bl	8000bd4 <lfs_min>
 8001e10:	61b8      	str	r0, [r7, #24]
        }

        if (rcache->block == LFS_BLOCK_INLINE &&
 8001e12:	683b      	ldr	r3, [r7, #0]
 8001e14:	681b      	ldr	r3, [r3, #0]
 8001e16:	f113 0f02 	cmn.w	r3, #2
 8001e1a:	d13a      	bne.n	8001e92 <lfs_dir_getread+0x134>
                off < rcache->off + rcache->size) {
 8001e1c:	683b      	ldr	r3, [r7, #0]
 8001e1e:	685a      	ldr	r2, [r3, #4]
 8001e20:	683b      	ldr	r3, [r7, #0]
 8001e22:	689b      	ldr	r3, [r3, #8]
 8001e24:	4413      	add	r3, r2
        if (rcache->block == LFS_BLOCK_INLINE &&
 8001e26:	6b7a      	ldr	r2, [r7, #52]	; 0x34
 8001e28:	429a      	cmp	r2, r3
 8001e2a:	d232      	bcs.n	8001e92 <lfs_dir_getread+0x134>
            if (off >= rcache->off) {
 8001e2c:	683b      	ldr	r3, [r7, #0]
 8001e2e:	685b      	ldr	r3, [r3, #4]
 8001e30:	6b7a      	ldr	r2, [r7, #52]	; 0x34
 8001e32:	429a      	cmp	r2, r3
 8001e34:	d324      	bcc.n	8001e80 <lfs_dir_getread+0x122>
                // is already in rcache?
                diff = lfs_min(diff, rcache->size - (off-rcache->off));
 8001e36:	683b      	ldr	r3, [r7, #0]
 8001e38:	689a      	ldr	r2, [r3, #8]
 8001e3a:	683b      	ldr	r3, [r7, #0]
 8001e3c:	6859      	ldr	r1, [r3, #4]
 8001e3e:	6b7b      	ldr	r3, [r7, #52]	; 0x34
 8001e40:	1acb      	subs	r3, r1, r3
 8001e42:	4413      	add	r3, r2
 8001e44:	4619      	mov	r1, r3
 8001e46:	69b8      	ldr	r0, [r7, #24]
 8001e48:	f7fe fec4 	bl	8000bd4 <lfs_min>
 8001e4c:	61b8      	str	r0, [r7, #24]
                memcpy(data, &rcache->buffer[off-rcache->off], diff);
 8001e4e:	683b      	ldr	r3, [r7, #0]
 8001e50:	68da      	ldr	r2, [r3, #12]
 8001e52:	683b      	ldr	r3, [r7, #0]
 8001e54:	685b      	ldr	r3, [r3, #4]
 8001e56:	6b79      	ldr	r1, [r7, #52]	; 0x34
 8001e58:	1acb      	subs	r3, r1, r3
 8001e5a:	4413      	add	r3, r2
 8001e5c:	69ba      	ldr	r2, [r7, #24]
 8001e5e:	4619      	mov	r1, r3
 8001e60:	69f8      	ldr	r0, [r7, #28]
 8001e62:	f00a fbee 	bl	800c642 <memcpy>

                data += diff;
 8001e66:	69fa      	ldr	r2, [r7, #28]
 8001e68:	69bb      	ldr	r3, [r7, #24]
 8001e6a:	4413      	add	r3, r2
 8001e6c:	61fb      	str	r3, [r7, #28]
                off += diff;
 8001e6e:	6b7a      	ldr	r2, [r7, #52]	; 0x34
 8001e70:	69bb      	ldr	r3, [r7, #24]
 8001e72:	4413      	add	r3, r2
 8001e74:	637b      	str	r3, [r7, #52]	; 0x34
                size -= diff;
 8001e76:	6bfa      	ldr	r2, [r7, #60]	; 0x3c
 8001e78:	69bb      	ldr	r3, [r7, #24]
 8001e7a:	1ad3      	subs	r3, r2, r3
 8001e7c:	63fb      	str	r3, [r7, #60]	; 0x3c
                continue;
 8001e7e:	e040      	b.n	8001f02 <lfs_dir_getread+0x1a4>
            }

            // rcache takes priority
            diff = lfs_min(diff, rcache->off-off);
 8001e80:	683b      	ldr	r3, [r7, #0]
 8001e82:	685a      	ldr	r2, [r3, #4]
 8001e84:	6b7b      	ldr	r3, [r7, #52]	; 0x34
 8001e86:	1ad3      	subs	r3, r2, r3
 8001e88:	4619      	mov	r1, r3
 8001e8a:	69b8      	ldr	r0, [r7, #24]
 8001e8c:	f7fe fea2 	bl	8000bd4 <lfs_min>
 8001e90:	61b8      	str	r0, [r7, #24]
        }

        // load to cache, first condition can no longer fail
        rcache->block = LFS_BLOCK_INLINE;
 8001e92:	683b      	ldr	r3, [r7, #0]
 8001e94:	f06f 0201 	mvn.w	r2, #1
 8001e98:	601a      	str	r2, [r3, #0]
        rcache->off = lfs_aligndown(off, lfs->cfg->read_size);
 8001e9a:	68fb      	ldr	r3, [r7, #12]
 8001e9c:	6e9b      	ldr	r3, [r3, #104]	; 0x68
 8001e9e:	695b      	ldr	r3, [r3, #20]
 8001ea0:	4619      	mov	r1, r3
 8001ea2:	6b78      	ldr	r0, [r7, #52]	; 0x34
 8001ea4:	f7fe fea6 	bl	8000bf4 <lfs_aligndown>
 8001ea8:	4602      	mov	r2, r0
 8001eaa:	683b      	ldr	r3, [r7, #0]
 8001eac:	605a      	str	r2, [r3, #4]
        rcache->size = lfs_min(lfs_alignup(off+hint, lfs->cfg->read_size),
 8001eae:	6b7a      	ldr	r2, [r7, #52]	; 0x34
 8001eb0:	6abb      	ldr	r3, [r7, #40]	; 0x28
 8001eb2:	441a      	add	r2, r3
 8001eb4:	68fb      	ldr	r3, [r7, #12]
 8001eb6:	6e9b      	ldr	r3, [r3, #104]	; 0x68
 8001eb8:	695b      	ldr	r3, [r3, #20]
 8001eba:	4619      	mov	r1, r3
 8001ebc:	4610      	mov	r0, r2
 8001ebe:	f7fe feae 	bl	8000c1e <lfs_alignup>
 8001ec2:	4602      	mov	r2, r0
                lfs->cfg->cache_size);
 8001ec4:	68fb      	ldr	r3, [r7, #12]
 8001ec6:	6e9b      	ldr	r3, [r3, #104]	; 0x68
        rcache->size = lfs_min(lfs_alignup(off+hint, lfs->cfg->read_size),
 8001ec8:	6a9b      	ldr	r3, [r3, #40]	; 0x28
 8001eca:	4619      	mov	r1, r3
 8001ecc:	4610      	mov	r0, r2
 8001ece:	f7fe fe81 	bl	8000bd4 <lfs_min>
 8001ed2:	4602      	mov	r2, r0
 8001ed4:	683b      	ldr	r3, [r7, #0]
 8001ed6:	609a      	str	r2, [r3, #8]
        int err = lfs_dir_getslice(lfs, dir, gmask, gtag,
 8001ed8:	683b      	ldr	r3, [r7, #0]
 8001eda:	685b      	ldr	r3, [r3, #4]
                rcache->off, rcache->buffer, rcache->size);
 8001edc:	683a      	ldr	r2, [r7, #0]
 8001ede:	68d2      	ldr	r2, [r2, #12]
        int err = lfs_dir_getslice(lfs, dir, gmask, gtag,
 8001ee0:	6839      	ldr	r1, [r7, #0]
 8001ee2:	6889      	ldr	r1, [r1, #8]
 8001ee4:	9102      	str	r1, [sp, #8]
 8001ee6:	9201      	str	r2, [sp, #4]
 8001ee8:	9300      	str	r3, [sp, #0]
 8001eea:	6b3b      	ldr	r3, [r7, #48]	; 0x30
 8001eec:	6afa      	ldr	r2, [r7, #44]	; 0x2c
 8001eee:	68b9      	ldr	r1, [r7, #8]
 8001ef0:	68f8      	ldr	r0, [r7, #12]
 8001ef2:	f7ff fe33 	bl	8001b5c <lfs_dir_getslice>
 8001ef6:	6178      	str	r0, [r7, #20]
        if (err < 0) {
 8001ef8:	697b      	ldr	r3, [r7, #20]
 8001efa:	2b00      	cmp	r3, #0
 8001efc:	da01      	bge.n	8001f02 <lfs_dir_getread+0x1a4>
            return err;
 8001efe:	697b      	ldr	r3, [r7, #20]
 8001f00:	e004      	b.n	8001f0c <lfs_dir_getread+0x1ae>
    while (size > 0) {
 8001f02:	6bfb      	ldr	r3, [r7, #60]	; 0x3c
 8001f04:	2b00      	cmp	r3, #0
 8001f06:	f47f af3f 	bne.w	8001d88 <lfs_dir_getread+0x2a>
        }
    }

    return 0;
 8001f0a:	2300      	movs	r3, #0
}
 8001f0c:	4618      	mov	r0, r3
 8001f0e:	3720      	adds	r7, #32
 8001f10:	46bd      	mov	sp, r7
 8001f12:	bd80      	pop	{r7, pc}

08001f14 <lfs_dir_traverse_filter>:

static int lfs_dir_traverse_filter(void *p,
        lfs_tag_t tag, const void *buffer) {
 8001f14:	b590      	push	{r4, r7, lr}
 8001f16:	b087      	sub	sp, #28
 8001f18:	af00      	add	r7, sp, #0
 8001f1a:	60f8      	str	r0, [r7, #12]
 8001f1c:	60b9      	str	r1, [r7, #8]
 8001f1e:	607a      	str	r2, [r7, #4]
    lfs_tag_t *filtertag = p;
 8001f20:	68fb      	ldr	r3, [r7, #12]
 8001f22:	617b      	str	r3, [r7, #20]
    (void)buffer;

    // which mask depends on unique bit in tag structure
    uint32_t mask = (tag & LFS_MKTAG(0x100, 0, 0))
 8001f24:	68bb      	ldr	r3, [r7, #8]
 8001f26:	f003 5380 	and.w	r3, r3, #268435456	; 0x10000000
            ? LFS_MKTAG(0x7ff, 0x3ff, 0)
            : LFS_MKTAG(0x700, 0x3ff, 0);
 8001f2a:	2b00      	cmp	r3, #0
 8001f2c:	d001      	beq.n	8001f32 <lfs_dir_traverse_filter+0x1e>
 8001f2e:	4b23      	ldr	r3, [pc, #140]	; (8001fbc <lfs_dir_traverse_filter+0xa8>)
 8001f30:	e000      	b.n	8001f34 <lfs_dir_traverse_filter+0x20>
 8001f32:	4b23      	ldr	r3, [pc, #140]	; (8001fc0 <lfs_dir_traverse_filter+0xac>)
    uint32_t mask = (tag & LFS_MKTAG(0x100, 0, 0))
 8001f34:	613b      	str	r3, [r7, #16]

    // check for redundancy
    if ((mask & tag) == (mask & *filtertag) ||
 8001f36:	697b      	ldr	r3, [r7, #20]
 8001f38:	681a      	ldr	r2, [r3, #0]
 8001f3a:	68bb      	ldr	r3, [r7, #8]
 8001f3c:	405a      	eors	r2, r3
 8001f3e:	693b      	ldr	r3, [r7, #16]
 8001f40:	4013      	ands	r3, r2
 8001f42:	2b00      	cmp	r3, #0
 8001f44:	d014      	beq.n	8001f70 <lfs_dir_traverse_filter+0x5c>
            lfs_tag_isdelete(*filtertag) ||
 8001f46:	697b      	ldr	r3, [r7, #20]
 8001f48:	681b      	ldr	r3, [r3, #0]
 8001f4a:	4618      	mov	r0, r3
 8001f4c:	f7ff fafb 	bl	8001546 <lfs_tag_isdelete>
 8001f50:	4603      	mov	r3, r0
    if ((mask & tag) == (mask & *filtertag) ||
 8001f52:	2b00      	cmp	r3, #0
 8001f54:	d10c      	bne.n	8001f70 <lfs_dir_traverse_filter+0x5c>
            (LFS_MKTAG(0x7ff, 0x3ff, 0) & tag) == (
 8001f56:	68bb      	ldr	r3, [r7, #8]
 8001f58:	4a18      	ldr	r2, [pc, #96]	; (8001fbc <lfs_dir_traverse_filter+0xa8>)
 8001f5a:	401a      	ands	r2, r3
                LFS_MKTAG(LFS_TYPE_DELETE, 0, 0) |
                    (LFS_MKTAG(0, 0x3ff, 0) & *filtertag))) {
 8001f5c:	697b      	ldr	r3, [r7, #20]
 8001f5e:	6819      	ldr	r1, [r3, #0]
 8001f60:	4b18      	ldr	r3, [pc, #96]	; (8001fc4 <lfs_dir_traverse_filter+0xb0>)
 8001f62:	400b      	ands	r3, r1
                LFS_MKTAG(LFS_TYPE_DELETE, 0, 0) |
 8001f64:	f043 439f 	orr.w	r3, r3, #1333788672	; 0x4f800000
 8001f68:	f443 03e0 	orr.w	r3, r3, #7340032	; 0x700000
            lfs_tag_isdelete(*filtertag) ||
 8001f6c:	429a      	cmp	r2, r3
 8001f6e:	d101      	bne.n	8001f74 <lfs_dir_traverse_filter+0x60>
        return true;
 8001f70:	2301      	movs	r3, #1
 8001f72:	e01e      	b.n	8001fb2 <lfs_dir_traverse_filter+0x9e>
    }

    // check if we need to adjust for created/deleted tags
    if (lfs_tag_type1(tag) == LFS_TYPE_SPLICE &&
 8001f74:	68b8      	ldr	r0, [r7, #8]
 8001f76:	f7ff faf9 	bl	800156c <lfs_tag_type1>
 8001f7a:	4603      	mov	r3, r0
 8001f7c:	f5b3 6f80 	cmp.w	r3, #1024	; 0x400
 8001f80:	d116      	bne.n	8001fb0 <lfs_dir_traverse_filter+0x9c>
            lfs_tag_id(tag) <= lfs_tag_id(*filtertag)) {
 8001f82:	68b8      	ldr	r0, [r7, #8]
 8001f84:	f7ff fb2c 	bl	80015e0 <lfs_tag_id>
 8001f88:	4603      	mov	r3, r0
 8001f8a:	461c      	mov	r4, r3
 8001f8c:	697b      	ldr	r3, [r7, #20]
 8001f8e:	681b      	ldr	r3, [r3, #0]
 8001f90:	4618      	mov	r0, r3
 8001f92:	f7ff fb25 	bl	80015e0 <lfs_tag_id>
 8001f96:	4603      	mov	r3, r0
    if (lfs_tag_type1(tag) == LFS_TYPE_SPLICE &&
 8001f98:	429c      	cmp	r4, r3
 8001f9a:	d809      	bhi.n	8001fb0 <lfs_dir_traverse_filter+0x9c>
        *filtertag += LFS_MKTAG(0, lfs_tag_splice(tag), 0);
 8001f9c:	68b8      	ldr	r0, [r7, #8]
 8001f9e:	f7ff fb12 	bl	80015c6 <lfs_tag_splice>
 8001fa2:	4603      	mov	r3, r0
 8001fa4:	029a      	lsls	r2, r3, #10
 8001fa6:	697b      	ldr	r3, [r7, #20]
 8001fa8:	681b      	ldr	r3, [r3, #0]
 8001faa:	441a      	add	r2, r3
 8001fac:	697b      	ldr	r3, [r7, #20]
 8001fae:	601a      	str	r2, [r3, #0]
    }

    return false;
 8001fb0:	2300      	movs	r3, #0
}
 8001fb2:	4618      	mov	r0, r3
 8001fb4:	371c      	adds	r7, #28
 8001fb6:	46bd      	mov	sp, r7
 8001fb8:	bd90      	pop	{r4, r7, pc}
 8001fba:	bf00      	nop
 8001fbc:	7ffffc00 	.word	0x7ffffc00
 8001fc0:	700ffc00 	.word	0x700ffc00
 8001fc4:	000ffc00 	.word	0x000ffc00

08001fc8 <lfs_dir_traverse>:
static int lfs_dir_traverse(lfs_t *lfs,
        const lfs_mdir_t *dir, lfs_off_t off, lfs_tag_t ptag,
        const struct lfs_mattr *attrs, int attrcount,
        lfs_tag_t tmask, lfs_tag_t ttag,
        uint16_t begin, uint16_t end, int16_t diff,
        int (*cb)(void *data, lfs_tag_t tag, const void *buffer), void *data) {
 8001fc8:	b590      	push	{r4, r7, lr}
 8001fca:	b09d      	sub	sp, #116	; 0x74
 8001fcc:	af0a      	add	r7, sp, #40	; 0x28
 8001fce:	60f8      	str	r0, [r7, #12]
 8001fd0:	60b9      	str	r1, [r7, #8]
 8001fd2:	607a      	str	r2, [r7, #4]
 8001fd4:	603b      	str	r3, [r7, #0]
    // iterate over directory and attrs
    while (true) {
        lfs_tag_t tag;
        const void *buffer;
        struct lfs_diskoff disk;
        if (off+lfs_tag_dsize(ptag) < dir->off) {
 8001fd6:	6838      	ldr	r0, [r7, #0]
 8001fd8:	f7ff fb1f 	bl	800161a <lfs_tag_dsize>
 8001fdc:	4602      	mov	r2, r0
 8001fde:	687b      	ldr	r3, [r7, #4]
 8001fe0:	441a      	add	r2, r3
 8001fe2:	68bb      	ldr	r3, [r7, #8]
 8001fe4:	68db      	ldr	r3, [r3, #12]
 8001fe6:	429a      	cmp	r2, r3
 8001fe8:	d233      	bcs.n	8002052 <lfs_dir_traverse+0x8a>
            off += lfs_tag_dsize(ptag);
 8001fea:	6838      	ldr	r0, [r7, #0]
 8001fec:	f7ff fb15 	bl	800161a <lfs_tag_dsize>
 8001ff0:	4602      	mov	r2, r0
 8001ff2:	687b      	ldr	r3, [r7, #4]
 8001ff4:	4413      	add	r3, r2
 8001ff6:	607b      	str	r3, [r7, #4]
            int err = lfs_bd_read(lfs,
 8001ff8:	68f9      	ldr	r1, [r7, #12]
 8001ffa:	68bb      	ldr	r3, [r7, #8]
 8001ffc:	681b      	ldr	r3, [r3, #0]
 8001ffe:	2204      	movs	r2, #4
 8002000:	9203      	str	r2, [sp, #12]
 8002002:	f107 021c 	add.w	r2, r7, #28
 8002006:	9202      	str	r2, [sp, #8]
 8002008:	687a      	ldr	r2, [r7, #4]
 800200a:	9201      	str	r2, [sp, #4]
 800200c:	9300      	str	r3, [sp, #0]
 800200e:	2304      	movs	r3, #4
 8002010:	460a      	mov	r2, r1
 8002012:	2100      	movs	r1, #0
 8002014:	68f8      	ldr	r0, [r7, #12]
 8002016:	f7fe feb9 	bl	8000d8c <lfs_bd_read>
 800201a:	63f8      	str	r0, [r7, #60]	; 0x3c
                    NULL, &lfs->rcache, sizeof(tag),
                    dir->pair[0], off, &tag, sizeof(tag));
            if (err) {
 800201c:	6bfb      	ldr	r3, [r7, #60]	; 0x3c
 800201e:	2b00      	cmp	r3, #0
 8002020:	d001      	beq.n	8002026 <lfs_dir_traverse+0x5e>
                return err;
 8002022:	6bfb      	ldr	r3, [r7, #60]	; 0x3c
 8002024:	e11e      	b.n	8002264 <lfs_dir_traverse+0x29c>
            }

            tag = (lfs_frombe32(tag) ^ ptag) | 0x80000000;
 8002026:	69fb      	ldr	r3, [r7, #28]
 8002028:	4618      	mov	r0, r3
 800202a:	f7fe fe5a 	bl	8000ce2 <lfs_frombe32>
 800202e:	4602      	mov	r2, r0
 8002030:	683b      	ldr	r3, [r7, #0]
 8002032:	4053      	eors	r3, r2
 8002034:	f043 4300 	orr.w	r3, r3, #2147483648	; 0x80000000
 8002038:	61fb      	str	r3, [r7, #28]
            disk.block = dir->pair[0];
 800203a:	68bb      	ldr	r3, [r7, #8]
 800203c:	681b      	ldr	r3, [r3, #0]
 800203e:	617b      	str	r3, [r7, #20]
            disk.off = off+sizeof(lfs_tag_t);
 8002040:	687b      	ldr	r3, [r7, #4]
 8002042:	3304      	adds	r3, #4
 8002044:	61bb      	str	r3, [r7, #24]
            buffer = &disk;
 8002046:	f107 0314 	add.w	r3, r7, #20
 800204a:	647b      	str	r3, [r7, #68]	; 0x44
            ptag = tag;
 800204c:	69fb      	ldr	r3, [r7, #28]
 800204e:	603b      	str	r3, [r7, #0]
 8002050:	e011      	b.n	8002076 <lfs_dir_traverse+0xae>
        } else if (attrcount > 0) {
 8002052:	6dfb      	ldr	r3, [r7, #92]	; 0x5c
 8002054:	2b00      	cmp	r3, #0
 8002056:	dd0c      	ble.n	8002072 <lfs_dir_traverse+0xaa>
            tag = attrs[0].tag;
 8002058:	6dbb      	ldr	r3, [r7, #88]	; 0x58
 800205a:	681b      	ldr	r3, [r3, #0]
 800205c:	61fb      	str	r3, [r7, #28]
            buffer = attrs[0].buffer;
 800205e:	6dbb      	ldr	r3, [r7, #88]	; 0x58
 8002060:	685b      	ldr	r3, [r3, #4]
 8002062:	647b      	str	r3, [r7, #68]	; 0x44
            attrs += 1;
 8002064:	6dbb      	ldr	r3, [r7, #88]	; 0x58
 8002066:	3308      	adds	r3, #8
 8002068:	65bb      	str	r3, [r7, #88]	; 0x58
            attrcount -= 1;
 800206a:	6dfb      	ldr	r3, [r7, #92]	; 0x5c
 800206c:	3b01      	subs	r3, #1
 800206e:	65fb      	str	r3, [r7, #92]	; 0x5c
 8002070:	e001      	b.n	8002076 <lfs_dir_traverse+0xae>
        } else {
            return 0;
 8002072:	2300      	movs	r3, #0
 8002074:	e0f6      	b.n	8002264 <lfs_dir_traverse+0x29c>
        }

        lfs_tag_t mask = LFS_MKTAG(0x7ff, 0, 0);
 8002076:	4b7d      	ldr	r3, [pc, #500]	; (800226c <lfs_dir_traverse+0x2a4>)
 8002078:	63bb      	str	r3, [r7, #56]	; 0x38
        if ((mask & tmask & tag) != (mask & tmask & ttag)) {
 800207a:	69fa      	ldr	r2, [r7, #28]
 800207c:	6e7b      	ldr	r3, [r7, #100]	; 0x64
 800207e:	405a      	eors	r2, r3
 8002080:	6bb9      	ldr	r1, [r7, #56]	; 0x38
 8002082:	6e3b      	ldr	r3, [r7, #96]	; 0x60
 8002084:	400b      	ands	r3, r1
 8002086:	4013      	ands	r3, r2
 8002088:	2b00      	cmp	r3, #0
 800208a:	f040 80e5 	bne.w	8002258 <lfs_dir_traverse+0x290>
            continue;
        }

        // do we need to filter? inlining the filtering logic here allows
        // for some minor optimizations
        if (lfs_tag_id(tmask) != 0) {
 800208e:	6e38      	ldr	r0, [r7, #96]	; 0x60
 8002090:	f7ff faa6 	bl	80015e0 <lfs_tag_id>
 8002094:	4603      	mov	r3, r0
 8002096:	2b00      	cmp	r3, #0
 8002098:	d038      	beq.n	800210c <lfs_dir_traverse+0x144>
            // scan for duplicates and update tag based on creates/deletes
            int filter = lfs_dir_traverse(lfs,
 800209a:	f107 031c 	add.w	r3, r7, #28
 800209e:	9308      	str	r3, [sp, #32]
 80020a0:	4b73      	ldr	r3, [pc, #460]	; (8002270 <lfs_dir_traverse+0x2a8>)
 80020a2:	9307      	str	r3, [sp, #28]
 80020a4:	2300      	movs	r3, #0
 80020a6:	9306      	str	r3, [sp, #24]
 80020a8:	2300      	movs	r3, #0
 80020aa:	9305      	str	r3, [sp, #20]
 80020ac:	2300      	movs	r3, #0
 80020ae:	9304      	str	r3, [sp, #16]
 80020b0:	2300      	movs	r3, #0
 80020b2:	9303      	str	r3, [sp, #12]
 80020b4:	2300      	movs	r3, #0
 80020b6:	9302      	str	r3, [sp, #8]
 80020b8:	6dfb      	ldr	r3, [r7, #92]	; 0x5c
 80020ba:	9301      	str	r3, [sp, #4]
 80020bc:	6dbb      	ldr	r3, [r7, #88]	; 0x58
 80020be:	9300      	str	r3, [sp, #0]
 80020c0:	683b      	ldr	r3, [r7, #0]
 80020c2:	687a      	ldr	r2, [r7, #4]
 80020c4:	68b9      	ldr	r1, [r7, #8]
 80020c6:	68f8      	ldr	r0, [r7, #12]
 80020c8:	f7ff ff7e 	bl	8001fc8 <lfs_dir_traverse>
 80020cc:	6378      	str	r0, [r7, #52]	; 0x34
                    dir, off, ptag, attrs, attrcount,
                    0, 0, 0, 0, 0,
                    lfs_dir_traverse_filter, &tag);
            if (filter < 0) {
 80020ce:	6b7b      	ldr	r3, [r7, #52]	; 0x34
 80020d0:	2b00      	cmp	r3, #0
 80020d2:	da01      	bge.n	80020d8 <lfs_dir_traverse+0x110>
                return filter;
 80020d4:	6b7b      	ldr	r3, [r7, #52]	; 0x34
 80020d6:	e0c5      	b.n	8002264 <lfs_dir_traverse+0x29c>
            }

            if (filter) {
 80020d8:	6b7b      	ldr	r3, [r7, #52]	; 0x34
 80020da:	2b00      	cmp	r3, #0
 80020dc:	f040 80be 	bne.w	800225c <lfs_dir_traverse+0x294>
                continue;
            }

            // in filter range?
            if (!(lfs_tag_id(tag) >= begin && lfs_tag_id(tag) < end)) {
 80020e0:	69fb      	ldr	r3, [r7, #28]
 80020e2:	4618      	mov	r0, r3
 80020e4:	f7ff fa7c 	bl	80015e0 <lfs_tag_id>
 80020e8:	4603      	mov	r3, r0
 80020ea:	461a      	mov	r2, r3
 80020ec:	f8b7 3068 	ldrh.w	r3, [r7, #104]	; 0x68
 80020f0:	4293      	cmp	r3, r2
 80020f2:	f200 80b5 	bhi.w	8002260 <lfs_dir_traverse+0x298>
 80020f6:	69fb      	ldr	r3, [r7, #28]
 80020f8:	4618      	mov	r0, r3
 80020fa:	f7ff fa71 	bl	80015e0 <lfs_tag_id>
 80020fe:	4603      	mov	r3, r0
 8002100:	461a      	mov	r2, r3
 8002102:	f8b7 306c 	ldrh.w	r3, [r7, #108]	; 0x6c
 8002106:	4293      	cmp	r3, r2
 8002108:	f240 80aa 	bls.w	8002260 <lfs_dir_traverse+0x298>
                continue;
            }
        }

        // handle special cases for mcu-side operations
        if (lfs_tag_type3(tag) == LFS_FROM_NOOP) {
 800210c:	69fb      	ldr	r3, [r7, #28]
 800210e:	4618      	mov	r0, r3
 8002110:	f7ff fa3c 	bl	800158c <lfs_tag_type3>
 8002114:	4603      	mov	r3, r0
 8002116:	2b00      	cmp	r3, #0
 8002118:	f43f af5d 	beq.w	8001fd6 <lfs_dir_traverse+0xe>
            // do nothing
        } else if (lfs_tag_type3(tag) == LFS_FROM_MOVE) {
 800211c:	69fb      	ldr	r3, [r7, #28]
 800211e:	4618      	mov	r0, r3
 8002120:	f7ff fa34 	bl	800158c <lfs_tag_type3>
 8002124:	4603      	mov	r3, r0
 8002126:	461a      	mov	r2, r3
 8002128:	f240 1301 	movw	r3, #257	; 0x101
 800212c:	429a      	cmp	r2, r3
 800212e:	d136      	bne.n	800219e <lfs_dir_traverse+0x1d6>
            uint16_t fromid = lfs_tag_size(tag);
 8002130:	69fb      	ldr	r3, [r7, #28]
 8002132:	4618      	mov	r0, r3
 8002134:	f7ff fa64 	bl	8001600 <lfs_tag_size>
 8002138:	4603      	mov	r3, r0
 800213a:	84fb      	strh	r3, [r7, #38]	; 0x26
            uint16_t toid = lfs_tag_id(tag);
 800213c:	69fb      	ldr	r3, [r7, #28]
 800213e:	4618      	mov	r0, r3
 8002140:	f7ff fa4e 	bl	80015e0 <lfs_tag_id>
 8002144:	4603      	mov	r3, r0
 8002146:	84bb      	strh	r3, [r7, #36]	; 0x24
            int err = lfs_dir_traverse(lfs,
 8002148:	8cfb      	ldrh	r3, [r7, #38]	; 0x26
 800214a:	3301      	adds	r3, #1
 800214c:	b29b      	uxth	r3, r3
                    buffer, 0, 0xffffffff, NULL, 0,
                    LFS_MKTAG(0x600, 0x3ff, 0),
                    LFS_MKTAG(LFS_TYPE_STRUCT, 0, 0),
                    fromid, fromid+1, toid-fromid+diff,
 800214e:	8cb9      	ldrh	r1, [r7, #36]	; 0x24
 8002150:	8cfa      	ldrh	r2, [r7, #38]	; 0x26
 8002152:	1a8a      	subs	r2, r1, r2
 8002154:	b291      	uxth	r1, r2
 8002156:	f8b7 2070 	ldrh.w	r2, [r7, #112]	; 0x70
 800215a:	440a      	add	r2, r1
 800215c:	b292      	uxth	r2, r2
            int err = lfs_dir_traverse(lfs,
 800215e:	b212      	sxth	r2, r2
 8002160:	6fb9      	ldr	r1, [r7, #120]	; 0x78
 8002162:	9108      	str	r1, [sp, #32]
 8002164:	6f79      	ldr	r1, [r7, #116]	; 0x74
 8002166:	9107      	str	r1, [sp, #28]
 8002168:	9206      	str	r2, [sp, #24]
 800216a:	9305      	str	r3, [sp, #20]
 800216c:	8cfb      	ldrh	r3, [r7, #38]	; 0x26
 800216e:	9304      	str	r3, [sp, #16]
 8002170:	f04f 5300 	mov.w	r3, #536870912	; 0x20000000
 8002174:	9303      	str	r3, [sp, #12]
 8002176:	4b3f      	ldr	r3, [pc, #252]	; (8002274 <lfs_dir_traverse+0x2ac>)
 8002178:	9302      	str	r3, [sp, #8]
 800217a:	2300      	movs	r3, #0
 800217c:	9301      	str	r3, [sp, #4]
 800217e:	2300      	movs	r3, #0
 8002180:	9300      	str	r3, [sp, #0]
 8002182:	f04f 33ff 	mov.w	r3, #4294967295
 8002186:	2200      	movs	r2, #0
 8002188:	6c79      	ldr	r1, [r7, #68]	; 0x44
 800218a:	68f8      	ldr	r0, [r7, #12]
 800218c:	f7ff ff1c 	bl	8001fc8 <lfs_dir_traverse>
 8002190:	6238      	str	r0, [r7, #32]
                    cb, data);
            if (err) {
 8002192:	6a3b      	ldr	r3, [r7, #32]
 8002194:	2b00      	cmp	r3, #0
 8002196:	f43f af1e 	beq.w	8001fd6 <lfs_dir_traverse+0xe>
                return err;
 800219a:	6a3b      	ldr	r3, [r7, #32]
 800219c:	e062      	b.n	8002264 <lfs_dir_traverse+0x29c>
            }
        } else if (lfs_tag_type3(tag) == LFS_FROM_USERATTRS) {
 800219e:	69fb      	ldr	r3, [r7, #28]
 80021a0:	4618      	mov	r0, r3
 80021a2:	f7ff f9f3 	bl	800158c <lfs_tag_type3>
 80021a6:	4603      	mov	r3, r0
 80021a8:	f5b3 7f81 	cmp.w	r3, #258	; 0x102
 80021ac:	d144      	bne.n	8002238 <lfs_dir_traverse+0x270>
            for (unsigned i = 0; i < lfs_tag_size(tag); i++) {
 80021ae:	2300      	movs	r3, #0
 80021b0:	643b      	str	r3, [r7, #64]	; 0x40
 80021b2:	e038      	b.n	8002226 <lfs_dir_traverse+0x25e>
                const struct lfs_attr *a = buffer;
 80021b4:	6c7b      	ldr	r3, [r7, #68]	; 0x44
 80021b6:	62fb      	str	r3, [r7, #44]	; 0x2c
                int err = cb(data, LFS_MKTAG(LFS_TYPE_USERATTR + a[i].type,
 80021b8:	6c3a      	ldr	r2, [r7, #64]	; 0x40
 80021ba:	4613      	mov	r3, r2
 80021bc:	005b      	lsls	r3, r3, #1
 80021be:	4413      	add	r3, r2
 80021c0:	009b      	lsls	r3, r3, #2
 80021c2:	461a      	mov	r2, r3
 80021c4:	6afb      	ldr	r3, [r7, #44]	; 0x2c
 80021c6:	4413      	add	r3, r2
 80021c8:	781b      	ldrb	r3, [r3, #0]
 80021ca:	f503 7340 	add.w	r3, r3, #768	; 0x300
 80021ce:	051c      	lsls	r4, r3, #20
 80021d0:	69fb      	ldr	r3, [r7, #28]
 80021d2:	4618      	mov	r0, r3
 80021d4:	f7ff fa04 	bl	80015e0 <lfs_tag_id>
 80021d8:	4603      	mov	r3, r0
 80021da:	461a      	mov	r2, r3
 80021dc:	f9b7 3070 	ldrsh.w	r3, [r7, #112]	; 0x70
 80021e0:	4413      	add	r3, r2
 80021e2:	029b      	lsls	r3, r3, #10
 80021e4:	ea44 0103 	orr.w	r1, r4, r3
 80021e8:	6c3a      	ldr	r2, [r7, #64]	; 0x40
 80021ea:	4613      	mov	r3, r2
 80021ec:	005b      	lsls	r3, r3, #1
 80021ee:	4413      	add	r3, r2
 80021f0:	009b      	lsls	r3, r3, #2
 80021f2:	461a      	mov	r2, r3
 80021f4:	6afb      	ldr	r3, [r7, #44]	; 0x2c
 80021f6:	4413      	add	r3, r2
 80021f8:	689b      	ldr	r3, [r3, #8]
 80021fa:	4319      	orrs	r1, r3
                        lfs_tag_id(tag) + diff, a[i].size), a[i].buffer);
 80021fc:	6c3a      	ldr	r2, [r7, #64]	; 0x40
 80021fe:	4613      	mov	r3, r2
 8002200:	005b      	lsls	r3, r3, #1
 8002202:	4413      	add	r3, r2
 8002204:	009b      	lsls	r3, r3, #2
 8002206:	461a      	mov	r2, r3
 8002208:	6afb      	ldr	r3, [r7, #44]	; 0x2c
 800220a:	4413      	add	r3, r2
 800220c:	685a      	ldr	r2, [r3, #4]
                int err = cb(data, LFS_MKTAG(LFS_TYPE_USERATTR + a[i].type,
 800220e:	6f7b      	ldr	r3, [r7, #116]	; 0x74
 8002210:	6fb8      	ldr	r0, [r7, #120]	; 0x78
 8002212:	4798      	blx	r3
 8002214:	62b8      	str	r0, [r7, #40]	; 0x28
                if (err) {
 8002216:	6abb      	ldr	r3, [r7, #40]	; 0x28
 8002218:	2b00      	cmp	r3, #0
 800221a:	d001      	beq.n	8002220 <lfs_dir_traverse+0x258>
                    return err;
 800221c:	6abb      	ldr	r3, [r7, #40]	; 0x28
 800221e:	e021      	b.n	8002264 <lfs_dir_traverse+0x29c>
            for (unsigned i = 0; i < lfs_tag_size(tag); i++) {
 8002220:	6c3b      	ldr	r3, [r7, #64]	; 0x40
 8002222:	3301      	adds	r3, #1
 8002224:	643b      	str	r3, [r7, #64]	; 0x40
 8002226:	69fb      	ldr	r3, [r7, #28]
 8002228:	4618      	mov	r0, r3
 800222a:	f7ff f9e9 	bl	8001600 <lfs_tag_size>
 800222e:	4602      	mov	r2, r0
 8002230:	6c3b      	ldr	r3, [r7, #64]	; 0x40
 8002232:	4293      	cmp	r3, r2
 8002234:	d3be      	bcc.n	80021b4 <lfs_dir_traverse+0x1ec>
 8002236:	e6ce      	b.n	8001fd6 <lfs_dir_traverse+0xe>
                }
            }
        } else {
            int err = cb(data, tag + LFS_MKTAG(0, diff, 0), buffer);
 8002238:	f9b7 3070 	ldrsh.w	r3, [r7, #112]	; 0x70
 800223c:	029a      	lsls	r2, r3, #10
 800223e:	69fb      	ldr	r3, [r7, #28]
 8002240:	18d1      	adds	r1, r2, r3
 8002242:	6f7b      	ldr	r3, [r7, #116]	; 0x74
 8002244:	6c7a      	ldr	r2, [r7, #68]	; 0x44
 8002246:	6fb8      	ldr	r0, [r7, #120]	; 0x78
 8002248:	4798      	blx	r3
 800224a:	6338      	str	r0, [r7, #48]	; 0x30
            if (err) {
 800224c:	6b3b      	ldr	r3, [r7, #48]	; 0x30
 800224e:	2b00      	cmp	r3, #0
 8002250:	f43f aec1 	beq.w	8001fd6 <lfs_dir_traverse+0xe>
                return err;
 8002254:	6b3b      	ldr	r3, [r7, #48]	; 0x30
 8002256:	e005      	b.n	8002264 <lfs_dir_traverse+0x29c>
            continue;
 8002258:	bf00      	nop
 800225a:	e6bc      	b.n	8001fd6 <lfs_dir_traverse+0xe>
                continue;
 800225c:	bf00      	nop
 800225e:	e6ba      	b.n	8001fd6 <lfs_dir_traverse+0xe>
                continue;
 8002260:	bf00      	nop
    while (true) {
 8002262:	e6b8      	b.n	8001fd6 <lfs_dir_traverse+0xe>
            }
        }
    }
}
 8002264:	4618      	mov	r0, r3
 8002266:	374c      	adds	r7, #76	; 0x4c
 8002268:	46bd      	mov	sp, r7
 800226a:	bd90      	pop	{r4, r7, pc}
 800226c:	7ff00000 	.word	0x7ff00000
 8002270:	08001f15 	.word	0x08001f15
 8002274:	600ffc00 	.word	0x600ffc00

08002278 <lfs_dir_fetchmatch>:

static lfs_stag_t lfs_dir_fetchmatch(lfs_t *lfs,
        lfs_mdir_t *dir, const lfs_block_t pair[2],
        lfs_tag_t fmask, lfs_tag_t ftag, uint16_t *id,
        int (*cb)(void *data, lfs_tag_t tag, const void *buffer), void *data) {
 8002278:	b590      	push	{r4, r7, lr}
 800227a:	b09f      	sub	sp, #124	; 0x7c
 800227c:	af04      	add	r7, sp, #16
 800227e:	60f8      	str	r0, [r7, #12]
 8002280:	60b9      	str	r1, [r7, #8]
 8002282:	607a      	str	r2, [r7, #4]
 8002284:	603b      	str	r3, [r7, #0]
    // we can find tag very efficiently during a fetch, since we're already
    // scanning the entire directory
    lfs_stag_t besttag = -1;
 8002286:	f04f 33ff 	mov.w	r3, #4294967295
 800228a:	667b      	str	r3, [r7, #100]	; 0x64

    // if either block address is invalid we return LFS_ERR_CORRUPT here,
    // otherwise later writes to the pair could fail
    if (pair[0] >= lfs->cfg->block_count || pair[1] >= lfs->cfg->block_count) {
 800228c:	687b      	ldr	r3, [r7, #4]
 800228e:	681a      	ldr	r2, [r3, #0]
 8002290:	68fb      	ldr	r3, [r7, #12]
 8002292:	6e9b      	ldr	r3, [r3, #104]	; 0x68
 8002294:	6a1b      	ldr	r3, [r3, #32]
 8002296:	429a      	cmp	r2, r3
 8002298:	d207      	bcs.n	80022aa <lfs_dir_fetchmatch+0x32>
 800229a:	687b      	ldr	r3, [r7, #4]
 800229c:	3304      	adds	r3, #4
 800229e:	681a      	ldr	r2, [r3, #0]
 80022a0:	68fb      	ldr	r3, [r7, #12]
 80022a2:	6e9b      	ldr	r3, [r3, #104]	; 0x68
 80022a4:	6a1b      	ldr	r3, [r3, #32]
 80022a6:	429a      	cmp	r2, r3
 80022a8:	d302      	bcc.n	80022b0 <lfs_dir_fetchmatch+0x38>
        return LFS_ERR_CORRUPT;
 80022aa:	f06f 0353 	mvn.w	r3, #83	; 0x53
 80022ae:	e33e      	b.n	800292e <lfs_dir_fetchmatch+0x6b6>
    }

    // find the block with the most recent revision
    uint32_t revs[2] = {0, 0};
 80022b0:	2300      	movs	r3, #0
 80022b2:	627b      	str	r3, [r7, #36]	; 0x24
 80022b4:	2300      	movs	r3, #0
 80022b6:	62bb      	str	r3, [r7, #40]	; 0x28
    int r = 0;
 80022b8:	2300      	movs	r3, #0
 80022ba:	663b      	str	r3, [r7, #96]	; 0x60
    for (int i = 0; i < 2; i++) {
 80022bc:	2300      	movs	r3, #0
 80022be:	65fb      	str	r3, [r7, #92]	; 0x5c
 80022c0:	e056      	b.n	8002370 <lfs_dir_fetchmatch+0xf8>
        int err = lfs_bd_read(lfs,
 80022c2:	68f8      	ldr	r0, [r7, #12]
                NULL, &lfs->rcache, sizeof(revs[i]),
                pair[i], 0, &revs[i], sizeof(revs[i]));
 80022c4:	6dfb      	ldr	r3, [r7, #92]	; 0x5c
 80022c6:	009b      	lsls	r3, r3, #2
 80022c8:	687a      	ldr	r2, [r7, #4]
 80022ca:	4413      	add	r3, r2
        int err = lfs_bd_read(lfs,
 80022cc:	681b      	ldr	r3, [r3, #0]
                pair[i], 0, &revs[i], sizeof(revs[i]));
 80022ce:	f107 0124 	add.w	r1, r7, #36	; 0x24
 80022d2:	6dfa      	ldr	r2, [r7, #92]	; 0x5c
 80022d4:	0092      	lsls	r2, r2, #2
 80022d6:	440a      	add	r2, r1
        int err = lfs_bd_read(lfs,
 80022d8:	2104      	movs	r1, #4
 80022da:	9103      	str	r1, [sp, #12]
 80022dc:	9202      	str	r2, [sp, #8]
 80022de:	2200      	movs	r2, #0
 80022e0:	9201      	str	r2, [sp, #4]
 80022e2:	9300      	str	r3, [sp, #0]
 80022e4:	2304      	movs	r3, #4
 80022e6:	4602      	mov	r2, r0
 80022e8:	2100      	movs	r1, #0
 80022ea:	68f8      	ldr	r0, [r7, #12]
 80022ec:	f7fe fd4e 	bl	8000d8c <lfs_bd_read>
 80022f0:	6378      	str	r0, [r7, #52]	; 0x34
        revs[i] = lfs_fromle32(revs[i]);
 80022f2:	6dfb      	ldr	r3, [r7, #92]	; 0x5c
 80022f4:	009b      	lsls	r3, r3, #2
 80022f6:	f107 0268 	add.w	r2, r7, #104	; 0x68
 80022fa:	4413      	add	r3, r2
 80022fc:	f853 3c44 	ldr.w	r3, [r3, #-68]
 8002300:	4618      	mov	r0, r3
 8002302:	f7fe fcd7 	bl	8000cb4 <lfs_fromle32>
 8002306:	4602      	mov	r2, r0
 8002308:	6dfb      	ldr	r3, [r7, #92]	; 0x5c
 800230a:	009b      	lsls	r3, r3, #2
 800230c:	f107 0168 	add.w	r1, r7, #104	; 0x68
 8002310:	440b      	add	r3, r1
 8002312:	f843 2c44 	str.w	r2, [r3, #-68]
        if (err && err != LFS_ERR_CORRUPT) {
 8002316:	6b7b      	ldr	r3, [r7, #52]	; 0x34
 8002318:	2b00      	cmp	r3, #0
 800231a:	d005      	beq.n	8002328 <lfs_dir_fetchmatch+0xb0>
 800231c:	6b7b      	ldr	r3, [r7, #52]	; 0x34
 800231e:	f113 0f54 	cmn.w	r3, #84	; 0x54
 8002322:	d001      	beq.n	8002328 <lfs_dir_fetchmatch+0xb0>
            return err;
 8002324:	6b7b      	ldr	r3, [r7, #52]	; 0x34
 8002326:	e302      	b.n	800292e <lfs_dir_fetchmatch+0x6b6>
        }

        if (err != LFS_ERR_CORRUPT &&
 8002328:	6b7b      	ldr	r3, [r7, #52]	; 0x34
 800232a:	f113 0f54 	cmn.w	r3, #84	; 0x54
 800232e:	d01c      	beq.n	800236a <lfs_dir_fetchmatch+0xf2>
                lfs_scmp(revs[i], revs[(i+1)%2]) > 0) {
 8002330:	6dfb      	ldr	r3, [r7, #92]	; 0x5c
 8002332:	009b      	lsls	r3, r3, #2
 8002334:	f107 0268 	add.w	r2, r7, #104	; 0x68
 8002338:	4413      	add	r3, r2
 800233a:	f853 2c44 	ldr.w	r2, [r3, #-68]
 800233e:	6dfb      	ldr	r3, [r7, #92]	; 0x5c
 8002340:	3301      	adds	r3, #1
 8002342:	2b00      	cmp	r3, #0
 8002344:	f003 0301 	and.w	r3, r3, #1
 8002348:	bfb8      	it	lt
 800234a:	425b      	neglt	r3, r3
 800234c:	009b      	lsls	r3, r3, #2
 800234e:	f107 0168 	add.w	r1, r7, #104	; 0x68
 8002352:	440b      	add	r3, r1
 8002354:	f853 3c44 	ldr.w	r3, [r3, #-68]
 8002358:	4619      	mov	r1, r3
 800235a:	4610      	mov	r0, r2
 800235c:	f7fe fc9c 	bl	8000c98 <lfs_scmp>
 8002360:	4603      	mov	r3, r0
        if (err != LFS_ERR_CORRUPT &&
 8002362:	2b00      	cmp	r3, #0
 8002364:	dd01      	ble.n	800236a <lfs_dir_fetchmatch+0xf2>
            r = i;
 8002366:	6dfb      	ldr	r3, [r7, #92]	; 0x5c
 8002368:	663b      	str	r3, [r7, #96]	; 0x60
    for (int i = 0; i < 2; i++) {
 800236a:	6dfb      	ldr	r3, [r7, #92]	; 0x5c
 800236c:	3301      	adds	r3, #1
 800236e:	65fb      	str	r3, [r7, #92]	; 0x5c
 8002370:	6dfb      	ldr	r3, [r7, #92]	; 0x5c
 8002372:	2b01      	cmp	r3, #1
 8002374:	dda5      	ble.n	80022c2 <lfs_dir_fetchmatch+0x4a>
        }
    }

    dir->pair[0] = pair[(r+0)%2];
 8002376:	6e3b      	ldr	r3, [r7, #96]	; 0x60
 8002378:	2b00      	cmp	r3, #0
 800237a:	f003 0301 	and.w	r3, r3, #1
 800237e:	bfb8      	it	lt
 8002380:	425b      	neglt	r3, r3
 8002382:	009b      	lsls	r3, r3, #2
 8002384:	687a      	ldr	r2, [r7, #4]
 8002386:	4413      	add	r3, r2
 8002388:	681a      	ldr	r2, [r3, #0]
 800238a:	68bb      	ldr	r3, [r7, #8]
 800238c:	601a      	str	r2, [r3, #0]
    dir->pair[1] = pair[(r+1)%2];
 800238e:	6e3b      	ldr	r3, [r7, #96]	; 0x60
 8002390:	3301      	adds	r3, #1
 8002392:	2b00      	cmp	r3, #0
 8002394:	f003 0301 	and.w	r3, r3, #1
 8002398:	bfb8      	it	lt
 800239a:	425b      	neglt	r3, r3
 800239c:	009b      	lsls	r3, r3, #2
 800239e:	687a      	ldr	r2, [r7, #4]
 80023a0:	4413      	add	r3, r2
 80023a2:	681a      	ldr	r2, [r3, #0]
 80023a4:	68bb      	ldr	r3, [r7, #8]
 80023a6:	605a      	str	r2, [r3, #4]
    dir->rev = revs[(r+0)%2];
 80023a8:	6e3b      	ldr	r3, [r7, #96]	; 0x60
 80023aa:	2b00      	cmp	r3, #0
 80023ac:	f003 0301 	and.w	r3, r3, #1
 80023b0:	bfb8      	it	lt
 80023b2:	425b      	neglt	r3, r3
 80023b4:	009b      	lsls	r3, r3, #2
 80023b6:	f107 0268 	add.w	r2, r7, #104	; 0x68
 80023ba:	4413      	add	r3, r2
 80023bc:	f853 2c44 	ldr.w	r2, [r3, #-68]
 80023c0:	68bb      	ldr	r3, [r7, #8]
 80023c2:	609a      	str	r2, [r3, #8]
    dir->off = 0; // nonzero = found some commits
 80023c4:	68bb      	ldr	r3, [r7, #8]
 80023c6:	2200      	movs	r2, #0
 80023c8:	60da      	str	r2, [r3, #12]

    // now scan tags to fetch the actual dir and find possible match
    for (int i = 0; i < 2; i++) {
 80023ca:	2300      	movs	r3, #0
 80023cc:	65bb      	str	r3, [r7, #88]	; 0x58
 80023ce:	e29a      	b.n	8002906 <lfs_dir_fetchmatch+0x68e>
        lfs_off_t off = 0;
 80023d0:	2300      	movs	r3, #0
 80023d2:	657b      	str	r3, [r7, #84]	; 0x54
        lfs_tag_t ptag = 0xffffffff;
 80023d4:	f04f 33ff 	mov.w	r3, #4294967295
 80023d8:	653b      	str	r3, [r7, #80]	; 0x50

        uint16_t tempcount = 0;
 80023da:	2300      	movs	r3, #0
 80023dc:	f8a7 304e 	strh.w	r3, [r7, #78]	; 0x4e
        lfs_block_t temptail[2] = {LFS_BLOCK_NULL, LFS_BLOCK_NULL};
 80023e0:	4aa9      	ldr	r2, [pc, #676]	; (8002688 <lfs_dir_fetchmatch+0x410>)
 80023e2:	f107 031c 	add.w	r3, r7, #28
 80023e6:	e892 0003 	ldmia.w	r2, {r0, r1}
 80023ea:	e883 0003 	stmia.w	r3, {r0, r1}
        bool tempsplit = false;
 80023ee:	2300      	movs	r3, #0
 80023f0:	f887 304d 	strb.w	r3, [r7, #77]	; 0x4d
        lfs_stag_t tempbesttag = besttag;
 80023f4:	6e7b      	ldr	r3, [r7, #100]	; 0x64
 80023f6:	64bb      	str	r3, [r7, #72]	; 0x48

        dir->rev = lfs_tole32(dir->rev);
 80023f8:	68bb      	ldr	r3, [r7, #8]
 80023fa:	689b      	ldr	r3, [r3, #8]
 80023fc:	4618      	mov	r0, r3
 80023fe:	f7fe fc64 	bl	8000cca <lfs_tole32>
 8002402:	4602      	mov	r2, r0
 8002404:	68bb      	ldr	r3, [r7, #8]
 8002406:	609a      	str	r2, [r3, #8]
        uint32_t crc = lfs_crc(0xffffffff, &dir->rev, sizeof(dir->rev));
 8002408:	68bb      	ldr	r3, [r7, #8]
 800240a:	3308      	adds	r3, #8
 800240c:	2204      	movs	r2, #4
 800240e:	4619      	mov	r1, r3
 8002410:	f04f 30ff 	mov.w	r0, #4294967295
 8002414:	f004 fada 	bl	80069cc <lfs_crc>
 8002418:	6478      	str	r0, [r7, #68]	; 0x44
        dir->rev = lfs_fromle32(dir->rev);
 800241a:	68bb      	ldr	r3, [r7, #8]
 800241c:	689b      	ldr	r3, [r3, #8]
 800241e:	4618      	mov	r0, r3
 8002420:	f7fe fc48 	bl	8000cb4 <lfs_fromle32>
 8002424:	4602      	mov	r2, r0
 8002426:	68bb      	ldr	r3, [r7, #8]
 8002428:	609a      	str	r2, [r3, #8]

        while (true) {
            // extract next tag
            lfs_tag_t tag;
            off += lfs_tag_dsize(ptag);
 800242a:	6d38      	ldr	r0, [r7, #80]	; 0x50
 800242c:	f7ff f8f5 	bl	800161a <lfs_tag_dsize>
 8002430:	4602      	mov	r2, r0
 8002432:	6d7b      	ldr	r3, [r7, #84]	; 0x54
 8002434:	4413      	add	r3, r2
 8002436:	657b      	str	r3, [r7, #84]	; 0x54
            int err = lfs_bd_read(lfs,
 8002438:	68f9      	ldr	r1, [r7, #12]
                    NULL, &lfs->rcache, lfs->cfg->block_size,
 800243a:	68fb      	ldr	r3, [r7, #12]
 800243c:	6e9b      	ldr	r3, [r3, #104]	; 0x68
            int err = lfs_bd_read(lfs,
 800243e:	69d8      	ldr	r0, [r3, #28]
 8002440:	68bb      	ldr	r3, [r7, #8]
 8002442:	681b      	ldr	r3, [r3, #0]
 8002444:	2204      	movs	r2, #4
 8002446:	9203      	str	r2, [sp, #12]
 8002448:	f107 0218 	add.w	r2, r7, #24
 800244c:	9202      	str	r2, [sp, #8]
 800244e:	6d7a      	ldr	r2, [r7, #84]	; 0x54
 8002450:	9201      	str	r2, [sp, #4]
 8002452:	9300      	str	r3, [sp, #0]
 8002454:	4603      	mov	r3, r0
 8002456:	460a      	mov	r2, r1
 8002458:	2100      	movs	r1, #0
 800245a:	68f8      	ldr	r0, [r7, #12]
 800245c:	f7fe fc96 	bl	8000d8c <lfs_bd_read>
 8002460:	63f8      	str	r0, [r7, #60]	; 0x3c
                    dir->pair[0], off, &tag, sizeof(tag));
            if (err) {
 8002462:	6bfb      	ldr	r3, [r7, #60]	; 0x3c
 8002464:	2b00      	cmp	r3, #0
 8002466:	d009      	beq.n	800247c <lfs_dir_fetchmatch+0x204>
                if (err == LFS_ERR_CORRUPT) {
 8002468:	6bfb      	ldr	r3, [r7, #60]	; 0x3c
 800246a:	f113 0f54 	cmn.w	r3, #84	; 0x54
 800246e:	d103      	bne.n	8002478 <lfs_dir_fetchmatch+0x200>
                    // can't continue?
                    dir->erased = false;
 8002470:	68bb      	ldr	r3, [r7, #8]
 8002472:	2200      	movs	r2, #0
 8002474:	759a      	strb	r2, [r3, #22]
                    break;
 8002476:	e1cd      	b.n	8002814 <lfs_dir_fetchmatch+0x59c>
                }
                return err;
 8002478:	6bfb      	ldr	r3, [r7, #60]	; 0x3c
 800247a:	e258      	b.n	800292e <lfs_dir_fetchmatch+0x6b6>
            }

            crc = lfs_crc(crc, &tag, sizeof(tag));
 800247c:	f107 0318 	add.w	r3, r7, #24
 8002480:	2204      	movs	r2, #4
 8002482:	4619      	mov	r1, r3
 8002484:	6c78      	ldr	r0, [r7, #68]	; 0x44
 8002486:	f004 faa1 	bl	80069cc <lfs_crc>
 800248a:	6478      	str	r0, [r7, #68]	; 0x44
            tag = lfs_frombe32(tag) ^ ptag;
 800248c:	69bb      	ldr	r3, [r7, #24]
 800248e:	4618      	mov	r0, r3
 8002490:	f7fe fc27 	bl	8000ce2 <lfs_frombe32>
 8002494:	4602      	mov	r2, r0
 8002496:	6d3b      	ldr	r3, [r7, #80]	; 0x50
 8002498:	4053      	eors	r3, r2
 800249a:	61bb      	str	r3, [r7, #24]

            // next commit not yet programmed or we're not in valid range
            if (!lfs_tag_isvalid(tag)) {
 800249c:	69bb      	ldr	r3, [r7, #24]
 800249e:	4618      	mov	r0, r3
 80024a0:	f7ff f843 	bl	800152a <lfs_tag_isvalid>
 80024a4:	4603      	mov	r3, r0
 80024a6:	f083 0301 	eor.w	r3, r3, #1
 80024aa:	b2db      	uxtb	r3, r3
 80024ac:	2b00      	cmp	r3, #0
 80024ae:	d01b      	beq.n	80024e8 <lfs_dir_fetchmatch+0x270>
                dir->erased = (lfs_tag_type1(ptag) == LFS_TYPE_CRC &&
 80024b0:	6d38      	ldr	r0, [r7, #80]	; 0x50
 80024b2:	f7ff f85b 	bl	800156c <lfs_tag_type1>
 80024b6:	4603      	mov	r3, r0
 80024b8:	f5b3 6fa0 	cmp.w	r3, #1280	; 0x500
 80024bc:	d10d      	bne.n	80024da <lfs_dir_fetchmatch+0x262>
                        dir->off % lfs->cfg->prog_size == 0);
 80024be:	68bb      	ldr	r3, [r7, #8]
 80024c0:	68db      	ldr	r3, [r3, #12]
 80024c2:	68fa      	ldr	r2, [r7, #12]
 80024c4:	6e92      	ldr	r2, [r2, #104]	; 0x68
 80024c6:	6992      	ldr	r2, [r2, #24]
 80024c8:	fbb3 f1f2 	udiv	r1, r3, r2
 80024cc:	fb02 f201 	mul.w	r2, r2, r1
 80024d0:	1a9b      	subs	r3, r3, r2
                dir->erased = (lfs_tag_type1(ptag) == LFS_TYPE_CRC &&
 80024d2:	2b00      	cmp	r3, #0
 80024d4:	d101      	bne.n	80024da <lfs_dir_fetchmatch+0x262>
 80024d6:	2301      	movs	r3, #1
 80024d8:	e000      	b.n	80024dc <lfs_dir_fetchmatch+0x264>
 80024da:	2300      	movs	r3, #0
 80024dc:	f003 0301 	and.w	r3, r3, #1
 80024e0:	b2da      	uxtb	r2, r3
 80024e2:	68bb      	ldr	r3, [r7, #8]
 80024e4:	759a      	strb	r2, [r3, #22]
                break;
 80024e6:	e195      	b.n	8002814 <lfs_dir_fetchmatch+0x59c>
            } else if (off + lfs_tag_dsize(tag) > lfs->cfg->block_size) {
 80024e8:	69bb      	ldr	r3, [r7, #24]
 80024ea:	4618      	mov	r0, r3
 80024ec:	f7ff f895 	bl	800161a <lfs_tag_dsize>
 80024f0:	4602      	mov	r2, r0
 80024f2:	6d7b      	ldr	r3, [r7, #84]	; 0x54
 80024f4:	441a      	add	r2, r3
 80024f6:	68fb      	ldr	r3, [r7, #12]
 80024f8:	6e9b      	ldr	r3, [r3, #104]	; 0x68
 80024fa:	69db      	ldr	r3, [r3, #28]
 80024fc:	429a      	cmp	r2, r3
 80024fe:	d903      	bls.n	8002508 <lfs_dir_fetchmatch+0x290>
                dir->erased = false;
 8002500:	68bb      	ldr	r3, [r7, #8]
 8002502:	2200      	movs	r2, #0
 8002504:	759a      	strb	r2, [r3, #22]
                break;
 8002506:	e185      	b.n	8002814 <lfs_dir_fetchmatch+0x59c>
            }

            ptag = tag;
 8002508:	69bb      	ldr	r3, [r7, #24]
 800250a:	653b      	str	r3, [r7, #80]	; 0x50

            if (lfs_tag_type1(tag) == LFS_TYPE_CRC) {
 800250c:	69bb      	ldr	r3, [r7, #24]
 800250e:	4618      	mov	r0, r3
 8002510:	f7ff f82c 	bl	800156c <lfs_tag_type1>
 8002514:	4603      	mov	r3, r0
 8002516:	f5b3 6fa0 	cmp.w	r3, #1280	; 0x500
 800251a:	d160      	bne.n	80025de <lfs_dir_fetchmatch+0x366>
                // check the crc attr
                uint32_t dcrc;
                err = lfs_bd_read(lfs,
 800251c:	68f8      	ldr	r0, [r7, #12]
                        NULL, &lfs->rcache, lfs->cfg->block_size,
 800251e:	68fb      	ldr	r3, [r7, #12]
 8002520:	6e9b      	ldr	r3, [r3, #104]	; 0x68
                err = lfs_bd_read(lfs,
 8002522:	69dc      	ldr	r4, [r3, #28]
 8002524:	68bb      	ldr	r3, [r7, #8]
 8002526:	681b      	ldr	r3, [r3, #0]
 8002528:	6d7a      	ldr	r2, [r7, #84]	; 0x54
 800252a:	3204      	adds	r2, #4
 800252c:	2104      	movs	r1, #4
 800252e:	9103      	str	r1, [sp, #12]
 8002530:	f107 0114 	add.w	r1, r7, #20
 8002534:	9102      	str	r1, [sp, #8]
 8002536:	9201      	str	r2, [sp, #4]
 8002538:	9300      	str	r3, [sp, #0]
 800253a:	4623      	mov	r3, r4
 800253c:	4602      	mov	r2, r0
 800253e:	2100      	movs	r1, #0
 8002540:	68f8      	ldr	r0, [r7, #12]
 8002542:	f7fe fc23 	bl	8000d8c <lfs_bd_read>
 8002546:	63f8      	str	r0, [r7, #60]	; 0x3c
                        dir->pair[0], off+sizeof(tag), &dcrc, sizeof(dcrc));
                if (err) {
 8002548:	6bfb      	ldr	r3, [r7, #60]	; 0x3c
 800254a:	2b00      	cmp	r3, #0
 800254c:	d009      	beq.n	8002562 <lfs_dir_fetchmatch+0x2ea>
                    if (err == LFS_ERR_CORRUPT) {
 800254e:	6bfb      	ldr	r3, [r7, #60]	; 0x3c
 8002550:	f113 0f54 	cmn.w	r3, #84	; 0x54
 8002554:	d103      	bne.n	800255e <lfs_dir_fetchmatch+0x2e6>
                        dir->erased = false;
 8002556:	68bb      	ldr	r3, [r7, #8]
 8002558:	2200      	movs	r2, #0
 800255a:	759a      	strb	r2, [r3, #22]
                        break;
 800255c:	e15a      	b.n	8002814 <lfs_dir_fetchmatch+0x59c>
                    }
                    return err;
 800255e:	6bfb      	ldr	r3, [r7, #60]	; 0x3c
                return err;
 8002560:	e1e5      	b.n	800292e <lfs_dir_fetchmatch+0x6b6>
                }
                dcrc = lfs_fromle32(dcrc);
 8002562:	697b      	ldr	r3, [r7, #20]
 8002564:	4618      	mov	r0, r3
 8002566:	f7fe fba5 	bl	8000cb4 <lfs_fromle32>
 800256a:	4603      	mov	r3, r0
 800256c:	617b      	str	r3, [r7, #20]

                if (crc != dcrc) {
 800256e:	697b      	ldr	r3, [r7, #20]
 8002570:	6c7a      	ldr	r2, [r7, #68]	; 0x44
 8002572:	429a      	cmp	r2, r3
 8002574:	d004      	beq.n	8002580 <lfs_dir_fetchmatch+0x308>
                    dir->erased = false;
 8002576:	68bb      	ldr	r3, [r7, #8]
 8002578:	2200      	movs	r2, #0
 800257a:	759a      	strb	r2, [r3, #22]
                    break;
 800257c:	bf00      	nop
 800257e:	e149      	b.n	8002814 <lfs_dir_fetchmatch+0x59c>
                }

                // reset the next bit if we need to
                ptag ^= (lfs_tag_t)(lfs_tag_chunk(tag) & 1U) << 31;
 8002580:	69bb      	ldr	r3, [r7, #24]
 8002582:	4618      	mov	r0, r3
